:020000040800F2
:10000000B85500204D020008D92B0008CD29000862
:10001000D52B000889050008AD330008000000005A
:10002000000000000000000000000000712D00082A
:10003000A505000800000000E12B00089D2D000828
:1000400067020008670200086702000867020008EC
:1000500067020008670200086702000867020008DC
:1000600067020008670200086702000867020008CC
:100070009905000867020008670200086702000887
:1000800067020008670200086702000867020008AC
:100090008D05000867020008670200086702000873
:1000A000670200086702000867020008670200088C
:1000B000670200086702000867020008670200087C
:1000C000670200086702000867020008670200086C
:1000D000670200086702000867020008670200085C
:1000E000670200086702000867020008670200084C
:1000F000670200086702000867020008670200083C
:10010000670200086702000867020008670200082B
:100110006702000867020008792E000867020008DD
:10012000670200086702000867020008670200080B
:1001300067020008670200086702000867020008FB
:1001400067020008670200086702000867020008EB
:1001500067020008670200086702000867020008DB
:1001600067020008670200086702000867020008CB
:10017000670200086702000867020008000000002C
:10018000670200086702000800F002F800F04EF86D
:100190000AA090E8000C82448344AAF10107DA45E2
:1001A00001D100F043F8AFF2090EBAE80F0013F0E6
:1001B000010F18BFFB1A43F0010318474C880000D9
:1001C0006C8800000A4410F8014B14F00F0508BFBA
:1001D00010F8015B240908BF10F8014B6D1E05D013
:1001E00010F8013B6D1E01F8013BF9D1641E03D0EC
:1001F000641E01F8015BFBD19142E4D3704700001B
:100200000023002400250026103A28BF78C1FBD81F
:10021000520728BF30C148BF0B6070471FB508F0B8
:10022000E0FA00F023F91FBD10B510BD00F076F91B
:100230001146FFF7F3FF04F07BF800F094F903B4E4
:10024000FFF7F2FF03BC00F097F900000948804770
:1002500009480047FEE7FEE7FEE7FEE7FEE7FEE7A8
:10026000FEE7FEE7FEE7FEE704480549054A064BC0
:1002700070470000652E000889010008B84F002073
:10028000B8550020B8510020B851002053EA020CA4
:1002900000F069802DE9F04B4FF00006002B1FBFE6
:1002A000B3FA83F503FA05F424FA05F65E4012BFAB
:1002B0001643B2FA82F502FA05F4C5F120051EBF15
:1002C00022FA05FC44EA0C04203556EA044C4FEAB5
:1002D000144418BF641C4FF000084FF0000990420E
:1002E00071EB030C39D3002919BFB1FA81F701FA78
:1002F00007F6B0FA80F700FA07F6C7F120071EBF2D
:1003000020FA07FC46EA0C062037B6FBF4FCA7EB04
:100310000507103F07F01F0BCBF120062CFA06F65D
:100320000CFA0BFB44BFB3460026202FA4BF5E4649
:100330004FF0000B5BEA060C08BF4FF0010B19EB06
:100340000B0948EB0608ABFB027C06FB02CC0BFB5F
:1003500003CCC01B71EB0C01C1E70B4602464146C2
:100360004846BDE8F08B13B5084318BF4FF0FF3087
:100370000146AFF30080BDE81C407047032A40F2FD
:10038000308010F0030C00F0158011F8013BBCF137
:10039000020F624498BF11F801CB00F8013B38BF4F
:1003A00011F8013BA2F1040298BF00F801CB38BF5D
:1003B00000F8013B11F0030300F07580083AC0F02B
:1003C000088051F8043B083A51F804CBA0E8081023
:1003D000F5E7121D5CBF51F8043B40F8043BAFF356
:1003E0000080D20724BF11F8013B11F801CB48BFB0
:1003F00011F8012B24BF00F8013B00F801CB48BFE6
:1004000000F8012B704702F0FF0343EA032242EA9F
:10041000024200F002B84FF0000200B513469446C5
:100420009646203922BFA0E80C50A0E80C50B1F14C
:100430002001BFF4F7AF090728BFA0E80C5048BF60
:100440000CC05DF804EB890028BF40F8042B08BFFE
:10045000704748BF20F8022B11F0804F18BF00F8FA
:10046000012B7047704770477047000070B5064C0D
:100470007C44064D7D4404E02046016808448047E2
:10048000241DAC42F8D170BDB4850000B4850000D5
:1004900010B500F03BF8006810BD10B5044600F040
:1004A00035F8046010BD10B5203AC0F00B80B1E8FB
:1004B0001850A0E81850B1E81850A0E81850203A99
:1004C000BFF4F5AF5FEA027C24BFB1E81850A0E8A2
:1004D000185044BF18C918C0BDE810405FEA827CBC
:1004E00024BF51F8043B40F8043B08BF7047D207D3
:1004F00028BF31F8023B48BF11F8012B28BF20F874
:10050000023B48BF00F8012B7047000000487047CD
:100510005001002000487047500100207546FFF749
:10052000F9FFAE4605006946534620F007008546B0
:1005300018B020B5FFF798FEBDE820404FF0000648
:100540004FF000074FF000084FF0000BAC46ACE84E
:10055000C009ACE8C009ACE8C009ACE8C00921F0AA
:1005600007018D46704710B50446AFF30080204662
:10057000BDE81040FFF763BE01491820ABBEFEE79F
:100580002600020070470000FEE7000040F2D02085
:10059000C2F2000000F084B940F2F820C2F200007C
:1005A00000F0E4BB7047000072B600BFFEE7000039
:1005B00090F82020013A012A08D8006800F11402BE
:1005C0000020136819431160704700BF00F1240236
:1005D00001204FF480211368194311607047000017
:1005E00010B590F820E0D0F800C0AEF1010EBEF1D9
:1005F000010FDCF808E011D81EF0E05F18D0CEF350
:10060000016E012000FA0EF018608B68D3B14868C3
:10061000CC6844EAC000034318E000BF00F12401A5
:1006200001204FF480220B681A430A6010BD00BFFE
:1006300000F1240101204FF400120B681A430A60F4
:1006400010BD00BF0868CB6843EA40530CEB0E10A6
:10065000C0F880310B69C0F88431097D012905D1CA
:1006600000F5C2710B6843F480730B605168C0F8E9
:100670008C11126800F5C071C0F888210020012299
:100680000B681A430A6010BDB0B590F82020013AFB
:10069000012A2FD846F20060C4F20000026842F03E
:1006A00001020260026822F47C520260D1F814E078
:1006B000CC694A6A0368012C43EA022202600EF008
:1006C0001F024FF0010303FA02F2C3696FEA020C42
:1006D00023EA0203C36113D02CBBC36803EA0C03F3
:1006E000C360CB688C8844EA034300EBCE042364E8
:1006F0000B4611E0416A41F4802141620120B0BD06
:10070000C3681343C3600B688C8844EA034300EB5F
:10071000CE04236401F10C038C681B8843EA044374
:1007200000EBCE04636443688D6943EA0204D1F8A8
:1007300010E0096A002D08BF03EA0C044460436915
:10074000BEF1000F43EA020408BF03EA0C040129CA
:10075000446102D1C1691143C161016821F0010105
:1007600001600020B0BD00007047000010B590F897
:100770002040013C012C7BD8D0F800C0002900F0BB
:100780008180DCF81040A40700F081800CEB011C94
:10079000DCF8B0410CF5D87E14F004049460DCF869
:1007A000B04119BFE4085460640D1460DEF80040E5
:1007B0000CF5DA7E04F00204D460DCF8B4412407BE
:1007C0005ABFDEF8004004F00F0408241461DEF87C
:1007D00000400029C4F307249461DEF800404FEA8A
:1007E00014445461DCF8B8211A70026802EB01125B
:1007F000D2F8B8214FEA12225A70026802EB0112B5
:10080000D2F8B8214FEA12429A70026802EB011244
:10081000D2F8B8214FEA1262DA70026802EB0112D4
:10082000D2F8BC211A71026802EB0112D2F8BC2185
:100830004FEA12225A71026802EB0112D2F8BC216F
:100840004FEA12429A71026802EB0112D2F8BC21FF
:100850004FEA1262DA71006814BF00F1100100F172
:100860000C01002020220B681A430A6010BD00BF53
:1008700000F1240101204FF480220B681A430A6022
:1008800010BD00BFDCF80C40A4077FF47FAF00F17F
:10089000240101204FF400120B681A430A6010BDB6
:1008A0002DE9F04F81B0044600684669D0F8049005
:1008B0008768D0F80CB0D0F810A0D0F81880F107F5
:1008C00004D1002530071DD424E000BFF90710D063
:1008D0000121BA07816009D4780700F1AF80380799
:1008E00000F1B680204600F033FA02E0204600F026
:1008F00031FA0025F80500F18780F80300F1B18096
:10090000300707D51BF0100004D0206845F40075AF
:100910001021C160700708D51BF0080005D02068C1
:100920000821C160204600F0A1F9B00706D5206873
:10093000C068800702D0204600F09AF9700607D5FB
:100940001AF0100004D0206845F480651021016180
:10095000B00608D51AF0080005D02068082101610A
:10096000204600F0C1F9F00606D52068006980072E
:1009700002D0204600F0BAF9B00308D519F01000F3
:1009800005D0206810214160204600F0B1F9F00345
:1009900008D519F0080005D02068082141602046DC
:1009A00000F0E2F9300440F19B805FEA497040F1C9
:1009B000948006F4807008EA102028435FEA88716A
:1009C000014648BF41F00201B20558BF01465FEA47
:1009D00048700D4648BF45F00405700558BF0D46E8
:1009E000300540F17A8018F0700000F07680103801
:1009F000000905286CD8DFE800F003595D616569DE
:100A000045F0080564E000BF20684FF48071BA0526
:100A100081600BD4780515D438051DD4204600F02C
:100A20009BF9F8037FF56CAF1BE000BF204600F098
:100A300095F9F8037FF564AF13E000BF4FF400654C
:100A400058E700BF05F50055F8037FF559AF08E0FA
:100A50004FF480554EE700BF05F58045F8037FF55C
:100A60004FAF20684FF48031BA0381600AD4780315
:100A700010D4380314D4204600F072F930073FF543
:100A800041AF47E7204600F06DF930073FF53AAF38
:100A900040E700BF05F5004530073FF533AF39E7C4
:100AA00005F5803530073FF52DAF33E745F01005EC
:100AB0000EE000BF45F020050AE000BF45F040050C
:100AC00006E000BF45F0800502E000BF45F48075F8
:100AD0002068816921F070018161206804214160F2
:100AE00055B1606A40EA05012046616201B0BDE887
:100AF000F04FFFF739BE00BF01B0BDE8F08F000036
:100B0000B0B5C8B1044690F8200010B9204600F0F6
:100B100071F82068016841F00101016000F0F6FB06
:100B2000054600BF20684168C90707D100F0EEFB09
:100B3000401B0B28F6D312E00120B0BD016821F064
:100B40000201016000F0E2FB054600BF2068416839
:100B500089070DD500F0DAFB401B0B28F6D3606A3D
:100B6000052140F400306062012084F82010B0BDFF
:100B7000217E0268012922F0800208BF80320260D3
:100B8000617E0268012922F0400208BF4032026003
:100B9000A17E0268012922F0200208BF20320260F3
:100BA000E17E0268012922F0100218BF10320260B3
:100BB000217F0268012922F0080208BF0832026082
:100BC000617F0268012922F0040208BF043202603A
:100BD000D4E901C2D4E9033561691A432A431143B8
:100BE000ACF101021143C16100200121606284F86F
:100BF0002010B0BD80B586B0016846F20040C4F256
:100C00000000814202D006B080BD00BF002143F643
:100C100030020191C4F20202136900F5D43043F0AE
:100C200000731361136903F000730193019B019139
:100C3000136843F0080313601268022302F00802ED
:100C40000192019ACDE9023109210322059101A9FE
:100C50000192049200F080FA14200521002200F095
:100C600019FC142000F002FC06B080BD70470000A3
:100C700010B540F2D021C2F2000100680968884234
:100C800000D010BD40F6383440F2D020C2F200044B
:100C900040F63033C2F20000C2F2000300212246C7
:100CA000FFF764FD206840F20521884210D0B0F5BE
:100CB000027F18BF10BD40F28440C2F2000040F62F
:100CC0003031C2F20001BDE8104002F001BD00BFAA
:100CD00044F65C60C2F2000040F63031C2F200011E
:100CE000BDE8104002F0F4BC7047000070470000FF
:100CF00070470000B0B5044690F8200001281DD1CF
:100D0000022084F820002068016821F001010160C0
:100D100000F0FCFA054600BF20684068C00713D009
:100D200000F0F4FA401B0B28F6D3606A40F4003060
:100D30006062052084F820000120B0BD606A40F4A4
:100D4000002060620120B0BD00206062B0BD0000E4
:100D500070470000704700007047000070470000B7
:100D6000704700007047000070470000F0B581B088
:100D700004460020009040F28400C2F200000268A5
:100D8000D4E9166048F2B51337680821C1F64E332E
:100D900081403942A2FB03250CD0226813685B070F
:100DA00008D5136823F004031360B160616D41F04E
:100DB0000101616501218140394208D022685269F0
:100DC000120604D5B160616D41F002016165042134
:100DD0008140394208D022681268920704D5B16078
:100DE000616D41F00401616510218140394217D0E5
:100DF00020680268120713D5B160026801685203C7
:100E000008D4C90508D4016821F008010160216CEB
:100E100021B905E008033FD4216C09B12046884779
:100E2000E16D202000FA01F23A4241D020680368C7
:100E3000DB063DD5B26094F835300268052B1BD136
:100E400022F016020260426922F080024261226CA6
:100E50000AB9A26C1AB1026822F0080202603F20AF
:100E60008840B060012084F83500216D0020002901
:100E700084F8340052D157E00168520310D4C905F8
:100E800012D4016821F010010160012084F83500BE
:100E9000002084F8340007E0A16C0029BED1BFE730
:100EA000080301D4616C00E0E16B09B1204688477A
:100EB000606DC8B3606DC0072ED0052084F8350082
:100EC0002068A90A026822F001020260009A013239
:100ED0008A4200921AD80268D20717D0009A0132CB
:100EE0008A42009212D80268D2070FD0009A0132CB
:100EF0008A4200920AD80268D20707D0009A0132CB
:100F00008A42009202D80268D207DFD1012084F819
:100F10003500002084F83400E16C29B1204601B08E
:100F2000BDE8F040084700BF01B0F0BD2DE9F04139
:100F3000044600F0EBF9ECB10546022084F83500D8
:100F40000020216884F83400086820F0010008605F
:100F500021680868C00711D000F0D8F9401B0528A7
:100F6000F6D9032520230320636584F83550BDE8B6
:100F7000F08100BF0120BDE8F08100BF086848F2A1
:100F80003F02CFF21002D4E9013500EA020C04F16D
:100F90000C0898E8C10143EA0C032B431843D4E939
:100FA000072E304338431043626A40EA0E00042A99
:100FB00040EA08031CD1206BD4E90A2E40EA0E0057
:100FC000184308604869BEF1000F20F0030040EAB2
:100FD000020040F0040C11D0B8F5005F36D0B8F133
:100FE000000F45D1022A46D0012A3BD032B942E057
:100FF0000B60486920F0070040EA020C01F0F8009D
:101000004AF6AB221038CAF6AA22A0FB02231A091C
:1010100048F6A013C0F600039A5C40F2FF335F2845
:101020004FF03F00C1F814C021EA030100FA02F0BA
:1010300088BF0431C4E9161288600023012500200E
:10104000636584F83550BDE8F08100BF032AD5D828
:10105000012540230120DFE802F0030E030500BF55
:1010600082E700BFAEF1C070B0FA80F0400904E042
:10107000032A04D3C2D1CEF300600028BED00125DC
:1010800040230120636584F83550BDE8F0810000FD
:1010900070B590F834C0BCF1010F46D04FF0010C90
:1010A00080F834C0D0F858E090F835C0BCF1010F9A
:1010B00038D14FF0020C80F835C04FF0000CC0F86A
:1010C00054C0D0F800C08468056CC06DDCF80060C6
:1010D000402C26F48026CCF80060CCF804300B4677
:1010E00004BF13460A463F2101FA00F0CCF808304D
:1010F000CCF80C20CEF80800DCF8000040F0160018
:10110000CCF800002DB1DCF8000040F00800CCF86D
:101110000000DCF8000040F00100CCF800000020E6
:1011200070BD00BF002180F83410022070BD0000A7
:10113000B0B5044600F0EAF8054640F20000C2F2FD
:1011400000000078611C18BF044400BF00F0DEF806
:10115000401BA042FAD3B0BD2DE9F04F82B000F1A0
:101160003E4241F6004502F1FF77C4F20205082233
:1011700043F6004E4FEAB726A84208BF0722C4F242
:10118000010E072E38BF4FEAB7220125002600279F
:101190004FF00008009208E008F101080437B8F1A8
:1011A000100F06F1020600F0A7800C6805FA08F996
:1011B00014EA090FF0D0D1F804B003220BF0030CAD
:1011C000ACF10104B240012C6FEA020A10D8826827
:1011D000CC6802EA0A02B440224382604268CBF340
:1011E000001422EA090204FA08F42243426005E0EE
:1011F000BCF1030F02D14FF0030C20E0C2688C68F1
:1012000002EA0A02B4402243BCF1020FC26016D1C6
:101210006FF0030202EA58020244D2F820C007F03D
:101220001C050F230C69AB402CEA030304FA05F5F7
:101230002B431362D1F804B001250BF0030C0268B4
:101240000CFA06F302EA0A021A431BF4403F02605A
:10125000A2D0002243F644030192C4F202031A68AA
:101260004FF6084C42F480421A601A68CFF6FF7CB1
:1012700002F480420192019A28F00302724452F86B
:101280000C3007F00C050F24AC40A343009C04FA7B
:1012900005F52B4342F80C30DEF808204B6842EA93
:1012A000090543F60C4CDC0258BF22EA0905CEF8CA
:1012B0000850C4F2010CDCF800209C0242EA090547
:1012C00058BF22EA0905CCF80050DEF804209C0340
:1012D00042EA090558BF22EA0905CEF80450DEF8B3
:1012E0000020DB0342EA090558BF22EA0905CEF8CF
:1012F0000050012550E700BF02B0BDE8F08F0000AC
:10130000002A08BF090481617047000044F2607040
:10131000C2F200000068704740F2000044F26071C1
:10132000C2F20000C2F2000100780A6810440860AE
:101330007047000080B543F60040C4F20200016827
:1013400041F400710160016841F48061016001684D
:1013500041F480710160032000F0C8F80F2000F014
:1013600005F800F061F8002080BD000070B586B07F
:10137000002543F640010195C4F202010A680446C3
:1013800042F010020A60096801A801F01001019101
:101390000199694600F06AF9049E002E18BF0126E3
:1013A00000F084F94DF68361B040C4F21B31A0FB1C
:1013B00001014FF0FF3000EB914140F2B03041F2BB
:1013C0000002C2F20000C4F2000240F2E733C0E9BA
:1013D0000021C0E902530561856101F019F8054655
:1013E00010B1284606B070BD40F2B030C2F2000025
:1013F00001F03EF805460028F3D1362000F036F81B
:101400000F2C0DD8362021460022002500F042F88E
:1014100040F20400C2F200000460284606B070BD2D
:101420000125284606B070BD82B0002043F6400179
:101430000190C4F202014A6842F480424A604A685C
:1014400002F480420192019A00900868002240F064
:101450008050086008680F2100F0805000900098CC
:101460006FF0010002B000F015B80000002848BF7E
:101470007047C1B200F01F00012202FA00F04EF2E4
:101480000012CEF2000242EAD10121F0030108600D
:101490007047000010B54EF60C5CCEF2000CDCF884
:1014A0000030C3F3022E8EF00704042C28BF04245E
:1014B000BEF103034FF0FF3E0EFA04F438BF0023E1
:1014C000A14399400EFA03F39A43114300F00F022F
:1014D00000F160430901043A03F5644362440028C3
:1014E00048BF02F10C03197010BD00004EF60C51FC
:1014F000CEF200010A684FF6FF031A4060F30A2299
:1015000042F0806040F0FD70086070472DE9F041C6
:10151000002800F08B8043F60808C4F20208044655
:10152000D8F8F8030D4600F00700884207D288F883
:10153000F853D8F8F80300F00700A84276D12068E5
:10154000810717D5410705D5D8F8001041F4E051BF
:10155000C8F80010010705D5D8F8001041F4604123
:10156000C8F80010D8F80010A26821F0F00111436B
:10157000C8F80010C0073FD1D8F8F80300F0070002
:10158000A84207D988F8F853D8F8F80300F0070004
:10159000A8424BD12068410707D5D8F80010E2686F
:1015A00021F4E0511143C8F80010000708D5D8F81D
:1015B0000000216920F4604040EAC100C8F8000042
:1015C00000F09CF8D8F8001048F68812C1F3031117
:1015D000C0F60002515C40F2840220FA01F140F2B0
:1015E0000400C2F200000068C2F200021160FFF7BE
:1015F000BDFE0020BDE8F0816068811E022907D28F
:1016000058F8081C89015CBF0120BDE8F08111E099
:10161000012807D158F8081C89035CBF0120BDE8E8
:10162000F08107E058F8081C890703D40120BDE8C1
:10163000F08100BFD8F8001021F003010843C8F87A
:101640000000FFF763FE064641F28837D8F8000035
:10165000616800F00C00B0EB810F8DD0FFF756FEF3
:10166000801BB842F2D90320BDE8F0810F2202604E
:1016700043F60802C4F20202136803F00303436056
:10168000136803F0F0038360136803F4E053C3604E
:10169000D2F800C04FF4E05303EADC030361D2F850
:1016A000F80300F0070008607047000040F2840073
:1016B00043F60801C2F20000C4F2020100680968A2
:1016C00048F69812C1F38221C0F60002515CC8406E
:1016D0007047000040F2840043F60801C2F20000A7
:1016E000C4F202010068096848F69812C1F3423159
:1016F000C0F60002515CC8407047000010B543F6C8
:101700000404C4F20204606800F00C0008280BD046
:10171000042819BF42F20040C0F2F40041F6003044
:10172000C0F2B70010BD00BF2068216823684902DD
:1017300041F60031C0F2B70100F03F02C3F3881058
:101740005CBF42F20041C0F2F401A1FB00010023A2
:10175000FEF79CFD21680222C1F3014102EB410129
:10176000B0FBF1F010BD00002DE9F04182B000287F
:1017700068D00446007843F60006C007C4F20206AB
:101780000BD0B06800F00C00042840F09F80306857
:10179000800302D56068002854D0207880071AD5CD
:1017A000B06810F00C0F09D0B06800F00C000828E9
:1017B00040F0A6807068400200F1A2803068800787
:1017C00002D5E06801283DD13068216920F0F80099
:1017D00040EAC10030602078000737D42078400705
:1017E0004CD4A56955B3B06800F00C00082840F04F
:1017F000BB80012D26D07068E16900F480028A4226
:1018000020D1216A00F03F028A421BD147F6C07105
:10181000626A0140B1EB821F14D1A16A4FF6FF73D7
:10182000C903994300F44032A1F580318A4209D1BD
:10183000E16A00F07060B0EB016F03D1002002B0EC
:10184000BDE8F081012002B0BDE8F08160690028A8
:1018500040F20000C4F2472076D00121C0F8801E7B
:10186000FFF754FD054600BF706F8007B6D4FFF741
:101870004DFD401B0228F7D9DDE000BF306C10F0B1
:1018800080580AD100200190306C40F080503064C4
:10189000306C00F080500190019847F20007C4F2CC
:1018A00000073868C00541D4386840F4807038605B
:1018B000FFF72CFD054600BF3868C00536D4FFF79A
:1018C00025FD401B0228F7D9B5E000BFB06800F045
:1018D0000C00082803D1706840023FF558AF6068DB
:1018E000B0F5803F07D0B0F5A02F40F08D80306874
:1018F00040F480203060306840F4803030608DE00B
:10190000E068002852D00020C4F247200121016085
:10191000FFF7FCFC054600BF306880073FF554AF79
:10192000FFF7F4FC401B0228F6D984E0A0680128E8
:1019300005D005284ED1306F40F004003067306F7D
:1019400040F0010030674FE00021C0F8801EFFF733
:10195000DDFC0546706F80077FF540AFFFF7D6FCD2
:10196000401B0228F6D966E00027C4F24727002072
:101970003866FFF7CBFC022D05460BD1306880019D
:101980005ED5FFF7C3FC401B02284FF00300F5D9DA
:1019900055E700BF306880017FF550AFFFF7B6FC18
:1019A000401B02284FF00300F4D948E70020C4F29E
:1019B000472000210160FFF7A9FC05463068800739
:1019C0007FF509AFFFF7A2FC401B02284FF0030090
:1019D000F4D934E7316F002821F001013167316F0C
:1019E00021F0040131674DD0FFF790FC054641F22C
:1019F000883700BF306F800756D4FFF787FC401B45
:101A0000B842F7D917E000BF3168002821F48031CF
:101A10003160316821F4802131604FD0FFF776FCCE
:101A2000054600BF306880033FF5B7AEFFF76EFC98
:101A3000401B6428F6D9032002B0BDE8F08100BF46
:101A400004F11C052FCD084340EA8210D9034FF65C
:101A5000FF729143A1F5803140EA05600843706050
:101A600001203866FFF752FC044600BF3068800151
:101A70003FF5E4AEFFF74AFC001B02284FF00300DD
:101A8000F4D9DCE6FFF742FC054641F2883700BF97
:101A9000306F800708D5FFF739FC401BB8424FF084
:101AA0000300F5D9CBE600BFB8F1000F7FF499AE83
:101AB000306C20F08050306493E600BFFFF726FCC6
:101AC000054600BF306880037FF567AEFFF71EFC58
:101AD000401B64284FF00300F4D9B0E690F85100A1
:101AE0007047000070B538B10446406A30B100203C
:101AF000206104F1140007E0012070BD6068B0F5BA
:101B0000827F03D004F11C00002101600026A66240
:101B100094F8510020B9204684F8506000F03CF859
:101B2000022084F8510094E80F0001F482710568E6
:101B300002F4044225F040050560114403F40062FC
:101B40002369114403F002026369114403F00102A6
:101B5000A369E569114403F40072114405F03802E9
:101B6000256A114405F08002A56A114305F400526C
:101B700011430160626A042101EA134102F010027C
:101B800011444160C16921F40061C16101206665B1
:101B900084F85100304670BD2DE9F04385B00068EF
:101BA00043F20005C4F20105A84203D005B0BDE828
:101BB000F08300BF002643F630000096C4F2020016
:101BC00041696C4641F48051416141694FF002081E
:101BD00001F4805100910099009601684FF00309CB
:101BE00041F0020101600168052701F00201009146
:101BF00000990096016841F00101016000682146EA
:101C000000F00100009000981820009005F5544065
:101C1000CDE90186CDF80C900497FFF79DFA80205E
:101C2000CDE9000805F550402146CDE90269049749
:101C3000FFF792FA05B0BDE8F08300002DE9F0410E
:101C400082B0044690F85100012818D10E460029B0
:101C50004FF0010000F0EF801746002A00F0EB8003
:101C600060681D46B0F5827F03D1A068002800F0AF
:101C7000BB80FFF74BFB94F85010012904D10220E0
:101C800002B0BDE8F08100BF8046012084F850001A
:101C90000420002184F851006165A663A787E787C7
:101CA0002163A186E186A2682068B2F5004F216415
:101CB000616437D0016849063FD5E168E08F0029AB
:101CC00043D000287AD0681C0BD11AE0C068A16B01
:101CD00021F8020BA163E08F0138E087E08F002834
:101CE0006CD020688168C907F0D1FFF70FFBA0EB2B
:101CF0000800A842F2D342E0FFF708FBE08F00287B
:101D00005CD020688168C907F6D0C068A16B21F853
:101D1000020BA163E08F0138E087E08F0028F0D14B
:101D20004CE000BF016821F040010160016821F42E
:101D30008041016001684906BFD4016841F040015B
:101D40000160E168E08F0029BBD1B8B3681C0CD1F9
:101D500024E000BF007BA16B0870A06B0130A06382
:101D6000E08F0138E087E08F40B320688168C907C1
:101D7000F0D1FFF7CBFAA0EB0800A842F3D3012083
:101D800084F85100002084F85000032002B0BDE820
:101D9000F08100BFFFF7BAFAE08F78B12068816860
:101DA000C907F7D0007BA16B0870A06B0130A0635E
:101DB000E08F0138E087E08F0028EFD16068B0F550
:101DC000827F0ED1A068B0F5004F02D0B0F5806FD1
:101DD00018D12168B0F5806F0A6822F040020A60CD
:101DE00010D1204601210FE0042084F85100204644
:101DF000314632463B46009500F05EF902B0BDE840
:101E0000F08100BF2046802100222B46CDF80080C3
:101E100000F018FF28B1606D40F0200060652020C0
:101E20006065012084F85100002084F85000606D46
:101E3000002818BF012002B0BDE8F0812DE9F04173
:101E400084B01D4616460F460446FFF75FFA94F825
:101E5000511001290ED18046002F4FF0010018BF0C
:101E6000002E03D104B0BDE8F08100BF94F850000B
:101E7000012803D1022004B0BDE8F081012084F8DC
:101E800050000320002184F8510061652763A68675
:101E9000E686A163A187E187A0682164B0F5004FC1
:101EA0002068616407D1016821F040010160016888
:101EB00041F4804101600168490603D4016841F0A2
:101EC000400101606168731EE268B1FA81F1B3FA02
:101ED00083F349095B09B2F5006F41EA030139D187
:101EE00031B137F8021BC1602763E08E0138E0860C
:101EF000E08E002870D0681C0BD11AE0216B31F8FD
:101F0000022BC2602163E08E0138E086E08E00285B
:101F100062D0206881688907F0D4FFF7F7F9A0EB59
:101F20000800A842F2D338E0FFF7F0F9E08E00286D
:101F300052D0206881688907F6D5216B31F8022BD1
:101F4000C2602163E08E0138E086E08E0028F0D187
:101F500042E000BF39B139780173206B0130206352
:101F6000E08E0138E086E08EB0B3681C0BD123E030
:101F7000216B09780173206B01302063E08E0138FA
:101F8000E086E08E40B3206881688907F0D4FFF7CF
:101F9000BDF9A0EB0800A842F3D3012084F851005A
:101FA000002084F85000032004B0BDE8F08100BF99
:101FB000FFF7ACF9E08E78B1206881688907F7D522
:101FC000216B09780173206B01302063E08E0138AA
:101FD000E086E08E0028EFD12046022101222B4628
:101FE000CDF8008000F02EFEE0B1606D40F02000E2
:101FF000606520206065A06838B9002002902068E4
:10200000C1680291806802900298012084F8510012
:10201000002084F85000606D002818BF012004B033
:10202000BDE8F08140F28400C2F20000006849F689
:102030008171C1F25E61A0FB0101480D4FF47A711C
:10204000484303906068B0F5827F0BD12046802121
:1020500000222B46CDF8008000F0F4FD0028C4D10A
:10206000C9E700BF03980028C5D003980138039042
:10207000206880680006BED503980028BBD003986E
:1020800001380390206880680006B4D503980028C2
:10209000B1D0039801380390206880680006AAD563
:1020A00003980028A7D0039801380390206880681F
:1020B0000006D7D49FE700002DE9F04383B01E4609
:1020C00015460F460446FFF721F994F85110814652
:1020D000012909D1002F4FF0010018BF002D0FD1A9
:1020E00003B0BDE8F08300BF6068B0F5827F0DD11A
:1020F000A06800284FF0020008BF0429F0D1E9E7EA
:10210000002EEDD094F85000012803D1022003B036
:10211000BDE8F083012084F8500094F851000021BC
:1021200004281CBF052084F851006165A563E6877B
:10213000A6872763E6862068A68621646164016815
:10214000490603D4016841F0400101606168731ED3
:10215000E268B1FA81F1B3FA83F3DDF82880490926
:102160005B09B2F5006F41EA030165D131B137F87F
:10217000021BC1602763E08E0138E086012518F15B
:10218000010032D102E000BFFFF7C0F8E08E18B9BD
:10219000E08F002800F0B8802068816889070CD59E
:1021A000E18E51B1012D08D1216B002531F8022BB0
:1021B000C2602163E18E0139E1868168C907E3D0FD
:1021C000E18F0029E0D0C068A16B012521F8020B46
:1021D000A163E08F0138E087D6E700BFFFF796F8EC
:1021E000A0EB0900404580F0A580E08E18B9E08F93
:1021F000002800F089802068816889070CD5E18E6D
:1022000051B1012D08D1216B002531F8022BC2609C
:102210002163E18E0139E1868168C907DED0E18F53
:102220000029DBD0C068A16B012521F8020BA16356
:10223000E08F0138E087D1E739B139780173206B3D
:1022400001302063E08E0138E086012518F101009D
:1022500032D101E0FFF75AF8E08E10B9E08F002884
:1022600052D02068816889070ED5E18E61B1012DB9
:102270000AD1216B002509780173216B2068013197
:102280002163E18E0139E1868168C907E2D0E18FDF
:102290000029DFD0C068A16B01250870A06B013058
:1022A000A063E08F0138E087D4E700BFFFF72EF886
:1022B000A0EB090040453DD2E08E08B9E08F18B38D
:1022C0002068816889070ED5E18E61B1012D0AD1A0
:1022D000216B002509780173216B2068013121638E
:1022E000E18E0139E1868168C907DFD0E18F0029DD
:1022F000DCD0C068A16B01250870A06B0130A06321
:10230000E08F0138E087D1E72046022101224346D1
:10231000CDF8009000F096FCB0B1606D40F0200068
:10232000606520206065002084F85000012003B023
:10233000BDE8F083012084F85100002084F85000AB
:10234000032003B0BDE8F08340F28400C2F2000035
:10235000006849F68171C1F25E61A0FB0101480D80
:102360004FF47A71484302906068B0F5827F21D1C2
:102370002046802100224346CDF8009000F062FC08
:102380000028CAD1A06838B9002001902068C1682F
:102390000191806801900198012084F8510000208B
:1023A00084F85000606D002818BF012003B0BDE81C
:1023B000F08300BF02980028E4D002980138029010
:1023C000206880680006DDD502980028DAD00298DF
:1023D00001380290206880680006D3D50298002852
:1023E000D0D0029801380290206880680006C9D5D4
:1023F00002980028C6D002980138029020688068B0
:102400000006D7D4BEE70000704700007047000008
:10241000002804BF0120704710B5044690F83D0025
:1024200028B9002084F83C00204600F01FF8022064
:1024300084F83D002068211D00F024FD012084F86F
:10244000460084F83E0084F83F0084F8400084F899
:10245000410084F8420084F8430084F8440084F882
:10246000450084F83D00002010BD000070470000CA
:1024700090F83D1001291CBF01207047022180F80F
:102480003D10006841F2FF72C168C4F20002904240
:1024900041F00101C1600DDC40F2FF71C4F20001A6
:1024A000884215DCB0F1804F2AD040F20041C4F2DE
:1024B000000123E040F2FF31C4F20101884213DC45
:1024C00041F60001C4F20001884219D0002113E056
:1024D00040F60001C4F20001884211D040F60041EC
:1024E000C4F200010AE000BF44F20001C4F201019D
:1024F000884205D040F20041C4F20101884206D171
:10250000816801F00701062904BF002070470168B7
:1025100041F0010101600020704700007047000099
:1025200070B504460068C5680669B10716D515F090
:10253000020113D06FF0020101610121217780694E
:10254000800703D02046FFF7E9FF05E0204600F0B2
:102550008FF8204600F08EF800202077700719D5FC
:1025600015F0040016D020686FF00401016102210B
:102570002177806910F4407F04D02046FFF7CEFF1A
:1025800006E000BF204600F073F8204600F072F825
:1025900000202077300717D515F0080014D02068E8
:1025A0006FF00801016104212177C069800703D021
:1025B0002046FFF7B3FF05E0204600F059F820461B
:1025C00000F058F800202077F00619D515F010001B
:1025D00016D020686FF01001016108212177C069D1
:1025E00010F4407F04D02046FFF798FF06E000BFBC
:1025F000204600F03DF8204600F03CF8002020770F
:10260000F00718BF15F0010002D1300609D412E01E
:1026100020686FF001010161204600F02DF83006BE
:1026200009D515F0800006D020686FF080010161A7
:102630002046FFF7E9FE700609D515F0400006D0E8
:1026400020686FF040010161204600F01FF8B006DD
:1026500058BF70BD15F0200008D021686FF020022F
:1026600020460A61BDE87040FFF7D0BE70BD000093
:102670007047000070470000006841F20001C4F29A
:102680000001884218BF7047FEF746BE7047000041
:1026900070B582B0044690F8420020280AD1134653
:1026A0000A4600294FF0010018BF002B06D102B0E6
:1026B00070BD00BF022002B070BD00BF01202063CA
:1026C000002622206663A262A385666484F8420025
:1026D0002168E06B43F2451C43F2A52E42F6C97512
:1026E000C0F6000CC0F6000EC0F600050431C0E9CB
:1026F0000FCEC0E91356FEF7CBFCD8B310206064B0
:10270000202084F842000120216B012940F0B28092
:102710000021009121680A6800924968009100999F
:10272000216851E8031F226841F0100142E80313B9
:10273000002BBCD0216851E8031F226841F0100132
:1027400042E80313002BB2D0216851E8031F22682E
:1027500041F0100142E80313002BA8D0216851E892
:10276000031F226841F0100142E80313002BD7D168
:102770009DE700BF019620680168019140680190C3
:102780000198206930B300BF206850E8030F21682A
:1027900040F4807041E80302E2B1206850E8030F82
:1027A000216840F4807041E803029AB1206850E843
:1027B000030F216840F4807041E8030252B12068A1
:1027C00050E8030F216840F4807041E80302002ABA
:1027D000DAD100BF206850E8050F216840F0010001
:1027E00041E80502BAB3206850E8050F216840F0BF
:1027F000010041E8050272B3206850E8050F216826
:1028000040F0010041E805022AB3206850E8050FB6
:10281000216840F0010041E80502002ADAD11AE0FF
:10282000206850E8050F216840F0400041E80502AB
:10283000DAB1206850E8050F216840F0400041E817
:10284000050292B1206850E8050F216840F0400071
:1028500041E805024AB1206850E8050F216840F0C0
:10286000400041E80502002ADAD10020216B01294D
:102870003FF44EAF012002B070BD000040F2F831CD
:10288000C2F20001884218BF704780B540F2BC20F8
:10289000C2F20000006801F053FE40F2B000C2F244
:1028A000000000F1600140F2F830C2F20000122294
:1028B000BDE88040FFF7ECBE70470000002804BF71
:1028C0000120704710B5044690F8410028B9002057
:1028D00084F84000204600F021F8242084F84100CC
:1028E0002068C16821F40051C160204600F0E6FC78
:1028F0002068016921F490410161416921F02A01B8
:102900004161C16841F40051C16000202021606430
:1029100084F8411084F84210606310BD70B586B031
:102920000446016844F60000C4F20000814201D070
:1029300006B070BD002643F630010196C4F20201D4
:102940000A6900F5E03042F480220A610A6902F463
:1029500080220192019A01960A6842F004020A60FC
:10296000096801F00401019101994FF4406101915E
:102970000221CDE90216032104910721059101A945
:10298000FEF7EAFB40F2F82546F22800C2F2000505
:10299000C4F202004FF000614FF4806285E843000A
:1029A0002846C5E90362C5E90566C5E907666E62A2
:1029B000FEF7BCFA002818BFFDF7F6FDE563AC632F
:1029C00006B070BD7047000070470000FEE70000D1
:1029D00080B540F2D02046F20041C2F20000C4F2BD
:1029E00000010322002380E80E0000F10C014FF4E7
:1029F000102C4FF4001E81E8085083618383FEF79A
:102A00007FF8002808BF80BDBDE88040FDF7CCBD41
:102A100080B582B00020019043F63000C4F202007D
:102A20000168002241F4001101600068052100F4F2
:102A30000010019001980C20FEF72CFD0C2002B034
:102A4000BDE88040FEF712BD80B502F089FB42F67A
:102A5000955048F6A812C0F60000C0F6000200210A
:102A600001F0A0FD40F2CC21C2F20001086080BD5F
:102A70002DE9F04186B0002143F630000591009128
:102A8000C4F202000268002442F0020202600268FE
:102A9000C4F2020402F002020092009A009102685D
:102AA000102642F0010202600268012702F00102D2
:102AB0000092009A0091026842F0080202600268E7
:102AC00002F008020092009A0091026842F00402AB
:102AD0000260026802F004020092009A009101680C
:102AE000012241F0800101600068102100F08000A7
:102AF000009000982046FEF703FC04F58065284608
:102B000001210122FEF7FCFBCDE9016701AE4FF088
:102B10000208204631460397CDF81080FEF71CFBD3
:102B200028463146CDE90177CDE90378FEF714FB5D
:102B300006B0BDE8F0810000B0B540F2583043F275
:102B40000001C2F20000C4F201014FF482720023BE
:102B500080E80E0000F10C014FF0020C4FF0010E66
:102B60004FF40074382581E808500A21C0E9064571
:102B7000C0E90833C0E90A31FEF7B4FF002808BFF6
:102B8000B0BDBDE8B040FDF70FBD000010B540F28C
:102B9000F83044F6000C48F2A062C2F20000C4F221
:102BA000000CC0F201024FF4805300214FF4806EFC
:102BB0000C24C0E900C2C0E90231C0E904E4C0E964
:102BC0000611FFF77BFE002808BF10BDBDE81040CE
:102BD000FDF7EABCFEE70000FEE700000000000091
:102BE000EFF30980BFF36F8F154B1A681EF0100FBB
:102BF00008BF20ED108A20E9F04F10602DE9090090
:102C00004FF0500080F31188BFF34F8FBFF36F8FE9
:102C100002F0BEFE4FF0000080F31188BDE809000D
:102C200019680868B0E8F04F1EF0100F08BFB0EC4C
:102C3000108A80F30988BFF36F8F704700BF00BF11
:102C4000B00100202DE9F04381B0089C984615465C
:102C50000E468146FEF75AFB201A00EB0804FEF7E9
:102C600055FB40F28401C2F200010968C1F3CB3187
:102C700061430091D9F800108A683240921BB2FA81
:102C800082F25209AA4203D1002001B0BDE8F083CC
:102C9000074618F101000ED130E000BF009801385E
:102CA0000090D9F8000080683040801BB0FA80F0B6
:102CB0004009A842E8D0FEF729FBC01BA04227D25A
:102CC00000980028EAD10024EBE700BF8868304074
:102CD000801BB0FA80F04009A842D5D08868304007
:102CE000801BB0FA80F04009A842CDD088683040FF
:102CF000801BB0FA80F04009A842C5D088683040F7
:102D0000801BB0FA80F04009A842DFD1BCE700BFC9
:102D1000D9E900014268B1F5827F22F0E002426009
:102D20000BD1D9F80810B1F5004F02D0B1F5806F82
:102D300003D1016821F040010160D9F82810B1F5F4
:102D4000005F07D1016821F400510160016841F47E
:102D500000510160012089F85100002089F85000DD
:102D6000032001B0BDE8F083000000000000000077
:102D7000074B19680868B0E8F04F80F30988BFF383
:102D80006F8F4FF0000080F31188704700BF00BFC5
:102D9000B0010020012001F0F7FAFBE780B54EF208
:102DA0001000CEF20000006803F0CCFC012808BF40
:102DB00080BDBDE8804002F00BBF0000B0B592B00E
:102DC000002443F64000CDE90A44CDE908440594C7
:102DD000CDE90344CDE901440094C4F20200016846
:102DE000022541F080510160006800F080500090A1
:102DF000009847F200000094C4F20000016841F41A
:102E000080410160006800F480400090009801203B
:102E100006904FF4803007904FF480000D9006200C
:102E20000E90A820CDE90F050420119006A80C955E
:102E3000FEF79AFC10B172B6FEE700BF0F20CDE995
:102E400001054FF4A05004904FF48050059001A864
:102E500005210394FEF75AFB10B172B6FEE700BFDE
:102E600012B0B0BD4EF68850CEF20000016841F4B9
:102E7000700101607047000040F2B030C2F2000003
:102E8000FFF74EBBB0B540F6FF3E0568C4F2000E3A
:102E900040F2004C7045C4F2010C27DCB0F1804FC9
:102EA00031D040F20043C4F2000398422BD040F6E8
:102EB0000003C4F20003984225D041F6FF73C4F228
:102EC000000398422ADC70453CDCB0F1804F5FD0B3
:102ED00040F20043C4F20003984259D040F6000388
:102EE000C4F20003984253D057E000BF40F60043BD
:102EF000C4F20003984206D0604504D00023C4F217
:102F000001039842D9D14B6825F0700243EA0205CB
:102F100041F6FF73C4F200039842D4DD43F6FF7319
:102F2000C4F20103984221DC42F20003C4F2000320
:102F300098422DD00023C4F20103984228D0604566
:102F400026D02AE040F60043C4F2000398421FD086
:102F500041F60003C4F20003984219D041F6004341
:102F6000C4F20003984213D017E000BF44F20003FC
:102F7000C4F2010398420BD044F60003C4F20103EB
:102F8000984205D044F20043C4F20103984204D1B0
:102F9000CB6825F4407243EA02050A688C684B69E5
:102FA000C46240F480648262644504BF09690163BD
:102FB000026825F0800142F00402194302600122F8
:102FC00042610160B0BD0000806B01684A6990F801
:102FD0004130212B2DD112F080022AD00021C18452
:102FE000016851E8031F026821F0C00142E80313A1
:102FF000DBB1016851E8031F026821F0C00142E81B
:10300000031393B1016851E8031F026821F0C00166
:1030100042E803134BB1016851E8031F026821F035
:10302000C00142E80313002BDAD1202180F84110BF
:103030000168496990F84220222A40F07D8011F011
:10304000400179D00021C185016851E8031F026861
:1030500021F4907142E80313BBB3016851E8031FE8
:10306000026821F4907142E8031373B3016851E8D8
:10307000031F026821F4907142E803132BB3016827
:1030800051E8031F026821F4907142E80313002BFA
:10309000DAD11AE0016851E8051F026821F0010148
:1030A00042E80513DBB1016851E8051F026821F011
:1030B000010142E8051393B1016851E8051F026858
:1030C00021F0010142E805134BB1016851E8051FE9
:1030D000026821F0010142E80513002BDAD1016BEF
:1030E000012924D1016851E8031F026821F0100171
:1030F00042E80313DBB1016851E8031F026821F0C5
:10310000100142E8031393B1016851E8031F0268FC
:1031100021F0100142E803134BB1016851E8031F8D
:10312000026821F0100142E80313002BDAD12021BC
:1031300080F8421000210163416C41F010014164AC
:10314000FFF7BABB0168806B0968C90500F19F8071
:103150000021C185016851E8031F026821F48071D4
:1031600042E80313E3B1016851E8031F026821F448
:10317000807142E803139BB1016851E8031F0268A4
:1031800021F4807142E8031353B1016851E8031F31
:10319000026821F4807142E80313002BDAD100BFEA
:1031A000016851E8051F026821F0010142E805139A
:1031B000BBB3016851E8051F026821F0010142E834
:1031C000051373B3016851E8051F026821F001017E
:1031D00042E805132BB3016851E8051F026821F08E
:1031E000010142E80513002BDAD11AE0016851E829
:1031F000051F026821F0400142E80513DBB10168B8
:1032000051E8051F026821F0400142E8051393B11F
:10321000016851E8051F026821F0400142E80513EA
:103220004BB1016851E8051F026821F0400142E8F6
:103230000513002BDAD1202180F84210016B0129FF
:1032400025D100BF016851E8031F026821F0100179
:1032500042E80313DBB1016851E8031F026821F063
:10326000100142E8031393B1016851E8031F02689B
:1032700021F0100142E803134BB1016851E8031F2C
:10328000026821F0100142E80313002BDAD100217B
:103290004163016B012918BFFFF794BB818DFFF7D4
:1032A000EDBA0000806B01214163016B012918BF59
:1032B000FFF78ABB818D4908FFF7E0BA10B50446D5
:1032C0000068D4E902C22369016921F44051114325
:1032D0000161626943EA0C01E3691143C268194361
:1032E00049F20C639A431143C1604169A26921F418
:1032F000407141F20043114340F48062C4F2010383
:103300009A42416102D1FEF7E5F901E0FEF7CEF9FC
:10331000E16963681922B1F5004FA0FB020123D1D6
:103320005A00DB0FFCF7B2FF48F21F51C5F2EB1158
:10333000A0FB01235A094FF69C73C0F6FF7303F1FB
:10334000805302FB0300322303EBC000A0FB01010A
:103350004FF4F87000EA111000EB0210C1F34211B3
:1033600008442168886010BD9A009B0FFCF78EFF0F
:1033700048F21F51C5F2EB11A0FB01235A094FF689
:103380009C73C0F6FF7302FB0300322303EB0010B3
:10339000A0FB0101F02000EA511000EB0210C1F384
:1033A000431108442168886010BD0000FEE700005A
:1033B0002DE9F04F81B044F63074002000214CF626
:1033C000CD4AC2F20004C4F290204FF07E5BC4F2FA
:1033D0007A41C3F6CC5A00226423C4F2F012C4E945
:1033E000000BC4E9021A04F11C002821C4E90432CC
:1033F000FDF711F89FED610A204600F005FE44F646
:10340000747500200021C2F20005C4F20820C4F245
:103410007021002240F20009C4F2A0123223C4F24B
:10342000202985E8070405F11C002821C5E9043995
:10343000FCF7F1FF9FED520A284600F0E5FD44F647
:103440005C66C2F200064FF0010806F10800242174
:10345000C6E900B8FCF7DFFF94E88F10A46906F115
:103460002C0E8EE88F1006F1480028217464FCF7BA
:10347000D2FF95E88F00D5E9054506F1700C8CE880
:103480008F0006F18C004421C6E92145FCF7C3FFFB
:1034900040F258540020C2F20004C4F2342000214B
:1034A000002245F2EC13C4F2A001C4F27042C3F64C
:1034B000B85384E80F006420C4E9040B04F11C0035
:1034C0002821A6F8D080FCF7A6FF9FED2E0A204603
:1034D00000F09AFD40F29C550020C2F20005C4F2B3
:1034E0004010C5E9000932204FF00008C5E9040981
:1034F00005F11C002821C5E9028AFCF78CFF9FED2D
:10350000220A284600F080FD40F284470021C2F2E2
:1035100000070420C4F20E31C7E900B0C7E9021861
:1035200094E84F10A469C7E90A8007F1300080E8E9
:103530004E1007F148002821C7E90488C7E906882A
:10354000C7E908887C64FCF766FF95E84F00D5E979
:10355000054507F1700C8CE84F0007F18C00402105
:10356000C7E92145FCF757FF0020CBF68070C7F86C
:10357000CC00A7F8D08001B0BDE8F08F00008744F0
:1035800000803B460000000000606A4640F2301AAE
:1035900044F65C6840F6583540F2844940F2D02B3E
:1035A00040F2341440F2C826C2F2000AC2F2000807
:1035B000C2F20005C2F20009C2F2000BC2F200041E
:1035C000C2F20006002716E0404600F07DF94046B2
:1035D000294600F063F9484600F076F94846294646
:1035E00000F05CF9584621462A463346FCF7F8FFBE
:1035F000012000F0C9FEDAF800000028E4D0C5E997
:103600000077EFE740F2B42740F2B00440F2301503
:1036100040F284489FED268A9FED24BA44F65C660A
:10362000C2F20007C2F20004C2F20005B7EE009A2F
:10363000B3EE0EAAC2F20008C2F20006B8684FF05C
:10364000FF3100F0EBFE00F0AFFE0146204600F037
:1036500083FA94F82800022804D0032804D100201B
:1036600001E000BF0120286094ED060AB4EE490A8B
:10367000F1EE10FA08DC20EE0B0A3046F0EE480AB4
:10368000B0EE481A00F060FA94ED070AB4EE490A69
:10369000F1EE10FAD2DC20EE0A0A4046F0EE480ABB
:1036A000B0EE481A00F050FAC8E700BF0000B4C2FC
:1036B0000000000040F24044C2F20004204600F046
:1036C0004FFC204600F0DCFB012000F05DFEF5E73A
:1036D00090ED052A9FED6C3A80ED062A0A8852BAD1
:1036E00000EE102AB8EEC01A9FED660A21EE001A0D
:1036F00081EE033A9FED651A33EE422AB4EE412A79
:10370000F1EE10FA80ED053A80F29A809FED611A91
:10371000B4EE412AF1EE10FA1CDA00BF32EE002AB4
:10372000B4EE412AF1EE10FA14DA32EE002AB4EEC9
:10373000412AF1EE10FA0DDA32EE002AB4EE412AF7
:10374000F1EE10FA06DA32EE002AB4EE412AF1EE7A
:1037500010FAE3DB90ED001A90ED034A82EE013A95
:1037600080ED072A33EE042AB4EE402AF1EE10FA77
:1037700080ED043A37DB9FED463A00BF32EE032A74
:10378000B4EE402AF1EE10FA2DDB32EE032AB4EE4D
:10379000402AF1EE10FA26DB32EE032AB4EE402A7C
:1037A000F1EE10FA1FDB32EE032AB4EE402AF1EEFE
:1037B00010FAE3DA17E000BF32EE002AB5EE402A35
:1037C000F1EE10FA14DA32EE002AB5EE402AF1EEEC
:1037D00010FA0DDA32EE002AB5EE402AF1EE10FAB8
:1037E00006DA32EE002AB5EE402AF1EE10FAE3DBFB
:1037F00080ED032A4A88B1EE082AD2BA00EE102AD8
:10380000B8EEC00A20EE020A80EE010AB3EE041AF6
:103810009FED212A80ED080A8A88D2BA00EE102A8C
:10382000B8EEC00A20EE010A20EE020A80ED090A75
:10383000897900EE101AB8EE400A80ED0A0A704746
:103840009FED133A32EE032AB4EE412AF1EE10FA5C
:10385000FFF65CAF32EE032AB4EE412AF1EE10FA25
:10386000FFF654AF32EE032AB4EE412AF1EE10FA1D
:10387000FFF64CAF32EE032AB4EE412AF1EE10FA15
:10388000E0DA43E70000B44300F8FF4500003443AA
:103890000000B4C3000034C300008038426890EDDB
:1038A000310A013AD31702EB937323F00303BDEE01
:1038B000C00AD01A10EE102A130A01EB400C01F8CE
:1038C00010308CF8012070472DE9F04381B02DEDC8
:1038D000048B8146D0F8C00004F0E8FE0546D9F814
:1038E00020000E4604F0E2FE9FED810B53EC102BFE
:1038F00004F0E2FB9FED800B07460C4653EC102BC7
:103900002846314604F0D8FB3A46234604F0F2F844
:1039100004F0BEF899ED021A99ED032A9FED860A8C
:1039200032EE418AB4EE408AF1EE10FAC9F8C000D6
:1039300038DA9FED830AB4EE408AF1EE10FA1DDA10
:103940009FED801A38EE018AB4EE408AF1EE10FA4B
:1039500014DA38EE018AB4EE408AF1EE10FA0DDA8C
:1039600038EE018AB4EE408AF1EE10FA06DA38EE4B
:10397000018AB4EE408AF1EE10FAE3DB99F8D00048
:1039800089ED2E8A70B399F8D100022800F08D805D
:10399000012800F09980002840F0A48099ED330AB6
:1039A0009EE000BF9FED651A38EE018AB4EE408AB2
:1039B000F1EE10FABDDB38EE018AB4EE408AF1EE8A
:1039C00010FAB6DB38EE018AB4EE408AF1EE10FA56
:1039D000AFDB38EE018AB4EE408AF1EE10FAE3DA9A
:1039E000A7E700BF18EE100A04F060FE41EC100BD0
:1039F0009FED431B03F0FCF8D9F8B800B0EE408A05
:103A0000F0EE608A04F052FE41EC100B9FED3E1B7D
:103A100003F0EEF851EC100B9FED3D0B53EC102B27
:103A200004F04AFB9FED3C0B04460D4651EC180B8D
:103A300053EC102B04F040FB22462B4604F05AF8BE
:103A400099ED2E8A804618EE100A0F4604F02EFEDD
:103A500002460B4605460E4604F02EFB9FED300B4A
:103A600053EC102B04F028FB42463B4604F042F88E
:103A70009FED2D0B04460F4653EC102B2846314684
:103A800004F01AFB22463B4604F034F89FED280B65
:103A900053EC102B04F02EF803F0FAFFC9F8CC0019
:103AA00099F8D10002287FF473AF99ED2D0A99EDB2
:103AB000329A09F12C00F0EE480A00F0B3FA39EE20
:103AC000000A89ED2F0A01E099ED2F0AD9ED300A9D
:103AD00099ED338A09F1700000F0A4FA38EE000A7B
:103AE00089ED310ABDEC048B01B0BDE8F08300BF65
:103AF000333333333333E33F9A9999999999D93FC3
:103B0000000000000000104000000000000008401D
:103B10006631B1F9B836A4BF2EFF00EF0D5335BFA3
:103B2000E8305F5E807DC8BF772D211FF43C24C044
:103B30000000000000409F40000034430000B4C378
:103B4000000034C30000B443022180F8D11080ED9E
:103B50002D0A80ED331A70472DE9F04F81B02DED1D
:103B6000068B0446D4E91923006E6260E26EA360FE
:103B7000B4F870302060E260238294F801A0C0B2F3
:103B80000AF0070240EA0220A0F5B67000EE100A23
:103B90009FEDB99AB8EEC00A80EE090ABFEE00AAFE
:103BA000616130EE000A30EE0A0A10EE100A04F0ED
:103BB0007DFD9FEDAB0B9FEDB18A58EC109B4A4603
:103BC000434607460D4604F0B1FD50B99FEDA60BE4
:103BD000384653EC102B294604F0A1FDB0EE480AFC
:103BE000F0B9384629464A46434604F0A6FD38B99E
:103BF0009FED9D0B384653EC102B294604E000BF87
:103C0000384629464A46434603F074FF9FED980B19
:103C100053EC102B04F02AF803F03AFF00EE100AE0
:103C200094F802B04FEADA000BF03F0140EA41108D
:103C3000A0F5B67001EE100AB8EEC11A81EE091AAD
:103C400084ED060A31EE010A30EE0A0A10EE100A7F
:103C500004F02CFD4A46434607460D4604F066FD37
:103C600050B99FED810B384653EC102B294604F0D8
:103C700056FDB0EE480AE8B9384629464A4643465A
:103C800004F05BFD30B99FED780B384653EC102BF8
:103C9000294603E0384629464A46434603F02AFFB0
:103CA0009FED730B53EC102B03F0E0FF03F0F0FEDD
:103CB00000EE100AE07894F804A080000AF00101F8
:103CC00040EA9B1040EA8120A0F5B67001EE100A90
:103CD000B8EEC11A81EE091A84ED070A31EE010A25
:103CE00030EE0A0A10EE100A04F0E0FC4A464346A1
:103CF00007460D4604F01AFD50B99FED5B0B3846A0
:103D000053EC102B294604F00AFDB0EE480AE8B93E
:103D1000384629464A46434604F00FFD30B99FED28
:103D2000520B384653EC102B294603E038462946FF
:103D30004A46434603F0DEFE9FED4D0B53EC102B3D
:103D400003F094FF03F0A4FE00EE100A66794FEA38
:103D50005A0006F00F0140EAC110A0F5B67001EE5E
:103D6000100AB8EEC11A81EE091A84ED080A31EE84
:103D7000010A30EE0A0A10EE100A04F097FC4A46D7
:103D8000434607460D4604F0D1FC40B99FED360B83
:103D9000384653EC102B294604F0C1FC50BB384682
:103DA00029464A46434604F0C8FC98B99FED2E0BBD
:103DB000384653EC102B294603F09CFE9FED2C0B4C
:103DC00053EC102B03F052FF03F062FE08EE100AD2
:103DD00010E000BF384629464A46434603F08AFEB3
:103DE0009FED230B53EC102B03F040FF03F050FE2C
:103DF00008EE100AC6F3011084F82800B009A67B6B
:103E0000B4F906C0B4F908E0227B677B84F8290086
:103E1000B4F90A30C6F38010C6F3401102F0010273
:103E200007F00107F509C4E90BCEC4E91101C6F397
:103E3000001004F14C0C84ED098AC4E90D32C4E988
:103E40000F75C6F3C001C6F38002C6F3400306F047
:103E500001078CE88F00BDEC068B01B0BDE8F08F48
:103E60009A9999999999B93F9A9999999999B9BFB4
:103E7000CDCCCCCCCCCCEC3F0000A5440000000065
:103E800010B5044600F11C010F20012200F0A0F93A
:103E9000207F042856D82CA151F8200004F11D01E0
:103EA00060620220062200F093F9B4F91D0094ED3F
:103EB000091A00EE100AB4F91F00B8EEC00A03EEAA
:103EC000100AB4F921009FED252A04EE100AB8EE7D
:103ED000C33AB8EEC44A21EE000A21EE033A21EEBD
:103EE000041A80EE020A83EE023A81EE021A206C76
:103EF00094ED0A2A94ED0B4A94ED0C5A01300528F2
:103F0000206432EE002A34EE030A35EE011A84ED05
:103F10000A2A84ED0B0A84ED0C1A18BF10BDB1EE0D
:103F2000043A82EE032A80EE030A81EE031A00208F
:103F3000C4E90A002063206484ED0D2A84ED0E0A92
:103F400084ED0F1A10BD00BF000074420000F44160
:103F5000CDCC74413333F3403333734000007A44A3
:103F600010B5044641202146012200F0F9F860789E
:103F7000032888BF10BD1EA151F82000A11CE060DD
:103F80001220062200F0ECF8B4F90300B4F9051091
:103F9000B4F9072094ED030A01EE100A9FED182AE8
:103FA00004EE101A05EE102AB8EEC11AB8EEC44A93
:103FB000B8EEC55AB8EEC00A21EE021A9FED113ACA
:103FC00024EE024A25EE022A21EE001A24EE004ACF
:103FD00022EE000A21EE031A24EE034A20EE030A21
:103FE00084ED041A84ED054A84ED060A10BD00BF75
:103FF00003000000060000000C0000001800000094
:1040000000000038CDCC1C419FED051AB5EE400AEA
:10401000F1EE10FAC8BFB0EE401A80ED061A7047F4
:104020000000000090ED071AC0ED080AB4EE401A37
:10403000F1EE10FA3CD190ED042AB7EE004AB8EE4A
:10404000C22A84EE025A31EE601A81EE022A90ED05
:10405000093A90ED030A90ED0B6A80ED0A3A31EED1
:10406000433A34EE407A20EE030A90ED0C3A27EE04
:10407000066A90ED057A30EE060A34EE454A23EEE4
:10408000043A33EE022AB1EE473AB4EE432A80ED09
:10409000091A80ED0B0AF1EE10FAB4EE472AB8BF08
:1040A000B0EE432AF1EE10FAC8BFB0EE472A21E085
:1040B00090ED042A30EE601AB8EEC22A81EE022A90
:1040C00080ED070A90ED050A0021B1EE403A80ED3F
:1040D000091AC162B4EE432AF1EE10FAB4EE402A96
:1040E000B8BFB0EE432AF1EE10FAC8BFB0EE402AD6
:1040F0009FED1A0A90ED004A90ED015A90ED026A88
:1041000090ED063A80ED0C2A24EE011A25EE022AE3
:1041100026EE004A31EE020AB5EE403A34EE000ACD
:10412000F1EE10FA80ED0D1A80ED0E2A80ED0F4AA7
:1041300080ED100A08BF7047B1EE431AB4EE410A91
:10414000F1EE10FAB4EE430AB8BFB0EE410AF1EE58
:1041500010FAC8BFB0EE430A704700BF000000006D
:10416000F0B581B00024C4F2020416460D4607469D
:1041700004F5806001210122FDF7C2F820461021DC
:104180000022FDF7BDF847F0800040F25837C2F238
:1041900000078DF803000DF10301384601224FF4AA
:1041A0007A73FDF74BFE701CC2B2384629464FF4B5
:1041B0007A73FDF743FD00BF3846FDF78FFC0428F6
:1041C000FAD0204610210122FDF79AF801B0F0BD87
:1041D000F0B581B040F20044C4F2020415460E4628
:1041E0000746A4F5806010210122FDF789F82046DA
:1041F00001210022FDF784F847F0800040F2583793
:10420000C2F200078DF803000DF1030138460122C8
:104210004FF47A73FDF712FE384631462A464FF4C2
:104220007A73FDF70BFD00BF3846FDF757FC0428F5
:10423000FAD0204601210122FDF762F801B0F0BD5D
:10424000F0B583B00024C4F20204204610210022FD
:10425000FDF756F840F258357E20C2F200058DF881
:1042600006000DF10601284601224FF47A73FDF78E
:10427000E5FDB6270DF10701284601224FF47A73B8
:104280008DF80770FDF7DAFD0120FCF751FF20469D
:1042900010210122FDF734F804F580663046012133
:1042A0000022FDF72DF814208DF8080002A92846F9
:1042B00001224FF47A73FDF7C1FD0DF10901284683
:1042C00001224FF47A738DF80970FDF7B7FD1E20B7
:1042D000FCF72EFF304601210122FDF711F82046A0
:1042E00010210022FDF70CF80120FCF721FF7D20B2
:1042F0008DF80A000DF10A01284601224FF47A7365
:10430000FDF79CFD04208DF80B000DF10B012846F4
:1043100001224FF47A73FDF791FD0120FCF708FFAD
:10432000204610210122FCF7EBFF03B0F0BD000096
:10433000FDF700F8FEF742FDFEF79AFBFEF768FB7B
:10434000FEF746FBFEF7F8FBFEF720FC40F2D02418
:10435000C2F2000440F28801C2F200012046FCF7DC
:1043600093F92046FCF7C6FC20460221FCF720F911
:10437000FFF766FF00F0E6FE00F01EF8FEF764FBB4
:1043800000F02EF8FEE70000EFF3058100291CBFC6
:104390006FF005007047002804BF0020704780B50B
:1043A00001F05AF9002080BDEFF30580002808BF16
:1043B00002F0D8B902F0DCB9EFF3058000281CBF89
:1043C0006FF00500704740F2C420C2F2000001689F
:1043D000002911BF4FF0FF3001210160002070471C
:1043E00010B5EFF3058000281CBF6FF0050010BD6D
:1043F00040F2C420C2F20000016801291CBF4FF046
:10440000FF3010BD4EF61F51CEF2000100240C709B
:104410000221016001F03CFA204610BD10B582B0C7
:1044200020B10C46EFF3058121B18CB16FF0030090
:1044300002B010BD214601F0D9FF01281DD06FF058
:104440000100002C08BF6FF0020002B010BD00BFD9
:104450000021019101AA002101F056FF01280FD18E
:10446000019850B14EF60450CEF200004FF080514A
:104470000160BFF34F8FBFF36F8F002002B010BDFC
:104480006FF0020002B010BD70B582B00E468642D9
:104490004FF00005EFF3058116D8A8B1A1B9144675
:1044A000B2B1D4E902216AB14F2945D9A3680128E4
:1044B00032D10325012000210022009501F068FC83
:1044C0000DE000BF21B10025284602B070BD00BF3D
:1044D00001280BD101200021032201F015FC054623
:1044E000002E18BF002D07D1E5B925E0314601F0B7
:1044F00087FB0546B5B91FE02846002100220023AE
:1045000001F0B6FC01280DD0284601F027F800255F
:10451000284602B070BD00BF31461A4601F092FB3A
:1045200005464DB1002C14BF21680021284600F03B
:10453000BDFF284602B070BD0025284602B070BD00
:1045400080B582B0D0B1EFF30581D9B100210191DE
:1045500001A901F0A3FD012820D1019850B14EF628
:104560000450CEF200004FF080510160BFF34F8F36
:10457000BFF36F8F002002B080BD00BF6FF003005B
:1045800002B080BD00210022002301F071FC01383F
:1045900018BF6FF0020002B080BD00BF6FF00200D4
:1045A00002B080BD2DE9F04184B08E460024039412
:1045B000EFF3058150B149B94FF0000452B193694E
:1045C000002B08BF1823382B16D90024204604B02E
:1045D000BDE8F08180251823002103AF0093AAB223
:1045E0007346019702F042F80399012808BF0C4670
:1045F000204604B0BDE8F0811179C90724D157697C
:10460000D2E902864FEA970C1168002F654608BF71
:104610008025B8F1000F13D05C2E15D31269002449
:10462000002A18BF002FD1D0CDE900326246734670
:10463000CDF8088002F04AF804B0BDE8F08100BF70
:1046400016B91269002AC8D00024204604B0BDE87B
:10465000F08100002DE9F041044600F037FE40F201
:10466000B016C2F20006F06840F2D0650130F0608A
:104670003068C2F2000558B13069002840F0078167
:104680003068E16AC06A884298BF3460FFE000BFCA
:104690003460F068012840F0FA80284600F0BCFD44
:1046A00005F1140000F0B8FD05F1280000F0B4FD9C
:1046B00005F13C0000F0B0FD05F1500000F0ACFD4C
:1046C00005F1640000F0A8FD05F1780000F0A4FDFC
:1046D00005F18C0000F0A0FD05F1A00000F09CFDAC
:1046E00005F1B40000F098FD05F1C80000F094FD5C
:1046F00005F1DC0000F090FD05F1F00000F08CFD0C
:1047000005F5827000F088FD05F58C7000F084FDE1
:1047100005F5967000F080FD05F5A07000F07CFDB9
:1047200005F5AA7000F078FD05F5B47000F074FD91
:1047300005F5BE7000F070FD05F5C87000F06CFD69
:1047400005F5D27000F068FD05F5DC7000F064FD41
:1047500005F5E67000F060FD05F5F07000F05CFD19
:1047600005F5FA7000F058FD05F5027000F054FDF3
:1047700005F5077000F050FD05F50C7000F04CFDDC
:1047800005F5117000F048FD05F5167000F044FDC8
:1047900005F51B7000F040FD05F5207000F03CFDB4
:1047A00005F5257000F038FD05F52A7000F034FDA0
:1047B00005F52F7000F030FD05F5347000F02CFD8C
:1047C00005F5397000F028FD05F53E7000F024FD78
:1047D00005F5437000F020FD05F5487000F01CFD64
:1047E00005F54D7000F018FD05F5527000F014FD50
:1047F00005F5577000F010FD05F55C7000F00CFD3C
:1048000005F5617000F008FD05F5667000F004FD27
:1048100005F56B7000F000FD05F5707000F0FCFC14
:1048200005F5757000F0F8FC05F57A7000F0F4FC01
:1048300005F57F7000F0F0FC05F5826000F0ECFCFF
:1048400005F2244000F0E8FC05F5876000F0E4FC88
:1048500005F24C4000F0E0FC40F28C28C2F2000867
:10486000404600F0D9FC08F11407384600F0D4FCAB
:1048700006F1640000F0D0FC06F13C0000F0CCFC36
:1048800006F1500000F0C8FCC6F81C803762706862
:10489000716A421CE06A72608842626488BF70621A
:1048A00000EB800005EB8000211D00F0F7FC00F01C
:1048B00031FD306988B13068E16AC06A884228BF3A
:1048C000BDE8F0814EF60450CEF200004FF080516A
:1048D0000160BFF34F8FBFF36F8FBDE8F081000021
:1048E00040F2B01540F2D0664EF60458C2F2000510
:1048F000C2F20006CEF200084FF0805703E000BF7E
:10490000204600F01FFDA868D0B100F0DFFCA86CC5
:10491000C468201D00F052FCE8680138E860A8680F
:104920000138A86000F0F6FC94F859000228EAD09B
:104930000128E5D070B9206B00F004FDE0E700BF6E
:1049400030680228DFD3C8F80070BFF34F8FBFF381
:104950006F8FD8E74FF0500080F31188BFF36F8F4F
:10496000BFF34F8FFEE700002DE9F0470A9C824617
:10497000206B16460F46DDE908599100A52298469E
:10498000FBF741FD206B002F00EB8600A0F1040037
:1049900020F0070656D0387884F83400387800289C
:1049A0004BD0787884F835007878002845D0B878EE
:1049B00084F83600B87800283FD0F87884F83700BB
:1049C000F878D0B3387984F838003879A8B3787992
:1049D00084F83900787980B3B87984F83A00B879E6
:1049E00058B3F87984F83B00F87930B3387A84F812
:1049F0003C00387A08B3787A84F83D00787AE0B1E0
:104A0000B87A84F83E00B87AB8B1F87A84F83F00F2
:104A1000F87A90B1387B84F84000387B68B1787BB5
:104A200084F84100787B40B1B87B84F84200B87BC1
:104A300000281CBFF87B84F84300002084F8430062
:104A400003E000BF002084F834000027201D372D2C
:104A500028BF3725E562C4E9135700F0E9FB04F1EC
:104A6000180000F0E5FBC5F13800A0613046514662
:104A7000424624616462676584F8587000F04EFB1A
:104A8000B9F1000F206018BFC9F80040BDE8F087F9
:104A900008480068006880F308884FF0000080F341
:104AA000148862B661B6BFF34F8FBFF36F8F00DF1C
:104AB00000BF000008ED00E081B00020009040F24F
:104AC0004C10C2F2000000684FF0500181F31188D1
:104AD000BFF36F8FBFF34F8F013007D0FEE700BFEA
:104AE000009830B9009820B9009810B900980028B3
:104AF000F6D001B07047000088B040F2282AC2F218
:104B0000000A0DF11009EB46DAF8080005681DB13E
:104B1000C068046801E000BF002400F031FF01F02C
:104B200021FEDAF810100646884220D3002DCAF87C
:104B3000106051D0A6424FD301F070FFDAF80800A0
:104B4000C068C7683D1D284600F038FB97F828006C
:104B5000410745D400F0FE0087F8280084E000BF3C
:104B60006860DAF8080039462D6100F065FBDAF874
:104B70000800016831B3C068C56804682F1D384655
:104B800000F01CFB296A2846884795F82800400752
:104B9000EDD5A8692044A042E2D8DAF80000002848
:104BA00000F04881002004A931C101F0CBFDDAF802
:104BB000000049460022002301F05AF90028D6D10E
:104BC00038E100BFDAF80C10CAF81060CAE9021028
:104BD00001F024FF1AE100BF65B1002210E000BF20
:104BE000B8693F610119B14279601FD90AF1080023
:104BF00021E000BFDAF80C000068B0FA80F042094A
:104C0000DAF80000A11B00F0FDFC01F007FF00280E
:104C100040F0FC804EF60450CEF200004FF0805180
:104C20000160BFF34F8FBFF36F8FEFE0311B814205
:104C300006D20AF10C000068294600F0FDFA13E0E4
:104C4000DAF80000002800F01381002004A991C1C7
:104C500001F078FDDAF8000049460022002301F057
:104C600007F9002800F00481396A38468847CDE00A
:104C70000098B0F1FF3F07DCDDE901200399904780
:104C80000098002800F1C280029E706910B1301DAA
:104C900000F094FA01F066FDDAF810100746884239
:104CA0000DD30098CAF8107009283FD9AEE000BFB4
:104CB0006860DAF8080021462D6100F0BDFADAF8E4
:104CC0000800016841B3C068C568D0F800802C1D99
:104CD000204600F073FA296A2846884795F828008C
:104CE0004007ECD5A86940444045E1D8DAF8000017
:104CF000002800F095800020CDE90408069501F019
:104D000021FDDAF8000049460022002301F0B0F846
:104D10000028D4D184E000BFDAF80C10CAE90210F0
:104D20000098CAF81070092800F27080DFE800F0DF
:104D30000606064448620606444800BF96F8280066
:104D4000019A40F00101B06986F8281083183146B5
:104D500041F8043FBB42366106D997420AF1080088
:104D600007D293420AD204E0BA1A824206D20AF16A
:104D70000C00006800F060FA48E000BF316A30467D
:104D8000884796F82800400740D5DAF80000002848
:104D90005AD00198B169069608440021CDE9041063
:104DA00001F0D0FCDAF8000049460022002301F0AF
:104DB0005FF858BB48E000BF96F8280022E000BF2B
:104DC00096F8280040F00101019886F82810002884
:104DD000B06143D0384431460AF10C0241F8040F67
:104DE0003661B84288BF0AF10802106800F024FA60
:104DF0000CE000BF96F82800810703D4304600F08D
:104E0000A1FA03E000F0FE0086F82800DAF80000BE
:104E10005946002201F0A6F900287FF429AF73E675
:104E20004FF0500080F31188BFF36F8FBFF34F8FA7
:104E3000FEE700BF4FF0500080F31188BFF36F8F83
:104E4000BFF34F8FFEE700BF4FF0500080F3118893
:104E5000BFF36F8FBFF34F8FFEE700BF4FF05000DF
:104E600080F31188BFF36F8FBFF34F8FFEE700BF52
:104E70004FF0500080F31188BFF36F8FBFF34F8F57
:104E8000FEE70000F0B581B0044600F01FFA94F987
:104E90004560012E0FDB04F1240500BF286850B1E6
:104EA000284601F081FD002818BF00F01FFCF0B279
:104EB000013E0128F2D8FF2684F8456000F02AFA66
:104EC00000F004FA94F94470012F0EDB04F1100590
:104ED000286850B1284601F067FD002818BF00F08F
:104EE00005FCF8B2013F0128F2D884F8446001B013
:104EF000BDE8F04000F00EBA70B5044600F040FD89
:104F000040F2642CC2F2000CDCF8040050B19CF8B2
:104F10000000002818BF4FF000404FF0000574BBA0
:104F20008DE000BF40F66030C2F20000C21D22F0EA
:104F3000070210F00701A0EB020318BF1046002281
:104F40004FF47055CCE90602002918BF03F57055DF
:104F5000411921F00701A1F10803CCF8043041E91F
:104F60000222191AC0E9003101208CF800004FF02C
:104F70000040CCE90211002C4FF000055FD020402A
:104F80005DD124F0070000F11002600708BF04F1B2
:104F90000802002A4FF0000551D0DCF808008242D8
:104FA0004DD8604650F818EFDEF8045095422CD2E8
:104FB000DEF80010C1B174464D68954218D20B68F6
:104FC000B3B15D68954217D21868A8B1456895429B
:104FD00016D20468A4B16568954215D22168A64628
:104FE0000029E9D111E000BF0CF118000DE000BF6D
:104FF0008E46204609E000BF9E46084605E000BFF9
:105000008646184601E000BFA646DCF804108E452F
:1050100014D00168DEF80040AB1A112B04604DD3A8
:105020000EEB0205680719D04FF0500080F311888D
:10503000BFF36F8FBFF34F8FFEE700BF002501F076
:10504000EDFC68075BD04FF0500080F31188BFF390
:105050006F8FBFF34F8F00BFFEE700BF0CF118004A
:105060006B60CEF8042000BF0368AB420AD2186818
:10507000A8420BD20368AB4204D218681A46A84271
:10508000F2D304E00246184601E000BF1A46536816
:105090006C68D618AE4202D11C44154654602B19D8
:1050A000834207D1DCF80430984203D0D0E90003F2
:1050B00023446B60AA42286018BF156001F10805FF
:1050C000DEF80400DCE90212091A9142CCF808105B
:1050D00038BFCCF80C109CF80010002918BF40F025
:1050E0000040CEF80400DCF8100000210130CEF8BA
:1050F0000010CCF8100001F091FC6807A3D12846FD
:1051000070BD000040F2B010C2F20000016819B199
:1051100001680A6D01320A6500687047034644F66B
:10512000B920C0F600004FF0807C21F0010103E9B6
:1051300003106FF0020043F8240CA3F1440043F87D
:10514000202C704740F2B000C2F2000000F1600174
:1051500040F2F830C2F200001222FDF799BA0000C6
:10516000B0B540F20804C2F2000443F28D5004F1DD
:105170001002C0F600000021FFF714FA40F2B42537
:10518000C2F20005286043F2B56004F13402C0F6B3
:1051900000000021FFF706FA686043F2056004F1A1
:1051A0005802C0F600000021FFF7FCF9E86001207A
:1051B00000212246FFF768F9A860B0BDD0E90132AE
:1051C00001699A60D1F804C082688445536008BFC1
:1051D0004A60002202610868013808600868704768
:1051E00044F66413C2F20003036044F26470C2F236
:1051F00000000860802010607047000044F6C05333
:10520000C2F20003036044F6C010C2F2000008605E
:105210004FF48070106070474FF0FF31024642F843
:10522000081F00214260C0E90322016070470000AE
:10523000002101617047000010B5D1F800E01EF1B7
:10524000010213D000F1080462681368734511D895
:1052500053681C68744511D85A68146874450FD88F
:1052600054682368A4467345EED90BE00269D2F86E
:1052700004C007E09446224604E000BF9C4601E0DB
:1052800094461A46C1F804C0CCF808108A605160F0
:10529000086101680131016010BD0000D0F800C054
:1052A000436808619A684B608A609A6899605160A7
:1052B0000CF1010101607047DFF80C00016841F456
:1052C000700101607047000088ED00E04FF0500071
:1052D00080F31188BFF36F8FBFF34F8F40F24C10F4
:1052E000C2F2000001684A1C026009B1704700BFA9
:1052F0004EF60450CEF200000068000608BF70476A
:105300004FF0500080F31188BFF36F8FBFF34F8FC2
:10531000FEE7000040F24C10C2F20000016839B113
:105320000139016018BF7047002080F31188704771
:105330004FF0500080F31188BFF36F8FBFF34F8F92
:10534000FEE7000070B5002808BF70BD40F264257C
:10535000C2F200050446287854F8041C002818BF3F
:105360004FF0004008420DD0A4F1080632689AB10F
:105370004FF0500080F31188BFF36F8FBFF34F8F52
:10538000FEE700BF4FF0500080F31188BFF36F8F2E
:10539000BFF34F8FFEE700BF21EA000044F8040C82
:1053A00000F0EEFA54F8041CA8680844A86005F15F
:1053B000180000BF0368B3420AD21868B04225D271
:1053C0000368B34204D218681A46B042F2D301E02F
:1053D000024618465368D418B44202D119441646FE
:1053E00051607318834206D16B68984203D0D0E9AC
:1053F000000319447160B242306018BF16606869DA
:1054000001306861BDE8704001F008BB1A4653687E
:10541000D418B442E5D1E1E74EF21000CEF200001C
:1054200000210160816040F28401C2F2000109683C
:1054300044F6D352C1F26202A1FB02124FF0FF31D7
:1054400001EB9211416007210160704740F2842016
:10545000EFF305811029C2F2000011D34EF2F032B1
:10546000CEF20002895C0278914209D24FF05000DE
:1054700080F31188BFF36F8FBFF34F8FFEE700BF3C
:105480004EF60C51CEF200010968406801F4E0616B
:10549000814298BF70474FF0500080F31188BFF3EE
:1054A0006F8FBFF34F8F00BFFEE7000044F61C6C08
:1054B000C2F2000CDCF8002022B3634653F8082F38
:1054C00042B3634653F8102F52B3634653F8182F74
:1054D00062B3634653F8202F72B3634653F8282F04
:1054E00082B3634653F8302F92B3634653F8382F94
:1054F000002A18BF7047072219600CEBC2014860F0
:10550000704700BF0022634619600CEBC20148607F
:10551000704700BF012219600CEBC2014860704760
:10552000022219600CEBC201486070470322196027
:105530000CEBC20148607047042219600CEBC201F9
:1055400048607047052219600CEBC2014860704743
:10555000062219600CEBC2014860704780B344F624
:105560001C61C2F200010B4653F8042F4FF0000CEF
:1055700082422FD00B4653F80C2F82422CD00B4680
:1055800053F8142F824229D00B4653F81C2F824225
:1055900026D00B4653F8242F824223D00B4653F8D3
:1055A0002C2F824220D00B4653F8342F82421DD03C
:1055B0000B4653F83C2F82421DD1072217E000BF53
:1055C0004FF0500080F31188BFF36F8FBFF34F8F00
:1055D000FEE700BF00220AE0012208E0022206E006
:1055E000032204E0042202E0052200E0062241F842
:1055F00032C0C3F800C090F84610002918BF7047A9
:10560000FFF7A0BE70B515460E460446FFF75EFED6
:1056100094F84400FF2804BF002084F8440094F864
:105620004500FF2804BF002084F84500FFF772FE04
:10563000A06B28B12046BDE87040FFF723BC00BF37
:1056400004F1240031462A4600F092F82046BDE8D5
:105650007040FFF717BC000070B588B340F2B0157A
:10566000C2F200050446686950B14FF0500080F363
:105670001188BFF36F8FBFF34F8F00BFFEE700BFEE
:10568000686901306861AE6928680430FFF796FDEB
:105690002868A419446005D3286A29680431FFF7F3
:1056A000CBFD08E0E86929680431FFF7C5FDE86A29
:1056B000844238BFEC6201F0B1F9002818BF70BD18
:1056C0004EF60450CEF200004FF080510160BFF35F
:1056D0004F8FBFF36F8F70BD40F2B011C2F2000167
:1056E0008A6B0260896941607047000040F2B01027
:1056F000C2F20000012101637047000070B5D8B10B
:1057000040F2B014C2F200040D4621681831FFF7D0
:1057100093FDA66920680430FFF750FD681C15D082
:105720002068AD19456019D3206A21680431BDE8AD
:105730007040FFF781BD00BF4FF0500080F311882B
:10574000BFF36F8FBFF34F8FFEE700BF54F8500BCE
:10575000011D2046BDE87040FFF7A0BDE06921684B
:105760000431FFF769FDE06A854238BFE56270BD2C
:10577000F0B581B0C0B140F2B014C2F200040D46E1
:10578000216816461831FFF789FDA76920680430A3
:10579000FFF714FD96B154F8500B011D204601B0DF
:1057A000BDE8F040FFF77ABD4FF0500080F311885C
:1057B000BFF36F8FBFF34F8FFEE700BF2068ED1977
:1057C000456007D3206A2168043101B0BDE8F0408C
:1057D000FFF732BDE06921680431FFF72DFDE06A73
:1057E000854238BFE56201B0F0BD0000F0B581B080
:1057F00020B3026D04461AB3E36CE06A8B4288BFA3
:10580000194688421AD0012A18D140F2B016C2F2C5
:1058100000063268A2421DD0A269E162002A5CBF84
:10582000C1F13801A16140F2D067616900EB8000ED
:10583000C2F2000707EB8000814215D001B0F0BD35
:105840004FF0500080F31188BFF36F8FBFF34F8F7D
:10585000FEE700BF4FF0500080F31188BFF36F8F59
:10586000BFF34F8FFEE700BF251D2846FFF7A6FCBC
:10587000E06A716A884288BF706200EB800007EBC3
:105880008000294601B0BDE8F040FFF707BD0000E9
:1058900010B588B00020CDE9050006A805A904AA26
:1058A000FFF79EFC059800283ED0069C002C45D0B2
:1058B0005C21049A079107995C2949D107992063D3
:1058C000022084F8590007A80021CDE9001044F611
:1058D000E100C0F6000028A100230294FFF744F87D
:1058E0002046FEF7B7FE079840F2B014C2F200045B
:1058F000A062B0B101F00AF9411C33D0012810D1E7
:105900004FF0500080F31188BFF36F8FBFF34F8FBC
:105910004FF0FF30E062012020610020A06100F024
:1059200095F808B010BD00BF4FF0500080F311880B
:10593000BFF36F8FBFF34F8FFEE700BF4FF05000F4
:1059400080F31188BFF36F8FBFF34F8FFEE700BF67
:105950004FF0500080F31188BFF36F8FBFF34F8F6C
:10596000FEE700BF4FF0500080F31188BFF36F8F48
:10597000BFF34F8FFEE700BF49444C4500000000D5
:1059800040F2B010C2F2000041690131416170473C
:1059900080B540F2B01EC2F2000EDEF8141019B14C
:1059A0000121CEF8301080BD0021CEF83010DEF895
:1059B000241040F2D06C01EB8103C2F2000C5CF8C1
:1059C00023208AB101EB81020CEB820353F8042FF0
:1059D0005268181D82421A6020D0D068CEF80000AC
:1059E000CEF8241080BD00BF0CEB8302A2F1280387
:1059F000E1B15A6922BB012918D01A6812BB0229E9
:105A000014D053F8142CFAB903290FD053F8282CCA
:105A10000439002AA3F15003EAD0D3E752681A6090
:105A2000D068CEF80000CEF8241080BD4FF05000B2
:105A300080F31188BFF36F8FBFF34F8FFEE700BF76
:105A40000139BFE70239BDE70339BBE7B0B584B020
:105A50004EF2004CCEF2000C4CF27021C4F20F1149
:105A6000DCF800294B1C9A420AD14FF0500080F319
:105A70001188BFF36F8FBFF34F8F00BFFEE700BFEA
:105A8000DCF800298A4209D14FF0500080F31188D8
:105A9000BFF36F8FBFF34F8FFEE700BF9CF800107E
:105AA0000291FF218CF800109CF800108DF807106F
:105AB0009DF8071001F0500240F28421C2F200016B
:105AC0000A7007224A609DF90720B2F1FF3F69DCA6
:105AD000032200BFD31C4B609DF8070040008DF8E7
