:020000040800F2
:10000000905300202D020008D51900081919000886
:10001000D119000869050008A91C000800000000AB
:10002000000000000000000000000000511A00085D
:100030007905000800000000E11900087D1A000899
:10004000470200084702000847020008470200086C
:10005000470200084702000847020008470200085C
:10006000470200084702000847020008470200084C
:10007000470200084702000847020008470200083C
:10008000470200084702000847020008470200082C
:100090006D050008470200084702000847020008F3
:1000A000470200084702000847020008470200080C
:1000B00047020008470200084702000847020008FC
:1000C00047020008470200084702000847020008EC
:1000D00047020008470200084702000847020008DC
:1000E00047020008470200084702000847020008CC
:1000F00047020008470200084702000847020008BC
:1001000047020008470200084702000847020008AB
:100110004702000847020008591B00084702000870
:10012000470200084702000847020008470200088B
:10013000470200084702000847020008470200087B
:10014000470200084702000847020008470200086B
:10015000470200084702000847020008470200085B
:10016000470200084702000847020008470200084B
:10017000470200084702000847020008000000008C
:10018000470200084702000800F002F800F03EF8BD
:100190000AA090E8000C82448344AAF10107DA45E2
:1001A00001D100F033F8AFF2090EBAE80F0013F0F6
:1001B000010F18BFFB1A43F0010318470C5F000042
:1001C0002C5F0000103A24BF78C878C1FAD85207D3
:1001D00024BF30C830C144BF04680C6070470000C1
:1001E0000023002400250026103A28BF78C1FBD840
:1001F000520728BF30C148BF0B6070471FB505F0DC
:100200005EFE00F023F91FBD10B510BD00F076F9B9
:100210001146FFF7F3FF02F05BF900F094F903B425
:10022000FFF7F2FF03BC00F097F900000948804790
:1002300009480047FEE7FEE7FEE7FEE7FEE7FEE7C8
:10024000FEE7FEE7FEE7FEE704480549054A064BE0
:1002500070470000451B000889010008904D0020F0
:1002600090530020904F0020904F002053EA020C42
:1002700000F069802DE9F04B4FF00006002B1FBF06
:10028000B3FA83F503FA05F424FA05F65E4012BFCB
:100290001643B2FA82F502FA05F4C5F120051EBF35
:1002A00022FA05FC44EA0C04203556EA044C4FEAD5
:1002B000144418BF641C4FF000084FF0000990422E
:1002C00071EB030C39D3002919BFB1FA81F701FA98
:1002D00007F6B0FA80F700FA07F6C7F120071EBF4D
:1002E00020FA07FC46EA0C062037B6FBF4FCA7EB25
:1002F0000507103F07F01F0BCBF120062CFA06F67E
:100300000CFA0BFB44BFB3460026202FA4BF5E4669
:100310004FF0000B5BEA060C08BF4FF0010B19EB26
:100320000B0948EB0608ABFB027C06FB02CC0BFB7F
:1003300003CCC01B71EB0C01C1E70B4602464146E2
:100340004846BDE8F08B13B5084318BF4FF0FF30A7
:100350000146AFF30080BDE81C407047032A40F21D
:10036000308010F0030C00F0158011F8013BBCF157
:10037000020F624498BF11F801CB00F8013B38BF6F
:1003800011F8013BA2F1040298BF00F801CB38BF7D
:1003900000F8013B11F0030300F07580083AC0F04B
:1003A000088051F8043B083A51F804CBA0E8081043
:1003B000F5E7121D5CBF51F8043B40F8043BAFF376
:1003C0000080D20724BF11F8013B11F801CB48BFD0
:1003D00011F8012B24BF00F8013B00F801CB48BF06
:1003E00000F8012B704702F0FF0343EA032242EAC0
:1003F000024200F002B84FF0000200B513469446E6
:100400009646203922BFA0E80C50A0E80C50B1F16C
:100410002001BFF4F7AF090728BFA0E80C5048BF80
:100420000CC05DF804EB890028BF40F8042B08BF1E
:10043000704748BF20F8022B11F0804F18BF00F81A
:10044000012B7047704770477047000070B5064C2D
:100450007C44064D7D4404E0204601680844804702
:10046000241DAC42F8D170BD945C0000945C000087
:1004700010B500F03BF8006810BD10B5044600F060
:1004800035F8046010BD10B5203AC0F00B80B1E81B
:100490001850A0E81850B1E81850A0E81850203AB9
:1004A000BFF4F5AF5FEA027C24BFB1E81850A0E8C2
:1004B000185044BF18C918C0BDE810405FEA827CDC
:1004C00024BF51F8043B40F8043B08BF7047D207F3
:1004D00028BF31F8023B48BF11F8012B28BF20F894
:1004E000023B48BF00F8012B7047000000487047EE
:1004F0007800002000487047780000207546FFF71C
:10050000F9FFAE4605006946534620F007008546D0
:1005100018B020B5FFF798FEBDE820404FF0000668
:100520004FF000074FF000084FF0000BAC46ACE86E
:10053000C009ACE8C009ACE8C009ACE8C00921F0CA
:1005400007018D46704710B50446AFF30080204682
:10055000BDE81040FFF763BE01491820ABBEFEE7BF
:100560002600020070470000FEE7000040F2E8109D
:10057000C2F2000000F07EB97047000072B600BF02
:10058000FEE7000090F82020013A012A08D8006810
:1005900000F114020020136819431160704700BF76
:1005A00000F1240201204FF48021136819431160E7
:1005B0007047000010B590F820E0D0F800C0AEF110
:1005C000010EBEF1010FDCF808E011D81EF0E05F6B
:1005D00018D0CEF3016E012000FA0EF018608B687F
:1005E000D3B14868CC6844EAC000034318E000BFB8
:1005F00000F1240101204FF480220B681A430A60A5
:1006000010BD00BF00F1240101204FF400120B685F
:100610001A430A6010BD00BF0868CB6843EA405324
:100620000CEB0E10C0F880310B69C0F88431097DE5
:10063000012905D100F5C2710B6843F480730B608A
:100640005168C0F88C11126800F5C071C0F888219B
:10065000002001220B681A430A6010BDB0B590F863
:100660002020013A012A2FD846F20060C4F200008F
:10067000026842F001020260026822F47C520260C9
:10068000D1F814E0CC694A6A0368012C43EA0222DB
:1006900002600EF01F024FF0010303FA02F2C36979
:1006A0006FEA020C23EA0203C36113D02CBBC368B8
:1006B00003EA0C03C360CB688C8844EA034300EB75
:1006C000CE0423640B4611E0416A41F4802141626B
:1006D0000120B0BDC3681343C3600B688C8844EA33
:1006E000034300EBCE04236401F10C038C681B88E8
:1006F00043EA044300EBCE04636443688D6943EA34
:100700000204D1F810E0096A002D08BF03EA0C04C6
:1007100044604369BEF1000F43EA020408BF03EAE4
:100720000C040129446102D1C1691143C16101680E
:1007300021F0010101600020B0BD00007047000001
:1007400010B590F82040013C012C7BD8D0F800C0B7
:10075000002900F08180DCF81040A40700F08180BF
:100760000CEB011CDCF8B0410CF5D87E14F004044D
:100770009460DCF8B04119BFE4085460640D146063
:10078000DEF800400CF5DA7E04F00204D460DCF8F8
:10079000B44124075ABFDEF8004004F00F040824D7
:1007A0001461DEF800400029C4F307249461DEF8E8
:1007B00000404FEA14445461DCF8B8211A70026812
:1007C00002EB0112D2F8B8214FEA12225A700268E5
:1007D00002EB0112D2F8B8214FEA12429A70026875
:1007E00002EB0112D2F8B8214FEA1262DA70026805
:1007F00002EB0112D2F8BC211A71026802EB01125D
:10080000D2F8BC214FEA12225A71026802EB01129F
:10081000D2F8BC214FEA12429A71026802EB01122F
:10082000D2F8BC214FEA1262DA71006814BF00F1FD
:10083000100100F10C01002020220B681A430A600D
:1008400010BD00BF00F1240101204FF480220B688D
:100850001A430A6010BD00BFDCF80C40A4077FF407
:100860007FAF00F1240101204FF400120B681A43FE
:100870000A6010BD2DE9F04F81B00446006846695A
:10088000D0F804908768D0F80CB0D0F810A0D0F859
:100890001880F10704D1002530071DD424E000BFE3
:1008A000F90710D00121BA07816009D4780700F157
:1008B000AF80380700F1B680204600F033FA02E03E
:1008C000204600F031FA0025F80500F18780F80392
:1008D00000F1B180300707D51BF0100004D020686C
:1008E00045F400751021C160700708D51BF00800A1
:1008F00005D020680821C160204600F0A1F9B007AA
:1009000006D52068C068800702D0204600F09AF91A
:10091000700607D51AF0100004D0206845F48065F1
:1009200010210161B00608D51AF0080005D0206832
:1009300008210161204600F0C1F9F00606D52068C3
:100940000069800702D0204600F0BAF9B00308D54C
:1009500019F0100005D0206810214160204600F0F9
:10096000B1F9F00308D519F0080005D02068082176
:100970004160204600F0E2F9300440F19B805FEADC
:10098000497040F1948006F4807008EA10202843F2
:100990005FEA8871014648BF41F00201B20558BFC5
:1009A00001465FEA48700D4648BF45F004057005F2
:1009B00058BF0D46300540F17A8018F0700000F005
:1009C00076801038000905286CD8DFE800F003595C
:1009D0005D61656945F0080564E000BF20684FF47B
:1009E0008071BA0581600BD4780515D438051DD403
:1009F000204600F09BF9F8037FF56CAF1BE000BFC9
:100A0000204600F095F9F8037FF564AF13E000BFCE
:100A10004FF4006558E700BF05F50055F8037FF572
:100A200059AF08E04FF480554EE700BF05F580450B
:100A3000F8037FF54FAF20684FF48031BA0381602F
:100A40000AD4780310D4380314D4204600F072F985
:100A500030073FF541AF47E7204600F06DF930071A
:100A60003FF53AAF40E700BF05F5004530073FF5D9
:100A700033AF39E705F5803530073FF52DAF33E764
:100A800045F010050EE000BF45F020050AE000BF6C
:100A900045F0400506E000BF45F0800502E000BFDC
:100AA00045F480752068816921F0700181612068BA
:100AB0000421416055B1606A40EA05012046616247
:100AC00001B0BDE8F04FFFF739BE00BF01B0BDE88F
:100AD000F08F0000B0B5C8B1044690F8200010B9FE
:100AE000204600F071F82068016841F001010160C2
:100AF00000F0FAF9054600BF20684168C90707D130
:100B000000F0F2F9401B0B28F6D312E00120B0BD33
:100B1000016821F00201016000F0E6F9054600BF1E
:100B20002068416889070DD500F0DEF9401B0B28CD
:100B3000F6D3606A052140F400306062012084F839
:100B40002010B0BD217E0268012922F0800208BF7A
:100B500080320260617E0268012922F0400208BFF3
:100B600040320260A17E0268012922F0200208BF03
:100B700020320260E17E0268012922F0100218BFD3
:100B800010320260217F0268012922F0080208BFAA
:100B900008320260617F0268012922F0040208BF66
:100BA00004320260D4E901C2D4E9033561691A4311
:100BB0002A431143ACF101021143C161002001211C
:100BC000606284F82010B0BD80B586B0016846F23E
:100BD0000040C4F20000814202D006B080BD00BFD8
:100BE000002143F630020191C4F20202136900F5BC
:100BF000D43043F000731361136903F00073019361
:100C0000019B0191136843F00803136012680223EB
:100C100002F008020192019ACDE902310921032272
:100C2000059101A90192049200F08AF8142005218F
:100C3000002200F01DFA142000F006FA06B080BD74
:100C40007047000010B540F2E811C2F200010068E0
:100C50000968884200D010BD40F6101440F2E81038
:100C6000C2F2000440F60813C2F20000C2F2000310
:100C700000212246FFF764FD206840F205218842EA
:100C800010D0B0F5027F18BF10BD40F25C20C2F258
:100C9000000040F60811C2F20001BDE8104001F06A
:100CA0002FB900BF44F63440C2F2000040F60811EC
:100CB000C2F20001BDE8104001F022B97047000007
:100CC0007047000070470000B0B5044690F820005F
:100CD00001281DD1022084F820002068016821F03D
:100CE0000101016000F000F9054600BF206840687E
:100CF000C00713D000F0F8F8401B0B28F6D3606A49
:100D000040F400306062052084F820000120B0BD6E
:100D1000606A40F4002060620120B0BD0020606283
:100D2000B0BD000070470000704700007047000031
:100D300070470000704700007047000070470000D7
:100D40002DE9F04F82B000F13E4241F6004502F13C
:100D5000FF77C4F20205082243F6004E4FEAB72699
:100D6000A84208BF0722C4F2010E072E38BF4FEA7F
:100D7000B7220125002600274FF00008009208E066
:100D800008F101080437B8F1100F06F1020600F06F
:100D9000A7800C6805FA08F914EA090FF0D0D1F819
:100DA00004B003220BF0030CACF10104B240012C9F
:100DB0006FEA020A10D88268CC6802EA0A02B440DC
:100DC000224382604268CBF3001422EA090204FA4B
:100DD00008F42243426005E0BCF1030F02D14FF05A
:100DE000030C20E0C2688C6802EA0A02B440224385
:100DF000BCF1020FC26016D16FF0030202EA580282
:100E00000244D2F820C007F01C050F230C69AB4048
:100E10002CEA030304FA05F52B431362D1F804B05E
:100E200001250BF0030C02680CFA06F302EA0A0231
:100E30001A431BF4403F0260A2D0002243F6440351
:100E40000192C4F202031A684FF6084C42F4804241
:100E50001A601A68CFF6FF7C02F480420192019A70
:100E600028F00302724452F80C3007F00C050F24EE
:100E7000AC40A343009C04FA05F52B4342F80C3028
:100E8000DEF808204B6842EA090543F60C4CDC0208
:100E900058BF22EA0905CEF80850C4F2010CDCF86C
:100EA00000209C0242EA090558BF22EA0905CCF855
:100EB0000050DEF804209C0342EA090558BF22EAEC
:100EC0000905CEF80450DEF80020DB0342EA0905EC
:100ED00058BF22EA0905CEF80050012550E700BFAF
:100EE00002B0BDE8F08F000044F23850C2F20000BA
:100EF0000068704740F2000044F23851C2F200002E
:100F0000C2F2000100780A681044086070470000CF
:100F100080B543F60040C4F20200016841F400715C
:100F20000160016841F480610160016841F48071F1
:100F30000160032000F0C8F80F2000F005F800F071
:100F400061F8002080BD000070B586B0002543F632
:100F500040010195C4F202010A68044642F0100201
:100F60000A60096801A801F0100101910199694620
:100F700000F06AF9049E002E18BF012600F084F9E3
:100F80004DF68361B040C4F21B31A0FB01014FF06C
:100F9000FF3000EB914140F2102041F20002C2F21A
:100FA0000000C4F2000240F2E733C0E90021C0E9CA
:100FB00002530561856100F06FFB054610B12846BC
:100FC00006B070BD40F21020C2F2000000F094FBA9
:100FD00005460028F3D1362000F036F80F2C0DD846
:100FE000362021460022002500F042F840F204009D
:100FF000C2F200000460284606B070BD01252846F4
:1010000006B070BD82B0002043F640010190C4F2EA
:1010100002014A6842F480424A604A6802F480420F
:101020000192019A00900868002240F08050086008
:1010300008680F2100F08050009000986FF00100C8
:1010400002B000F015B80000002848BF7047C1B2D8
:1010500000F01F00012202FA00F04EF20012CEF260
:10106000000242EAD10121F003010860704700004C
:1010700010B54EF60C5CCEF2000CDCF80030C3F379
:10108000022E8EF00704042C28BF0424BEF10303B3
:101090004FF0FF3E0EFA04F438BF0023A1439940FD
:1010A0000EFA03F39A43114300F00F0200F160437C
:1010B0000901043A03F564436244002848BF02F181
:1010C0000C03197010BD00004EF60C51CEF2000159
:1010D0000A684FF6FF031A4060F30A2242F080606C
:1010E00040F0FD70086070472DE9F041002800F0E5
:1010F0008B8043F60808C4F202080446D8F8F803C7
:101100000D4600F00700884207D288F8F853D8F857
:10111000F80300F00700A84276D12068810717D5B0
:10112000410705D5D8F8001041F4E051C8F8001087
:10113000010705D5D8F8001041F46041C8F8001047
:10114000D8F80010A26821F0F0011143C8F800108F
:10115000C0073FD1D8F8F80300F00700A84207D92C
:1011600088F8F853D8F8F80300F00700A8424BD1EC
:101170002068410707D5D8F80010E26821F4E05153
:101180001143C8F80010000708D5D8F800002169FD
:1011900020F4604040EAC100C8F8000000F088F880
:1011A000D8F8001046F26802C1F30311C0F600023D
:1011B000515C40F2080220FA01F140F20400C2F250
:1011C00000000068C2F200021160FFF7BDFE0020BF
:1011D000BDE8F0816068811E022907D258F8081C1A
:1011E00089015CBF0120BDE8F08111E0012807D131
:1011F00058F8081C89035CBF0120BDE8F08107E0B6
:1012000058F8081C890703D40120BDE8F08100BF0D
:10121000D8F8001021F003010843C8F80000FFF7D8
:1012200063FE064641F28837D8F80000616800F096
:101230000C00B0EB810F8DD0FFF756FE801BB8423B
:10124000F2D90320BDE8F0810F22026043F60802C4
:10125000C4F20202136803F003034360136803F04F
:10126000F0038360136803F4E053C360D2F800C056
:101270004FF4E05303EADC030361D2F8F80300F013
:10128000070008607047000040F2080043F60801BC
:10129000C2F20000C4F202010068096846F2780256
:1012A000C1F38221C0F60002515CC84070470000C3
:1012B00010B543F60404C4F20204606800F00C00A8
:1012C00008280BD0042819BF42F20040C0F2F400F5
:1012D00041F60030C0F2B70010BD00BF20682168A1
:1012E0002368490241F60031C0F2B70100F03F0225
:1012F000C3F388105CBF42F20041C0F2F401A1FBCD
:1013000000010023FEF7B2FF21680222C1F3014170
:1013100002EB4101B0FBF1F010BD00002DE9F041FE
:1013200082B0002868D00446007843F60006C00763
:10133000C4F202060BD0B06800F00C00042840F0A4
:101340009F803068800302D56068002854D02078E0
:1013500080071AD5B06810F00C0F09D0B06800F003
:101360000C00082840F0A6807068400200F1A280BE
:101370003068800702D5E06801283DD130682169D6
:1013800020F0F80040EAC10030602078000737D430
:10139000207840074CD4A56955B3B06800F00C0024
:1013A000082840F0BB80012D26D07068E16900F468
:1013B00080028A4220D1216A00F03F028A421BD17A
:1013C00047F6C071626A0140B1EB821F14D1A16A75
:1013D0004FF6FF73C903994300F44032A1F5803101
:1013E0008A4209D1E16A00F07060B0EB016F03D16D
:1013F000002002B0BDE8F081012002B0BDE8F0811C
:101400006069002840F20000C4F2472076D0012134
:10141000C0F8801EFFF768FD054600BF706F8007AB
:10142000B6D4FFF761FD401B0228F7D9DDE000BF0D
:10143000306C10F080580AD100200190306C40F0E0
:1014400080503064306C00F080500190019847F279
:101450000007C4F200073868C00541D4386840F47A
:1014600080703860FFF740FD054600BF3868C00552
:1014700036D4FFF739FD401B0228F7D9B5E000BF8D
:10148000B06800F00C00082803D1706840023FF5F6
:1014900058AF6068B0F5803F07D0B0F5A02F40F09E
:1014A0008D80306840F480203060306840F48030B7
:1014B00030608DE0E068002852D00020C4F2472060
:1014C00001210160FFF710FD054600BF306880076D
:1014D0003FF554AFFFF708FD401B0228F6D984E022
:1014E000A068012805D005284ED1306F40F00400D7
:1014F0003067306F40F0010030674FE00021C0F8E6
:10150000801EFFF7F1FC0546706F80077FF540AF46
:10151000FFF7EAFC401B0228F6D966E00027C4F278
:10152000472700203866FFF7DFFC022D05460BD168
:10153000306880015ED5FFF7D7FC401B02284FF0D2
:101540000300F5D955E700BF306880017FF550AF43
:10155000FFF7CAFC401B02284FF00300F4D948E70C
:101560000020C4F2472000210160FFF7BDFC0546C2
:10157000306880077FF509AFFFF7B6FC401B0228F3
:101580004FF00300F4D934E7316F002821F0010156
:101590003167316F21F0040131674DD0FFF7A4FCB2
:1015A000054641F2883700BF306F800756D4FFF7F9
:1015B0009BFC401BB842F7D917E000BF31680028F8
:1015C00021F480313160316821F4802131604FD0C5
:1015D000FFF78AFC054600BF306880033FF5B7AED1
:1015E000FFF782FC401B6428F6D9032002B0BDE857
:1015F000F08100BF04F11C052FCD084340EA8210A2
:10160000D9034FF6FF729143A1F5803140EA05609E
:101610000843706001203866FFF766FC044600BF8F
:10162000306880013FF5E4AEFFF75EFC001B022846
:101630004FF00300F4D9DCE6FFF756FC054641F213
:10164000883700BF306F800708D5FFF74DFC401B7F
:10165000B8424FF00300F5D9CBE600BFB8F1000F58
:101660007FF499AE306C20F08050306493E600BF78
:10167000FFF73AFC054600BF306880037FF567AE90
:10168000FFF732FC401B64284FF00300F4D9B0E6AA
:101690007047000070470000002804BF0120704719
:1016A00010B5044690F83D0028B9002084F83C00AD
:1016B000204600F01FF8022084F83D002068211D1C
:1016C00000F050FA012084F8460084F83E0084F8C7
:1016D0003F0084F8400084F8410084F8420084F818
:1016E000430084F8440084F8450084F83D0000205D
:1016F00010BD00007047000090F83D1001291CBF8C
:1017000001207047022180F83D10006841F2FF720D
:10171000C168C4F20002904241F00101C1600DDCD9
:1017200040F2FF71C4F20001884215DCB0F1804F35
:101730002AD040F20041C4F2000123E040F2FF3120
:10174000C4F20101884213DC41F60001C4F2000139
:10175000884219D0002113E040F60001C4F20001D4
:10176000884211D040F60041C4F200010AE000BFF7
:1017700044F20001C4F20101884205D040F2004168
:10178000C4F20101884206D1816801F007010629EF
:1017900004BF00207047016841F001010160002092
:1017A000704700007047000070B504460068C568C7
:1017B0000669B10716D515F0020113D06FF00201CA
:1017C0000161012121778069800703D02046FFF75E
:1017D000E9FF05E0204600F08FF8204600F08EF883
:1017E00000202077700719D515F0040016D0206866
:1017F0006FF00401016102212177806910F4407FBC
:1018000004D02046FFF7CEFF06E000BF204600F0E0
:1018100073F8204600F072F800202077300717D5C3
:1018200015F0080014D020686FF008010161042150
:101830002177C069800703D02046FFF7B3FF05E09A
:10184000204600F059F8204600F058F80020207794
:10185000F00619D515F0100016D020686FF01001B1
:10186000016108212177C06910F4407F04D020462F
:10187000FFF798FF06E000BF204600F03DF8204645
:1018800000F03CF800202077F00718BF15F00100A9
:1018900002D1300609D412E020686FF00101016125
:1018A000204600F02DF8300609D515F0800006D04E
:1018B00020686FF0800101612046FFF7E9FE7006A5
:1018C00009D515F0400006D020686FF04001016195
:1018D000204600F01FF8B00658BF70BD15F020007C
:1018E00008D021686FF0200220460A61BDE87040F0
:1018F000FFF7D0BE70BD00007047000070470000C9
:10190000006841F20001C4F20001884218BF70472C
:10191000FFF7F0BA70470000FEE7000080B540F224
:10192000E81046F20041C2F20000C4F200010322B6
:10193000002380E80E0000F10C014FF4102C4FF44E
:10194000001E81E8085083618383FFF7C3F80028F5
:1019500008BF80BDBDE88040FEF710BE80B501F035
:10196000DFFB41F6752046F28002C0F60000C0F6AB
:101970000002002100F010FE40F2E411C2F200016A
:10198000086080BD83B0002043F630010290C4F2AD
:1019900002010A6842F001020A600A6802F00102CC
:1019A0000292029A01900A6842F008020A600A68EC
:1019B00002F008020192019A0090086840F080004D
:1019C0000860086800F080000090009803B070473D
:1019D000FEE70000FEE7000000000000000000003D
:1019E000EFF30980BFF36F8F154B1A681EF0100FCD
:1019F00008BF20ED108A20E9F04F10602DE90900A2
:101A00004FF0500080F31188BFF34F8FBFF36F8FFB
:101A100001F0ACFE4FF0000080F31188BDE8090032
:101A200019680868B0E8F04F1EF0100F08BFB0EC5E
:101A3000108A80F30988BFF36F8F704700BF00BF23
:101A4000D80000200000000000000000000000009E
:101A5000074B19680868B0E8F04F80F30988BFF3B6
:101A60006F8F4FF0000080F31188704700BF00BFF8
:101A7000D8000020012000F04DFDFBE780B54EF2BC
:101A80001000CEF20000006802F0BEFA012808BF84
:101A900080BDBDE8804001F089BF0000B0B592B0C4
:101AA000002443F64000CDE90A44CDE908440594FA
:101AB000CDE90344CDE901440094C4F20200016879
:101AC000022541F080510160006800F080500090D4
:101AD000009847F200000094C4F20000016841F44D
:101AE00080410160006800F480400090009801206F
:101AF00006904FF4803007904FF480000D90062040
:101B00000E90A820CDE90F050420119006A80C9591
:101B1000FFF704FC10B172B6FEE700BF0F20CDE95D
:101B200001054FF4A05004904FF48050059001A897
:101B300005210394FFF7D8FA10B172B6FEE700BF93
:101B400012B0B0BD4EF68850CEF20000016841F4EC
:101B5000700101607047000040F21020C2F20000E6
:101B6000FFF722BEB0B540F6FF3E0568C4F2000E96
:101B700040F2004C7045C4F2010C27DCB0F1804FFC
:101B800031D040F20043C4F2000398422BD040F61B
:101B90000003C4F20003984225D041F6FF73C4F25B
:101BA000000398422ADC70453CDCB0F1804F5FD0E6
:101BB00040F20043C4F20003984259D040F60003BB
:101BC000C4F20003984253D057E000BF40F60043F0
:101BD000C4F20003984206D0604504D00023C4F24A
:101BE00001039842D9D14B6825F0700243EA0205FF
:101BF00041F6FF73C4F200039842D4DD43F6FF734D
:101C0000C4F20103984221DC42F20003C4F2000353
:101C100098422DD00023C4F20103984228D0604599
:101C200026D02AE040F60043C4F2000398421FD0B9
:101C300041F60003C4F20003984219D041F6004374
:101C4000C4F20003984213D017E000BF44F200032F
:101C5000C4F2010398420BD044F60003C4F201031E
:101C6000984205D044F20043C4F20103984204D1E3
:101C7000CB6825F4407243EA02050A688C684B6918
:101C8000C46240F480648262644504BF09690163F0
:101C9000026825F0800142F004021943026001222B
:101CA00042610160B0BD0000FEE700002DE9F04F89
:101CB00081B044F60854002000214CF6CD4AC2F20F
:101CC0000004C4F290204FF07E5BC4F27A41C3F668
:101CD000CC5A00226423C4F2F012C4E9000BC4E918
:101CE000021A04F11C002821C4E90432FEF783FB28
:101CF0009FED610A204600F03FFB44F64C55002062
:101D00000021C2F20005C4F20820C4F270210022B2
:101D100040F20009C4F2A0123223C4F2202985E85F
:101D2000070405F11C002821C5E90439FEF763FB0F
:101D30009FED520A284600F01FFB44F63446C2F2DB
:101D400000064FF0010806F108002421C6E900B89A
:101D5000FEF751FB94E88F10A46906F12C0E8EE873
:101D60008F1006F1480028217464FEF744FB95E8C3
:101D70008F00D5E9054506F1700C8CE88F0006F15F
:101D80008C004421C6E92145FEF735FB40F2303492
:101D90000020C2F20004C4F234200021002245F2E7
:101DA000EC13C4F2A001C4F27042C3F6B85384E845
:101DB0000F006420C4E9040B04F11C002821A6F8DC
:101DC000D080FEF718FB9FED2E0A204600F0D4FAD3
:101DD00040F274350020C2F20005C4F24010C5E99B
:101DE000000932204FF00008C5E9040905F11C0084
:101DF0002821C5E9028AFEF7FEFA9FED220A28464D
:101E000000F0BAFA40F25C270021C2F20007042079
:101E1000C4F20E31C7E900B0C7E9021894E84F10C8
:101E2000A469C7E90A8007F1300080E84E1007F185
:101E300048002821C7E90488C7E90688C7E9088857
:101E40007C64FEF7D8FA95E84F00D5E9054507F11F
:101E5000700C8CE84F0007F18C004021C7E9214548
:101E6000FEF7C9FA0020CBF68070C7F8CC00A7F8BF
:101E7000D08001B0BDE8F08F0000874400803B4671
:101E80000000000000606A4640F2580A44F63448F8
:101E900040F6301540F25C2940F2E81B40F25C0449
:101EA00040F2E016C2F2000AC2F20008C2F20005D7
:101EB000C2F20009C2F2000BC2F20004C2F2000634
:101EC000002716E0404600F017F94046294600F08A
:101ED000FDF8484600F010F94846294600F0F6F8AB
:101EE000584621462A463346FEF764FB012000F09F
:101EF00011FBDAF800000028E4D0C5E90077EFE72D
:101F000090ED052A9FED6C3A80ED062A0A8852BAB8
:101F100000EE102AB8EEC01A9FED660A21EE001AF4
:101F200081EE033A9FED651A33EE422AB4EE412A60
:101F3000F1EE10FA80ED053A80F29A809FED611A79
:101F4000B4EE412AF1EE10FA1CDA00BF32EE002A9C
:101F5000B4EE412AF1EE10FA14DA32EE002AB4EEB1
:101F6000412AF1EE10FA0DDA32EE002AB4EE412ADF
:101F7000F1EE10FA06DA32EE002AB4EE412AF1EE62
:101F800010FAE3DB90ED001A90ED034A82EE013A7D
:101F900080ED072A33EE042AB4EE402AF1EE10FA5F
:101FA00080ED043A37DB9FED463A00BF32EE032A5C
:101FB000B4EE402AF1EE10FA2DDB32EE032AB4EE35
:101FC000402AF1EE10FA26DB32EE032AB4EE402A64
:101FD000F1EE10FA1FDB32EE032AB4EE402AF1EEE6
:101FE00010FAE3DA17E000BF32EE002AB5EE402A1D
:101FF000F1EE10FA14DA32EE002AB5EE402AF1EED4
:1020000010FA0DDA32EE002AB5EE402AF1EE10FA9F
:1020100006DA32EE002AB5EE402AF1EE10FAE3DBE2
:1020200080ED032A4A88B1EE082AD2BA00EE102ABF
:10203000B8EEC00A20EE020A80EE010AB3EE041ADE
:102040009FED212A80ED080A8A88D2BA00EE102A74
:10205000B8EEC00A20EE010A20EE020A80ED090A5D
:10206000897900EE101AB8EE400A80ED0A0A70472E
:102070009FED133A32EE032AB4EE412AF1EE10FA44
:10208000FFF65CAF32EE032AB4EE412AF1EE10FA0D
:10209000FFF654AF32EE032AB4EE412AF1EE10FA05
:1020A000FFF64CAF32EE032AB4EE412AF1EE10FAFD
:1020B000E0DA43E70000B44300F8FF450000344392
:1020C0000000B4C3000034C300008038426890EDC3
:1020D000310A013AD31702EB937323F00303BDEEE9
:1020E000C00AD01A10EE102A130A01EB400C01F8B6
:1020F00010308CF8012070472DE9F04381B02DEDB0
:10210000048B8146D0F8C00003F068FE0546D9F87C
:1021100020000E4603F062FE9FED810B53EC102B66
:1021200003F062FB9FED800B07460C4653EC102B2F
:102130002846314603F058FB3A46234603F0EAF8B6
:1021400003F0B6F899ED021A99ED032A9FED860A7D
:1021500032EE418AB4EE408AF1EE10FAC9F8C000BE
:1021600038DA9FED830AB4EE408AF1EE10FA1DDAF8
:102170009FED801A38EE018AB4EE408AF1EE10FA33
:1021800014DA38EE018AB4EE408AF1EE10FA0DDA74
:1021900038EE018AB4EE408AF1EE10FA06DA38EE33
:1021A000018AB4EE408AF1EE10FAE3DB99F8D00030
:1021B00089ED2E8A70B399F8D100022800F08D8045
:1021C000012800F09980002840F0A48099ED330A9E
:1021D0009EE000BF9FED651A38EE018AB4EE408A9A
:1021E000F1EE10FABDDB38EE018AB4EE408AF1EE72
:1021F00010FAB6DB38EE018AB4EE408AF1EE10FA3E
:10220000AFDB38EE018AB4EE408AF1EE10FAE3DA81
:10221000A7E700BF18EE100A03F0E0FD41EC100B39
:102220009FED431B02F0F4F8D9F8B800B0EE408AF5
:10223000F0EE608A03F0D2FD41EC100B9FED3E1BE7
:1022400002F0E6F851EC100B9FED3D0B53EC102B18
:1022500003F0CAFA9FED3C0B04460D4651EC180BF7
:1022600053EC102B03F0C0FA22462B4603F052F831
:1022700099ED2E8A804618EE100A0F4603F0AEFD47
:1022800002460B4605460E4603F0AEFA9FED300BB4
:1022900053EC102B03F0A8FA42463B4603F03AF801
:1022A0009FED2D0B04460F4653EC102B284631466C
:1022B00003F09AFA22463B4603F02CF89FED280BD8
:1022C00053EC102B03F026F802F0F2FFC9F8CC0013
:1022D00099F8D10002287FF473AF99ED2D0A99ED9A
:1022E000329A09F12C00F0EE480A00F053F839EE6A
:1022F000000A89ED2F0A01E099ED2F0AD9ED300A85
:1023000099ED338A09F1700000F044F838EE000AC4
:1023100089ED310ABDEC048B01B0BDE8F08300BF4C
:10232000333333333333E33F9A9999999999D93FAA
:102330000000000000001040000000000000084005
:102340006631B1F9B836A4BF2EFF00EF0D5335BF8B
:10235000E8305F5E807DC8BF772D211FF43C24C02C
:102360000000000000409F40000034430000B4C360
:10237000000034C30000B4439FED051AB5EE400AD7
:10238000F1EE10FAC8BFB0EE401A80ED061A7047A1
:102390000000000090ED071AC0ED080AB4EE401AE4
:1023A000F1EE10FA3CD190ED042AB7EE004AB8EEF7
:1023B000C22A84EE025A31EE601A81EE022A90EDB2
:1023C000093A90ED030A90ED0B6A80ED0A3A31EE7E
:1023D000433A34EE407A20EE030A90ED0C3A27EEB1
:1023E000066A90ED057A30EE060A34EE454A23EE91
:1023F000043A33EE022AB1EE473AB4EE432A80EDB6
:10240000091A80ED0B0AF1EE10FAB4EE472AB8BFB4
:10241000B0EE432AF1EE10FAC8BFB0EE472A21E031
:1024200090ED042A30EE601AB8EEC22A81EE022A3C
:1024300080ED070A90ED050A0021B1EE403A80EDEB
:10244000091AC162B4EE432AF1EE10FAB4EE402A42
:10245000B8BFB0EE432AF1EE10FAC8BFB0EE402A82
:102460009FED1A0A90ED004A90ED015A90ED026A34
:1024700090ED063A80ED0C2A24EE011A25EE022A90
:1024800026EE004A31EE020AB5EE403A34EE000A7A
:10249000F1EE10FA80ED0D1A80ED0E2A80ED0F4A54
:1024A00080ED100A08BF7047B1EE431AB4EE410A3E
:1024B000F1EE10FAB4EE430AB8BFB0EE410AF1EE05
:1024C00010FAC8BFB0EE430A704700BF000000001A
:1024D000FEF71EFDFFF7E2FAFFF754FAFFF71EFAC8
:1024E00040F2E814C2F2000440F20C01C2F2000112
:1024F0002046FEF7B3F82046FEF7E6FB2046022111
:10250000FEF740F800F016F8FFF728FA00F026F87A
:10251000FEE70000EFF3058100291CBF6FF0050006
:102520007047002804BF0020704780B500F0D4FF3A
:10253000002080BDEFF3058000281CBF6FF0050070
:10254000704740F2DC10C2F200000168002911BFA0
:102550004FF0FF30012101600020704710B5EFF30C
:10256000058000281CBF6FF0050010BD40F2DC1094
:10257000C2F20000016801291CBF4FF0FF3010BDFE
:102580004EF61F51CEF2000100240C7002210160B2
:1025900001F06CF8204610BD2DE9F04184B08E4664
:1025A00000240394EFF3058150B149B94FF00004C2
:1025B00052B19369002B08BF1823382B16D9002479
:1025C000204604B0BDE8F08180251823002103AF28
:1025D0000093AAB27346019701F0AAFC039901285F
:1025E00008BF0C46204604B0BDE8F0811179C90748
:1025F00024D15769D2E902864FEA970C1168002F5F
:10260000654608BF8025B8F1000F13D05C2E15D3A6
:1026100012690024002A18BF002FD1D0CDE9003262
:1026200062467346CDF8088001F0B2FC04B0BDE804
:10263000F08100BF16B91269002AC8D000242046D4
:1026400004B0BDE8F08100002DE9F041044600F03F
:1026500001FE40F2D806C2F20006F06840F2A8453A
:102660000130F0603068C2F2000558B130690028CE
:1026700040F007813068E16AC06A884298BF3460E0
:10268000FFE000BF3460F068012840F0FA8028467F
:1026900000F086FD05F1140000F082FD05F1280030
:1026A00000F07EFD05F13C0000F07AFD05F15000E0
:1026B00000F076FD05F1640000F072FD05F1780090
:1026C00000F06EFD05F18C0000F06AFD05F1A00040
:1026D00000F066FD05F1B40000F062FD05F1C800F0
:1026E00000F05EFD05F1DC0000F05AFD05F1F000A0
:1026F00000F056FD05F5827000F052FD05F58C7076
:1027000000F04EFD05F5967000F04AFD05F5A0704D
:1027100000F046FD05F5AA7000F042FD05F5B47025
:1027200000F03EFD05F5BE7000F03AFD05F5C870FD
:1027300000F036FD05F5D27000F032FD05F5DC70D5
:1027400000F02EFD05F5E67000F02AFD05F5F070AD
:1027500000F026FD05F5FA7000F022FD05F5027087
:1027600000F01EFD05F5077000F01AFD05F50C7070
:1027700000F016FD05F5117000F012FD05F516705C
:1027800000F00EFD05F51B7000F00AFD05F5207048
:1027900000F006FD05F5257000F002FD05F52A7034
:1027A00000F0FEFC05F52F7000F0FAFC05F5347022
:1027B00000F0F6FC05F5397000F0F2FC05F53E700E
:1027C00000F0EEFC05F5437000F0EAFC05F54870FA
:1027D00000F0E6FC05F54D7000F0E2FC05F55270E6
:1027E00000F0DEFC05F5577000F0DAFC05F55C70D2
:1027F00000F0D6FC05F5617000F0D2FC05F56670BE
:1028000000F0CEFC05F56B7000F0CAFC05F57070A9
:1028100000F0C6FC05F5757000F0C2FC05F57A7095
:1028200000F0BEFC05F57F7000F0BAFC05F5826093
:1028300000F0B6FC05F2244000F0B2FC05F587601C
:1028400000F0AEFC05F24C4000F0AAFC40F2B418D7
:10285000C2F20008404600F0A3FC08F11407384615
:1028600000F09EFC06F1640000F09AFC06F13C00CA
:1028700000F096FC06F1500000F092FCC6F81C80B7
:1028800037627068716A421CE06A726088426264F2
:1028900088BF706200EB800005EB8000211D00F016
:1028A000C1FC00F0FBFC306988B13068E16AC06AA5
:1028B000884228BFBDE8F0814EF60450CEF20000F9
:1028C0004FF080510160BFF34F8FBFF36F8FBDE8B2
:1028D000F081000040F2D80540F2A8464EF60458B8
:1028E000C2F20005C2F20006CEF200084FF0805797
:1028F00003E000BF204600F0E9FCA868D0B100F07A
:10290000A9FCA86CC468201D00F01CFCE868013814
:10291000E860A8680138A86000F0C0FC94F859008D
:102920000228EAD00128E5D070B9206B00F0CEFC77
:10293000E0E700BF30680228DFD3C8F80070BFF3BB
:102940004F8FBFF36F8FD8E74FF0500080F311889F
:10295000BFF36F8FBFF34F8FFEE700002DE9F04705
:102960000A9C8246206B16460F46DDE90859910005
:10297000A5229846FDF737FD206B002F00EB86005F
:10298000A0F1040020F0070656D0387884F834000F
:10299000387800284BD0787884F83500787800288B
:1029A00045D0B87884F83600B87800283FD0F87859
:1029B00084F83700F878D0B3387984F8380038795B
:1029C000A8B3787984F83900787980B3B87984F835
:1029D0003A00B87958B3F87984F83B00F87930B305
:1029E000387A84F83C00387A08B3787A84F83D0065
:1029F000787AE0B1B87A84F83E00B87AB8B1F87A5B
:102A000084F83F00F87A90B1387B84F84000387B36
:102A100068B1787B84F84100787B40B1B87B84F85A
:102A20004200B87B00281CBFF87B84F843000020DC
:102A300084F8430003E000BF002084F8340000273E
:102A4000201D372D28BF3725E562C4E9135700F054
:102A5000B3FB04F1180000F0AFFBC5F13800A06132
:102A600030465146424624616462676584F8587076
:102A700000F042FBB9F1000F206018BFC9F8004018
:102A8000BDE8F08708480068006880F308884FF0C8
:102A9000000080F3148862B661B6BFF34F8FBFF3B6
:102AA0006F8F00DF00BF000008ED00E081B0002064
:102AB000009040F27400C2F2000000684FF0500134
:102AC00081F31188BFF36F8FBFF34F8F013007D0B1
:102AD000FEE700BF009830B9009820B9009810B9FF
:102AE00000980028F6D001B07047000088B040F28E
:102AF000501AC2F2000A0DF11009EB46DAF808008C
:102B000005681DB1C068046801E000BF002400F042
:102B100025FE01F089FADAF810100646884220D323
:102B2000002DCAF8106051D0A6424FD301F084FBAB
:102B3000DAF80800C068C7683D1D284600F002FBAF
:102B400097F82800410745D400F0FE0087F82800D8
:102B500084E000BF6860DAF8080039462D6100F0B3
:102B60002FFBDAF80800016831B3C068C568046853
:102B70002F1D384600F0E6FA296A2846884795F85E
:102B800028004007EDD5A8692044A042E2D8DAF831
:102B90000000002800F04881002004A931C101F0A4
:102BA00033FADAF8000049460022002300F086FFDD
:102BB0000028D6D138E100BFDAF80C10CAF810604E
:102BC000CAE9021001F038FB1AE100BF65B100222A
:102BD00010E000BFB8693F610119B14279601FD9A7
:102BE0000AF1080021E000BFDAF80C000068B0FA32
:102BF00080F04209DAF80000A11B00F043FC01F06C
:102C00001BFB002840F0FC804EF60450CEF2000082
:102C10004FF080510160BFF34F8FBFF36F8FEFE034
:102C2000311B814206D20AF10C000068294600F0EF
:102C3000C7FA13E0DAF80000002800F01381002042
:102C400004A991C101F0E0F9DAF800004946002238
:102C5000002300F033FF002800F00481396A384671
:102C60008847CDE00098B0F1FF3F07DCDDE90120A7
:102C7000039990470098002800F1C280029E706975
:102C800010B1301D00F05EFA01F0CEF9DAF8101044
:102C9000074688420DD30098CAF8107009283FD91A
:102CA000AEE000BF6860DAF8080021462D6100F050
:102CB00087FADAF80800016841B3C068C568D0F83F
:102CC00000802C1D204600F03DFA296A28468847DE
:102CD00095F828004007ECD5A86940444045E1D864
:102CE000DAF80000002800F095800020CDE9040803
:102CF000069501F089F9DAF8000049460022002320
:102D000000F0DCFE0028D4D184E000BFDAF80C101B
:102D1000CAE902100098CAF81070092800F2708001
:102D2000DFE800F00606064448620606444800BF95
:102D300096F82800019A40F00101B06986F8281041
:102D40008318314641F8043FBB42366106D99742A9
:102D50000AF1080007D293420AD204E0BA1A82426A
:102D600006D20AF10C00006800F02AFA48E000BF21
:102D7000316A3046884796F82800400740D5DAF88F
:102D8000000000285AD00198B16906960844002135
:102D9000CDE9041001F038F9DAF8000049460022C4
:102DA000002300F08BFE58BB48E000BF96F82800D7
:102DB00022E000BF96F8280040F00101019886F853
:102DC00028100028B06143D0384431460AF10C0283
:102DD00041F8040F3661B84288BF0AF10802106852
:102DE00000F0EEF90CE000BF96F82800810703D44C
:102DF000304600F06BFA03E000F0FE0086F8280091
:102E0000DAF800005946002200F06EFF00287FF437
:102E100029AF73E64FF0500080F31188BFF36F8F36
:102E2000BFF34F8FFEE700BF4FF0500080F31188D3
:102E3000BFF36F8FBFF34F8FFEE700BF4FF050001F
:102E400080F31188BFF36F8FBFF34F8FFEE700BF92
:102E50004FF0500080F31188BFF36F8FBFF34F8F97
:102E6000FEE700BF4FF0500080F31188BFF36F8F73
:102E7000BFF34F8FFEE70000F0B581B0044600F0CD
:102E8000E9F994F94560012E0FDB04F1240500BF38
:102E9000286850B1284601F095F9002818BF00F0C5
:102EA00065FBF0B2013E0128F2D8FF2684F84560A8
:102EB00000F0F4F900F0CEF994F94470012F0EDB24
:102EC00004F11005286850B1284601F07BF900286C
:102ED00018BF00F04BFBF8B2013F0128F2D884F88C
:102EE000446001B0BDE8F04000F0D8B970B50446C8
:102EF00000F034FC40F28C1CC2F2000CDCF8040040
:102F000050B19CF80000002818BF4FF000404FF06F
:102F1000000574BB8DE000BF40F63810C2F200001F
:102F2000C21D22F0070210F00701A0EB020318BF38
:102F3000104600224FF47055CCE90602002918BF54
:102F400003F57055411921F00701A1F10803CCF8F0
:102F5000043041E90222191AC0E9003101208CF83D
:102F600000004FF00040CCE90211002C4FF00005AA
:102F70005FD020405DD124F0070000F1100260070F
:102F800008BF04F10802002A4FF0000551D0DCF818
:102F9000080082424DD8604650F818EFDEF8045021
:102FA00095422CD2DEF80010C1B174464D689542AE
:102FB00018D20B68B3B15D68954217D21868A8B1F2
:102FC0004568954216D20468A4B16568954215D249
:102FD0002168A6460029E9D111E000BF0CF11800D4
:102FE0000DE000BF8E46204609E000BF9E46084621
:102FF00005E000BF8646184601E000BFA646DCF8A3
:1030000004108E4514D00168DEF80040AB1A112B75
:1030100004604DD30EEB0205680719D04FF0500045
:1030200080F31188BFF36F8FBFF34F8FFEE700BFB0
:10303000002501F001F968075BD04FF0500080F3E4
:103040001188BFF36F8FBFF34F8F00BFFEE700BF44
:103050000CF118006B60CEF8042000BF0368AB428F
:103060000AD21868A8420BD20368AB4204D218688F
:103070001A46A842F2D304E00246184601E000BF17
:103080001A4653686C68D618AE4202D11C441546E5
:1030900054602B19834207D1DCF80430984203D0E6
:1030A000D0E9000323446B60AA42286018BF156072
:1030B00001F10805DEF80400DCE90212091A914268
:1030C000CCF8081038BFCCF80C109CF80010002980
:1030D00018BF40F00040CEF80400DCF810000021DA
:1030E0000130CEF80010CCF8100001F0A5F8680708
:1030F000A3D1284670BD0000034642F6AD20C0F6BD
:1031000000004FF0807C21F0010103E903106FF013
:10311000020043F8240CA3F1440043F8202C70472C
:1031200080B541F6896040F23402C0F60000C2F278
:1031300000020021FFF730FA40F25821C2F20001EC
:10314000086080BDD0E9013201699A60D1F804C0FD
:1031500082688445536008BF4A60002202610868A3
:10316000013808600868704744F23C73C2F20003FB
:10317000036044F23C50C2F20000086080201060FE
:103180007047000044F69833C2F20003036044F233
:103190009870C2F2000008604FF4807010607047B1
:1031A0004FF0FF31024642F8081F00214260C0E99B
:1031B0000322016070470000002101617047000098
:1031C00010B5D1F800E01EF1010213D000F108049F
:1031D00062681368734511D853681C68744511D828
:1031E0005A68146874450FD854682368A446734518
:1031F000EED90BE00269D2F804C007E094462246FB
:1032000004E000BF9C4601E094461A46C1F804C0A1
:10321000CCF808108A6051600861016801310160D2
:1032200010BD0000D0F800C0436808619A684B6088
:103230008A609A68996051600CF1010101607047E1
:10324000DFF80C00016841F4700101607047000074
:1032500088ED00E04FF0500080F31188BFF36F8FCE
:10326000BFF34F8F40F27400C2F2000001684A1CA5
:10327000026009B1704700BF4EF60450CEF2000064
:103280000068000608BF70474FF0500080F31188B7
:10329000BFF36F8FBFF34F8FFEE7000040F2740063
:1032A000C2F20000016839B10139016018BF7047EE
:1032B000002080F3118870474FF0500080F3118890
:1032C000BFF36F8FBFF34F8FFEE7000070B500288C
:1032D00008BF70BD40F28C15C2F200050446287884
:1032E00054F8041C002818BF4FF0004008420DD0CD
:1032F000A4F1080632689AB14FF0500080F31188AB
:10330000BFF36F8FBFF34F8FFEE700BF4FF050004A
:1033100080F31188BFF36F8FBFF34F8FFEE700BFBD
:1033200021EA000044F8040C00F018FA54F8041CD8
:10333000A8680844A86005F1180000BF0368B342FC
:103340000AD21868B04225D20368B34204D2186882
:103350001A46B042F2D301E0024618465368D41828
:10336000B44202D11944164651607318834206D103
:103370006B68984203D0D0E9000319447160B242EF
:10338000306018BF1660686901306861BDE8704040
:1033900000F052BF1A465368D418B442E5D1E1E7B1
:1033A0004EF21000CEF2000000210160816040F278
:1033B0000801C2F20001096844F6D352C1F2620268
:1033C000A1FB02124FF0FF3101EB92114160072186
:1033D0000160704744F6F43CC2F2000CDCF80020B7
:1033E00022B3634653F8082F42B3634653F8102FB5
:1033F00052B3634653F8182F62B3634653F8202F35
:1034000072B3634653F8282F82B3634653F8302FC4
:1034100092B3634653F8382F002A18BF704707222B
:1034200019600CEBC2014860704700BF0022634680
:1034300019600CEBC2014860704700BF012219609F
:103440000CEBC20148607047022219600CEBC2010C
:1034500048607047032219600CEBC2014860704756
:10346000042219600CEBC201486070470522196004
:103470000CEBC20148607047062219600CEBC201D8
:103480004860704770B515460E460446FFF7E2FEE9
:1034900094F84400FF2804BF002084F8440094F806
:1034A0004500FF2804BF002084F84500FFF7F6FE22
:1034B000A06B28B12046BDE87040FFF7DDBC00BF1F
:1034C00004F1240031462A4600F092F82046BDE877
:1034D0007040FFF7D1BC000070B588B340F2D8054A
:1034E000C2F200050446686950B14FF0500080F305
:1034F0001188BFF36F8FBFF34F8F00BFFEE700BF90
:10350000686901306861AE6928680430FFF71AFE07
:103510002868A419446005D3286A29680431FFF794
:103520004FFE08E0E86929680431FFF749FEE86AC0
:10353000844238BFEC6200F07FFE002818BF70BDE7
:103540004EF60450CEF200004FF080510160BFF300
:103550004F8FBFF36F8F70BD40F2D801C2F20001F0
:103560008A6B0260896941607047000040F2D800B0
:10357000C2F20000012101637047000070B5D8B1AC
:1035800040F2D804C2F200040D4621681831FFF75A
:1035900017FEA66920680430FFF7D4FD681C15D01B
:1035A0002068AD19456019D3206A21680431BDE84F
:1035B0007040FFF705BE00BF4FF0500080F3118848
:1035C000BFF36F8FBFF34F8FFEE700BF54F8500B70
:1035D000011D2046BDE87040FFF724BEE069216868
:1035E0000431FFF7EDFDE06A854238BFE56270BD4A
:1035F000F0B581B0C0B140F2D804C2F200040D466B
:10360000216816461831FFF70DFEA76920680430BF
:10361000FFF798FD96B154F8500B011D204601B0FC
:10362000BDE8F040FFF7FEBD4FF0500080F3118879
:10363000BFF36F8FBFF34F8FFEE700BF2068ED1918
:10364000456007D3206A2168043101B0BDE8F0402D
:10365000FFF7B6BDE06921680431FFF7B1FDE06A0C
:10366000854238BFE56201B0F0BD000010B588B0FA
:103670000020CDE9050006A805A904AAFFF774FDFE
:10368000059800283ED0069C002C45D05C21049A69
:10369000079107995C2949D107992063022084F892
:1036A000590007A80021CDE9001042F6D500C0F668
:1036B000000028A100230294FFF750F92046FEF7EE
:1036C000C3FF079840F2D804C2F20004A062B0B170
:1036D00000F02AFE411C33D0012810D14FF05000D9
:1036E00080F31188BFF36F8FBFF34F8F4FF0FF3020
:1036F000E062012020610020A06100F095F808B090
:1037000010BD00BF4FF0500080F31188BFF36F8FE2
:10371000BFF34F8FFEE700BF4FF0500080F31188DA
:10372000BFF36F8FBFF34F8FFEE700BF4FF0500026
:1037300080F31188BFF36F8FBFF34F8FFEE700BF99
:103740004FF0500080F31188BFF36F8FBFF34F8F9E
:10375000FEE700BF49444C450000000040F2D8009D
:10376000C2F20000416901314161704780B540F209
:10377000D80EC2F2000EDEF8141019B10121CEF8F5
:10378000301080BD0021CEF83010DEF8241040F259
:10379000A84C01EB8103C2F2000C5CF823208AB133
:1037A00001EB81020CEB820353F8042F5268181DC1
:1037B00082421A6020D0D068CEF80000CEF82410E3
:1037C00080BD00BF0CEB8302A2F12803E1B15A696E
:1037D00022BB012918D01A6812BB022914D053F851
:1037E000142CFAB903290FD053F8282C0439002AD5
:1037F000A3F15003EAD0D3E752681A60D068CEF83C
:103800000000CEF8241080BD4FF0500080F31188E6
:10381000BFF36F8FBFF34F8FFEE700BF0139BFE7E4
:103820000239BDE70339BBE7B0B584B04EF2004CB6
:10383000CEF2000C4CF27021C4F20F11DCF800291A
:103840004B1C9A420AD14FF0500080F31188BFF30D
:103850006F8FBFF34F8F00BFFEE700BFDCF800297A
:103860008A4209D14FF0500080F31188BFF36F8F67
:10387000BFF34F8FFEE700BF9CF800100291FF21BD
:103880008CF800109CF800108DF807109DF80710B8
:1038900001F0500240F2AC11C2F200010A7007229E
:1038A0004A609DF90720B2F1FF3F69DC032200BFA7
:1038B000D31C4B609DF8070040008DF807009DF970
:1038C0000700B0F1FF3F23DC931C4B609DF807001D
:1038D00040008DF807009DF90700B0F1FF3F17DCAD
:1038E000531C4B609DF8070040008DF807009DF9C0
:1038F0000700B0F1FF3F0BDC4A609DF80700043A77
:1039000040008DF807009DF907000028D0D4131D52
:10391000032B35D14FF44070486002988CF80000BA
:10392000DCF8200940F47000CCF82009DCF820090C
:1039300040F07040CCF82009FFF732FD40F27404EB
:10394000C2F2000400252560FFF77AFC4EF63470C1
:10395000CEF20000016841F040410160FFF792F8AB
:10396000FFF704FF039520684FF0500181F31188A1
:10397000BFF36F8FBFF34F8F013011D0FEE700BF51
:103980004FF0500080F31188BFF36F8FBFF34F8F5C
:10399000FEE700BF039830B9039820B9039810B927
:1039A00003980028F6D0002004B0B0BD80B54FF0D9
:1039B000500080F31188BFF36F8FBFF34F8F00F07B
:1039C00039FB30B14EF60450CEF200004FF080517A
:1039D0000160002080F3118880BD000070B582B0C6
:1039E00070B11C46B3B1F9B9F2B14FF0500080F399
:1039F0001188BFF36F8FBFF34F8F00BFFEE700BF8B
:103A00004FF0500080F31188BFF36F8FBFF34F8FDB
:103A1000FEE700BF4FF0500080F31188BFF36F8FB7
:103A2000BFF34F8FFEE700BF51B14AB94FF05000CE
:103A300080F31188BFF36F8FBFF34F8FFEE700BF96
:103A400050230193019B502B2ED1019B069E0123F5
:103A500084F84630002908BF22462260C4E90F01DD
:103A6000FFF7F8FB2068D4E90F12002502FB0103E1
:103A7000013901FB0201A563C4E90103FF20E160F4
:103A800084F8440084F8450004F11000FFF788FB37
:103A900004F12400FFF784FBFFF700FC204684F8C4
:103AA0004C6002B070BD00BF4FF0500080F3118831
:103AB000BFF36F8FBFF34F8FFEE700002DE9F04F8C
:103AC00083B00292C0B11D4617460E460446E9B1C6
:103AD000022D03D1E06B012840F0888000F094FAB9
:103AE00010BB0FB34FF0500080F31188BFF36F8FFE
:103AF000BFF34F8FFEE700BF4FF0500080F31188F7
:103B0000BFF36F8FBFF34F8FFEE700BF206C00281D
:103B1000DED04FF0500080F31188BFF36F8FBFF3FA
:103B20004F8F00BFFEE700BFFFF794FBA06B022D95
:103B300066D0E16B884263D304F1100801206F4620
:103B40000DF108090DE000BF2046FFF795F900F0E0
:103B500073FBFFF77FFBA06BE16B88424FF0000027
:103B60004ED30299002973D0C00702D03846FFF720
:103B7000F3FCFFF793FBFFF7F1FDFFF76BFB94F806
:103B80004400FF2804BF002084F8440094F8450056
:103B9000FF2804BF002084F84500FFF77FFB38466C
:103BA000494600F073F9002858D1FFF753FBD4F8C9
:103BB00038A0D4F83CB0FFF771FBDA45C4D10299C4
:103BC0004046FFF7DBFC2046FFF756F900F034FBD8
:103BD0000028BED14EF60450CEF200004FF08051C6
:103BE0000160BFF34F8FBFF36F8FB2E74FF050000C
:103BF00080F31188BFF36F8FBFF34F8FFEE700BFD5
:103C0000A76B226CD2B19DB3E0683146FCF7A6FBEE
:103C1000E168206C2268091A9142E16003D2A16830
:103C200040420844E060A81EB0FA80F040093946DE
:103C3000002F18BF012108403F1A26E02068002508
:103C400020BBA06800F078FAA56005461EE000BF22
:103C5000FFF724FB002003B0BDE8F08F2046FFF7FC
:103C60000BF900F0E9FA002003B0BDE8F08F00BFC7
:103C700060683146FCF772FB216CD4E9010208440C
:103C80009042606001D3206860600025781CA063CA
:103C900054F8240FA0B1204600F094FA50B14EF62B
:103CA0000450CEF200004FF080510160BFF34F8FFF
:103CB000BFF36F8FFFF7F2FA012003B0BDE8F08F7A
:103CC000002DF7D04EF60450CEF200004FF0805198
:103CD0000160BFF34F8FBFF36F8FFFF7DFFA012053
:103CE00003B0BDE8F08F00002DE9F04F83B00292E1
:103CF00090B116460D460446002947D000F084F9DD
:103D0000A0B99EB14FF0500080F31188BFF36F8FC0
:103D1000BFF34F8FFEE700BF4FF0500080F31188D4
:103D2000BFF36F8FBFF34F8FFEE700BFFFF792FA2D
:103D3000D4F838A0BAF1000F36D0226C52B1D4E9D1
:103D400002308118E160994224BF2168E160284671
:103D5000FCF704FBAAF10100A06354F8100F70B146
:103D6000204600F02FFA50B14EF60450CEF200007B
:103D70004FF080510160BFF34F8FBFF36F8F01246D
:103D8000FFF78CFA204603B0BDE8F08F206C0028C6
:103D9000B4D04FF0500080F31188BFF36F8FBFF3A2
:103DA0004F8F00BFFEE700BF04F1240801206F46DB
:103DB0004FF000090DF1080B2EE000BFFFF76EFA7F
:103DC000FFF7CCFCFFF746FA94F84400FF2808BF41
:103DD00084F8449094F84500FF2808BF84F8459083
:103DE000FFF75CFA3846594600F050F8E0B120463B
:103DF000FFF742F800F020FAFFF72CFAA66BFFF766
:103E00004DFA002E3CD0FFF725FAD4F838A0002058
:103E1000BAF1000F7FF491AF029949B3C007CDD03A
:103E20003846FFF799FBC9E7FFF714FAA66BFFF7CF
:103E300035FA2EB12046FFF71FF800F0FDF9E2E752
:103E400002994046FFF79AFB2046FFF715F800F06D
:103E5000F3F90028D7D14EF60450CEF200004FF00F
:103E600080510160BFF34F8FBFF36F8FCBE700BF6F
:103E70000024FFF713FA204603B0BDE8F08F00BF1F
:103E80000024204603B0BDE8F08F0000B0B5D8B1E3
:103E90000D4619B30446FFF7DDF940F2D80CC2F223
:103EA000000CDCF8182029684B1C21D0D4E9000E46
:103EB000DCF83830834221D072451FD30124FFF74C
:103EC000EDF92046B0BD00BF4FF0500080F31188DF
:103ED000BFF36F8FBFF34F8FFEE700BF4FF050006F
:103EE00080F31188BFF36F8FBFF34F8FFEE700BFE2
:103EF0000024FFF7D3F92046B0BD00BFA2EB0E02AD
:103F000091420DD9881A2860DCF838002060DCF86E
:103F1000180060600024FFF7C1F92046B0BD00BF63
:103F2000002001242860FFF7B9F92046B0BD000049
:103F30002DE9F04383B00746900098461546894620
:103F4000FEF7D4FFF8B106465C20FEF7CFFFB8B10C
:103F50000446DDE90A100022266384F85920CDE9E1
:103F60000010384649462A4643460294FEF7F6FCBE
:103F70002046FEF769FB012003B0BDE8F08300BFD7
:103F80003046FFF7A3F94FF0FF3003B0BDE8F083F0
:103F900070B586B00B9CCCB10C9E0EB35C2504951D
:103FA000049D5C2D26D1049DDDF828C0022586F8ED
:103FB000595005AD3463CDE900C50296FEF7CEFC3D
:103FC0003046FEF741FB059806B070BD4FF050003B
:103FD00080F31188BFF36F8FBFF34F8FFEE700BFF1
:103FE0004FF0500080F31188BFF36F8FBFF34F8FF6
:103FF000FEE700BF4FF0500080F31188BFF36F8FD2
:10400000BFF34F8FFEE7000040F2D800C2F200007D
:10401000016900290FBF01204069B0FA80F0400912
:1040200018BF40007047000040F2D800C2F2000004
:10403000806970472DE9F04381B040F2D806C2F2A2
:104040000006706940B1706B002401307063204637
:1040500001B0BDE8F08300BFB06910F10109C6F8F6
:10406000189020D3F069006850B14FF0500080F3F1
:104070001188BFF36F8FBFF34F8F00BFFEE700BF04
:10408000F069316AF1613062B06B0130B063F069A0
:10409000006828B1F069C068C068406802E000BFED
:1040A0004FF0FF30F062F06A40F2A8488145C2F25A
:1040B000000801D200242EE0F0690024006813E01B
:1040C000F86A716A884288BF706200EB800008EB72
:1040D00080002946FFF7A6F8F86A3168C96AF269D4
:1040E000884228BF0124106890B1F069C068C76891
:1040F0003D4655F8040F81450CD32846FFF722F8BA
:10410000B86A0028DCD007F11800FFF71BF8D7E7E2
:104110004FF0FF30F0623068C06A00EB800058F862
:104120002000012888BF0124306B002818BF01241B
:10413000204601B0BDE8F08370B588B140F2D806E2
:10414000C2F2000604463068A0420BD04FF0500087
:1041500080F31188BFF36F8FBFF34F8FFEE700BF6F
:10416000002070BD206D18B3411EE06AE26C21652D
:1041700090424FF0000008BF70BDC1B9251D284610
:10418000FEF7E0FFE06CC0F13801E062A161716A06
:10419000884240F2A84188BF706200EB8000C2F202
:1041A000000101EB80002946FFF73CF8012070BDBB
:1041B0004FF0500080F31188BFF36F8FBFF34F8F24
:1041C000FEE7000070B5C068C5686DB105F1180460
:1041D0002046FEF7B7FF40F2D806C2F2000670692B
:1041E00060B106F164001AE04FF0500080F31188CE
:1041F000BFF36F8FBFF34F8FFEE700BF2C1D20462C
:10420000FEF7A0FFE86A716A884240F2A84188BFC1
:10421000706200EB8000C2F2000101EB80002146D9
:10422000FFF700F8E86A3168C96A884292BF002047
:104230000120306370BD00002DE9F04140F2D80547
:10424000C2F20005686968B1FFF704F868690138CF
:104250006861686980B10024FFF720F82046BDE856
:10426000F08100BF4FF0500080F31188BFF36F8FD3
:10427000BFF34F8FFEE700BFE8680028EBD0686E01
:1042800088B340F2A846C2F200064FF0010800BF12
:10429000286FC76807F11800FEF754FF3C1D204641
:1042A000FEF750FFF86A696A884288BF686200EBCF
:1042B000800006EB80002146FEF7B4FFF86A29680B
:1042C000C96A884228BFC5F83080686E0028DFD1EF
:1042D000E869006820B1E869C068C068406801E02A
:1042E0004FF0FF30E8626C6B4CB10126FFF7A2FE85
:1042F000002818BF2E63013CF8D100206863286BAA
:104300000028A8D04EF60450CEF200004FF08051A5
:104310000160BFF34F8F0124BFF36F8FFEF7BEFF25
:104320002046BDE8F081000070B586B0FEF792FF30
:1043300040F25016C2F20006306808BB06F11404C1
:104340002046FEF72DFF06F128052846FEF728FF38
:1043500040F2B83240F25843C6E902450025C2F2A5
:104360000002C2F200030A2010210095FFF736FB7D
:10437000306028B146F2C001C0F60001FFF72AF80C
:10438000FEF78CFF3068D8B10020CDE9040005A805
:1043900004A903AAFEF7F6FEDDE903200221059D2C
:1043A000CDE9001042F6ED20C0F6000009A100237F
:1043B0000295FFF7EDFD706010B1012006B070BDF1
:1043C0004FF0500080F31188BFF36F8FBFF34F8F12
:1043D000FEE700BF546D72205376630003B401986A
:1043E0004100009850EAC12018BF04204A0D18BFB0
:1043F00040F0010040F2FF72B2EB515F08BF40F0A5
:104400000200012808BF052002B07047000000002C
:104410002DE9F04D2DED040B2DED0E8B94B0DDE963
:104420002350259CDDF888A025F0004624F00048A4
:10443000BAF1000F14BF0121002101EB4502FC4934
:1044400053184A1093422AD3002814BF0123002393
:1044500003EB44030B44F7498B4220D358EA000195
:104460009FEDF5AB76D0DFF8D8B35D4503D1BAF157
:10447000000F05D188E0BAF1000F08BF002100D07D
:10448000012101EB450111F5001F08D8002814BFD8
:104490000121002101EB440111F5001F0BD99DED15
:1044A000241B9DED220B14B0BDEC0E8B04B0BDE8B7
:1044B000F04D00F071BE0027002DBCBFE1498845DA
:1044C00021DAE1498845A8BF02271CDAC3451ADC76
:1044D000DE4901EB2851142908DDC1F1340220FA2C
:1044E00002F101FA02F282420DD108E058B9C1F19D
:1044F000140228FA02F101FA02F2424503D101F056
:104500000101C1F1020756EA0A0124D1002C22DA86
:10451000002D18BF022F01D0012F0AD00220FBF777
:10452000ACFF14B0BDEC0E8B04B0BDE8F04D00F054
:104530001BBE0220FBF7A1FF00F016FE51EC100B92
:1045400000F0A9FE41EC100B14B0BDEC0E8B04B0D2
:10455000BDE8F08D18E09FEDBE9B9FEDBF8B00285E
:1045600071D1B848804522D105F1804010F5801006
:1045700008BFBAF1000F07D0B3450ADC002CA8BF72
:104580009DED240BE0DA0DE0B0EE4A0AF0EE6A0A87
:10459000DAE7002C06DA9DED240B51EC100B00F04D
:1045A0007AFE6FE0AE48784490ED000BCCE7D8453A
:1045B0004DD1002C48DA2EB186423AD1BAF1000F23
:1045C00042D126E0BAF1000F13D00220FBF755FFCD
:1045D00000F0FEFD8DED020B9DED220B8DED000B2D
:1045E00010EE900A039961F31E0003909DED020BFB
:1045F000AAE78DED029B9DED220B19EE901A10EEAD
:10460000900A8DED000B61F31E0003909DED020BEF
:104610009AE78DED028B9DED220B18EE901A10EEAD
:10462000900A8DED000B61F31E0003909DED020BCF
:104630008AE709DA9DED220B51EC1A0B53EC102B93
:1046400000F024FF1EE020E09DED220B7CE7864277
:104650001BDAB4F1804F0DD0A4F10050B0F1FF503F
:1046600013D1002D11DB9DED220B51EC100B00F04E
:10467000DBFD07E09DED220B53EC102B51EC100BF2
:1046800000F0CABC41EC100B5EE79DED220B51EC33
:10469000100B00F0BDFDBAF1000FCDE90A0142D1C7
:1046A0009FED710B46B3A6F1E040B0F17F600CD0F6
:1046B0005E4538D1002D00DAA7B3022F0CBF0120D0
:1046C0004FF0FF3001F03CF8DCE7002D01DD002C5D
:1046D0000DDA002D01DD002C1FDB002D16DA002C79
:1046E00014DB012F08BF9FED620B3FF42DAFB0EE3E
:1046F000490AF0EE690A27E7022F18BF002D0CD0F7
:10470000012F0AD1002DFFF61FAF06E0002DB8BF24
:10471000002C08DA012F3FF417AFB0EE480AF0EE94
:10472000680A11E71BE0012000EBE57050EA070181
:1047300015D0791EB0EE4A8AF0EE6A8A084308BFA7
:104740009FED4D8B4E480025804570DD4D494E480C
:10475000884514DDB0420DDB002C19DB2FE0012071
:10476000FBF78BFE14B0BDEC0E8B04B0BDE8F04D32
:1047700000F01EBDB34502DC002C09DC1FE08642C0
:1047800002DA002C1BDA03E05E452BDD002C16DD7F
:104790000220FBF772FE00F01BFD8DED020B53ECC7
:1047A000192B51EC180B01F01FF8CDE9000103990A
:1047B000019861F31E0003909DED020BC4E60220F8
:1047C000FBF75BFE00F014FD10EE901A18EE900A55
:1047D0008DED020B8DED008B61F31E0003909DEDBE
:1047E000020BB1E69DED0A0B53EC1A2B51EC100BAA
:1047F00001F006FA9FED260BCDE90A0153EC102BD0
:104800009DED0A0B51EC100B00F0EEFF9FED221B0B
:1048100053EC112B01F01CF99DED0A1B53EC112BED
:1048200000F0E2FF9FED1E1B53EC112B3CE08CE0EF
:10483000FFFF1F00FFFF0F00000000000000F03F1F
:104840000000F03F0000F07F0000404301FCFFFF4C
:10485000000000000000F07F0000000000000000E9
:10486000B61A0000000000000000000000000080F8
:10487000000000000000F0FF000000000000F0BF9A
:104880000000E0410000F043FFFFEF3F00000000A8
:10489000000000000000D03F555555555555D53FF7
:1048A000000000000000E03F01F0D2F89DED0A0B8F
:1048B00041EC190B53EC102B51EC100B00F094FF52
:1048C00053EC192B00F090FF9DED0A0B41EC1B0BF4
:1048D00053EC102B9FEDFE0B51EC100B00F084FFFE
:1048E00041EC190B9FEDFC0B51EC1B0B53EC102B07
:1048F00000F07AFF41EC1B0B9FEDF90B53EC102BF2
:104900009DED0A0B51EC100B00F06EFF53EC1B2BCE
:1049100001F076F941EC1B0B51EC190B53EC1B2BFE
:1049200000F0F8FC0490CDE904519DED040B53EC2C
:10493000192B51EC100B01F063F953EC1B2B01F018
:1049400087F841EC100B00F0A9B90020B6F5801FE4
:104950000EDA9FEDE50B53EC102B9DED0A0B51EC9D
:10496000100B00F041FFCDE90A016FF034000E4654
:1049700000EB2650A0F2FF37C6F31300DC4940F0ED
:104980007F6646F040568842D8BF002408DDD949EA
:104990008142C8BF012403DC0024A6F580167F1CD9
:1049A000D548784400EBC4080B9698ED000B53EC07
:1049B000102B9DED0A0B51EC100B01F021F998ED35
:1049C000000B41EC1B0B53EC102B9DED0A0B51EC33
:1049D000100B00F09FFC41EC100B51EC1A0B53EC48
:1049E000102B00F053FD41EC1C0B51EC1B0B53EC56
:1049F0001C2B00F0F9FE41EC190BC0488DED0E9B0D
:104A000078440E9590ED000B4FF0005040EA6600A0
:104A100000EB84408DED120B00F50020139098ED13
:104A2000000B53EC102B9DED120B51EC100B01F011
:104A3000E7F89DED0A1B53EC112B01F009F841EC4E
:104A4000100B53EC102B9DED0E0B51EC100B00F0E6
:104A5000CBFE9DED120B41EC1D0B53EC102B9DED8D
:104A60000E0B51EC100B00F0BFFE53EC1B2B00F0B3
:104A7000EFFF53EC1D2B01F0C3F853EC1C2B00F09F
:104A8000B3FE41EC1C0B53EC192B51EC190B00F04D
:104A9000ABFE41EC1B0B9A480621B0EE4B0AF0EE40
:104AA0006B0A784400F0E4FAB0EE401AF0EE601AB7
:104AB000B0EE41DAF0EE61DA53EC1B2B51EC1B0B3C
:104AC00000F092FE53EC1D2B00F08EFE9DED0E0BC0
:104AD00041EC1B0B53EC192B51EC100B00F01AFCA2
:104AE00053EC1C2B00F080FE53EC1B2B00F012FC4F
:104AF0009DED0E0B41EC1B0B53EC102B51EC100BEE
:104B000000F072FE41EC1D0B53EC1D2B9FED7EEB74
:104B100051EC1E0B00F0FEFB53EC1B2B00F0FAFBDC
:104B20001290CDE912519DED120B53EC1E2B51EC5E
:104B3000100B01F065F853EC1D2B01F061F853ECFC
:104B40001B2B00F085FF9DED120B41EC1D0B53EC70
:104B5000102B9DED0E0B51EC100B00F045FE41ECBF
:104B60001B0B53EC192B51EC1D0B00F03DFE9DED82
:104B7000120B41EC190B53EC102B51EC1C0B00F0F9
:104B800033FE53EC192B00F0C5FB41EC190B51EC33
:104B90001B0B53EC192B00F0BDFB0490CDE9045125
:104BA0009DED040B53EC1B2B51EC100B01F028F87E
:104BB00053EC192B00F04CFF9DED040B41EC190B4D
:104BC00053EC102B9FED520B51EC100B00F00CFE30
:104BD00041EC1B0B9FED500B51EC190B53EC102BC0
:104BE00000F002FE9DED040B41EC190B53EC102B71
:104BF0009FED4B0B51EC100B00F0F6FD53EC192B15
:104C000000F088FB41EC100B4748784400EBC400EF
:104C100090ED001B51EC100B53EC112B00F07AFBC4
:104C200041EC190B384600F08BFDCDE90A0153EC3D
:104C3000192B51EC1B0B00F06DFB41EC100B3B48AA
:104C4000784400EBC40451EC100B94ED001B53ECC2
:104C5000112B00F05FFB9DED0A1B53EC112B00F0B4
:104C600059FB0490CDE904519DED0A0B53EC102B38
:104C70009DED040B51EC100B00F0C2FF94ED001BF6
:104C800053EC112B00F0BCFF53EC1B2B00F0B8FFD2
:104C900053EC192B00F0DCFE41EC100B9DED241BB6
:104CA00053EC102B8DED001B00959DED240B51EC6A
:104CB000100B00F099FD9DED000B41EC190B53EC2E
:104CC000102B9DED240B51EC100B00F099FF2FE001
:104CD000000000604715F73FFE822B654715F73F40
:104CE00044DF5DF80BAE543E00000000000040437E
:104CF0008E9803007AB60B00321600005C16000096
:104D000062150000000000000000000000000840E4
:104D1000000000E009C7EE3FFD033ADC09C7EE3FA3
:104D2000F5015B14E02F3EBEEA130000A41300005F
:104D30009DED041B53EC112B00F056FD53EC192B89
:104D400000F0E8FA9DED040B41EC190B53EC102B2D
:104D50009DED000B51EC100B00F046FDCDE9040178
:104D60009DED040B51EC190B53EC102B00F0D2FA13
:104D7000CDE902010C46AA498C422FDB611A084397
:104D800018D19DED040B53EC102B9DED020B51EC53
:104D9000100B00F035FF41EC1B0B9FEDA30B51EC0A
:104DA000190B53EC102B00F0B5FA53EC1B2B00F051
:104DB00019FE2DD20220FBF760FB00F009FA10EE7D
:104DC000901A18EE900A8DED020B8DED008B61F3B9
:104DD0001E0003909DED020BFFF7B6BB944A24F032
:104DE0000041914214D39349214408437FF4E7AC36
:104DF0009DED040B53EC102B9DED020B51EC100BB1
:104E000000F0FEFE53EC192B00F0ECFD7FF6D7AC62
:104E100024F000408849894A002601EB2051824253
:104E20002BDA481C4FF4801121FA00F02044844A08
:104E3000C0F30A517A44A1F2FF3192ED000B814A8E
:104E40008DED0A0BCA4020EA0202C0F3130040F4C1
:104E50008010C1F1140120FA01F60B92002CB8BFAA
:104E600076429DED0A0B53EC102B9DED040B51EC9B
:104E7000100B00F0C5FECDE904019DED040B51ECD3
:104E8000190B53EC102B00F045FA9FED6F0B0A90B5
:104E9000CDE90A5153EC102B9DED0A0B51EC100B90
:104EA00000F0A2FC41EC1B0B9FED690B53EC102BA7
:104EB0009DED0A0B51EC100B00F096FC9DED040BE0
:104EC00041EC1C0B53EC102B9DED0A0B51EC100B1D
:104ED00000F096FE53EC192B00F0BAFD9FED5E1B1F
:104EE00053EC112B00F080FC53EC1C2B00F012FA59
:104EF00041EC190B51EC1B0B53EC192B00F00AFA87
:104F0000CDE902019DED020B53EC1B2B51EC100B74
:104F100000F076FE53EC192B00F09AFD9DED020B8C
:104F200041EC190B53EC102B51EC100B00F05CFC16
:104F3000CDE90A014A489DED0A0B0521784400F0AD
:104F400097F89DED0A1B51EC100B53EC112B00F060
:104F50004BFC9DED021B53EC112B00F079FDCDE9CC
:104F600004019DED020B53EC192B51EC100B00F0DA
:104F70003BFC53EC192B00F0CDF99FED3B0B41ECC2
:104F8000190B53EC102B9DED040B51EC100B00F0A2
:104F900037FE9DED040B41EC1B0B53EC102B9DEDEC
:104FA000020B51EC100B00F01FFC53EC1B2B00F01C
:104FB0006DFA53EC192B00F023FE9DED021B53EC10
:104FC000112B00F01DFE53EC1A2B00F041FDCDE932
:104FD000020101EB065001150029C8BF039015DC42
:104FE0009DED020B324651EC100B00F0ACFFFFF7C9
:104FF000F5F9042808BF00F0FBF832469DED020BDE
:1050000051EC100B00F09FFFCDE902019DED020B6A
:1050100051EC180B53EC102B00F0E6FBFFF732BB02
:105020000000904000000000FE822B654715973C71
:1050300000CC904000346F3F01FCFFFF0000E03FD8
:1050400028120000FFFF0F0000000000432EE63F83
:10505000396CA80C615C20BEEF39FAFE422EE63FA7
:10506000F8100000000000000000000000000040F8
:1050700070B504462DED028B4D1E00EBC500B0EE61
:10508000408AF0EE608A90ED000B35F0060017D0F4
:1050900053EC182B51EC100B00F0A6FB41EC100B5D
:1050A0006D1E04EBC50090ED001B51EC100B53EC92
:1050B000112B00F02FF941EC100B35F00600E7D171
:1050C000022D36D0042D1CD0062D1CBFBDEC028B4A
:1050D00070BD53EC182B51EC100B00F085FB94EDD8
:1050E0000A1B53EC112B00F015F953EC182B00F0B0
:1050F0007BFB94ED081B53EC112B00F00BF941ECFA
:10510000100B53EC182B51EC100B00F06DFB94EDD1
:10511000061B53EC112B00F0FDF853EC182B00F09C
:1051200063FB94ED040B53EC102B00F0F3F841EC0F
:10513000100B53EC182B51EC100B00F055FB94EDB9
:10514000021B53EC112B00F0E5F853EC182B00F088
:105150004BFB94ED001B53EC112B00F0DBF8BDEC86
:10516000028B41EC100B70BD9FED070B10B553EC9B
:10517000102B9FED070B51EC100B00F087F941EC61
:10518000100B10BD00000000000000000000000037
:10519000000000000000F03F10B553EC112B51EC63
:1051A000100B00F0B7F841EC100B10BD0000000030
:1051B0009FED050B10B553EC102B51EC100B00F0CC
:1051C00065F941EC100B10BD00000000000000006C
:1051D0009FED050B10B553EC102B51EC100B00F0AC
:1051E00003FB41EC100B10BD00000000000000703C
:1051F0009FED050B10B553EC102B51EC100B00F08C
:10520000F3FA41EC100B10BD00000000000000108C
:1052100082B0CDE9000121F0004001909DED000B2E
:1052200002B051EC100B704700B52DED048B83B02C
:1052300041EC190B00F018FC41EC180B18EE100AA9
:1052400018EE901A8DED008B002818BF012008433E
:1052500020F00040C0F17F6000F1E040C00F14D0AA
:1052600019EE101A19EE900A8DED009B002918BF57
:105270000121084320F00040C0F17F6000F1E040D0
:10528000C00F04BF0120FBF7F8F851EC180B03B076
:10529000BDEC048B00BD81F00041704780F0004000
:1052A000704721F00041704720F000407047000037
:1052B00021F0004201F00043A2F16052B2F5801FDC
:1052C00028BFD2F17F6C0BD95FEA001C43EAC2020F
:1052D00042EB507018BF704728BF20F001007047A4
:1052E000B2F5801FBCBF184670474FEA410C1CF551
:1052F000001F02D2084600F0EFBD70B500F01EFBA3
:1053000000000089FFF7F6BF4FF00040A0F58000D5
:105310007047000010B591EA030F48BF83F00043C7
:1053200000F17684841A71EB030C05D2121943EB59
:105330000C03001B61EB0C014FEA1154A4EB135C4E
:10534000DFF81CE11EEA430F18BF9EEA445F00F03D
:10535000748021EA045123EA0E0343F48013DCF144
:10536000200E32D322FA0CFE10EB0E0023FA0CFEB4
:1053700041EB0E01CCF1200E03FA0EFE10EB0E00F5
:10538000CCF1200E51F10001B1F5801F32D201EBBA
:10539000045112FA0EF2BDE8104058BF7047401C8D
:1053A00038BF5FEA420218BF7047002814BF20F0E0
:1053B000010041F100014FEA410313F5001F38BF1E
:1053C0007047A1F1C04100F007BB012A43EB030283
:1053D000ACF1200CDCF11F0E32BF4FF0000E23FAAF
:1053E0000CF310EB030041EB0451B4EB115FD0D090
:1053F000A1EB045101F58011490801EB04515FEA6A
:1054000030000ED350F1000038BF12FA0EFE08D162
:10541000BDE81040C9E7401C38BF5FEA4202CAD16C
:10542000C3E7BDE810404FEA410313F5001F38BF42
:105430007047A1F1C04100F0CFBA9EEA445F08D0A6
:1054400011EA5E0FBDE8104004BF01F000410020EA
:105450007047BDE8104070B500F070FA64FBBE3EC6
:105460000000E0FF02494FF0000000F03ABD00BF2D
:105470000000F87F491058BFC1F140415B1058BF90
:10548000C3F140438B42EFF3008070472DE9C041E8
:1054900030B4DFF8A4C23CEA111418BF3CEA13147C
:1054A00000F0ED801CEA111481EA030544EAD5748A
:1054B00018BF1CEA131500F0C880A4EB050404F122
:1054C0007F7404F500344FF0004545EAC12145EAF8
:1054D000C32341EA505143EA52534FEAC0204FEAF6
:1054E000C222994208BF904200F09D804FEA1365A6
:1054F0000FF24416765D4FEA134506FB05F7C7F138
:10550000807706FB07F74FEAD737A7FB0368764299
:10551000A7FB06CEC8F5803838BFA8F1010807FB05
:1055200008E6A6FB028C4FF0000EE6FB03CEDCF192
:10553000000CCEF1004E38BFAEF1010EA6FB0C58A8
:105540004FF00007E6FB0E87A1FB08C6A0FB07CEC5
:1055500016EB0E064FF0000545F10005E1FB07656F
:1055600015F1E04E7EBFA4F580345FEA46066D413A
:1055700016F1800745F100054FEA172747EA05674E
:105580004FEA15254FEA0666A6F1DE46B6F1805FC2
:1055900020D9384605EBC47124F0010C01EB0C1145
:1055A000BCF1FE6F02D8F0BCBDE8008124425CBFB4
:1055B00001F5801E9EEAC47F02D4F0BCBDE80081E4
:1055C000244200F13980A1F1C041F0BCBDE80041A6
:1055D00000F002BA4FEAD02040EA41504FEAD12110
:1055E0004FEAD22242EA43524FEAD323A7FB028674
:1055F00007FB036605FB02661EEA0E0F58BFA6EB0B
:105600000056B6EB00564FEA520E4EEAC37E18EB38
:105610000E0E56EB530EBCD518EB02085E417F1CF4
:1056200055F10005B5E74FF480154FF000074FF036
:1056300000064FF00008ACE701F1C04101F0004165
:105640004FF00000F0BCBDE800810CEA131511EA30
:105650000C1F00D00CE013EA0C1F00F026804FF066
:10566000000081EA030101F00041F0BCBDE80081C7
:10567000F0BCBDE8004181EA030100F0ADB9F0BC27
:10568000BDE8004170B500F059F900BF097EFC3E4D
:1056900000F007B84FF0000081EA030101F000417B
:1056A000704781EA030100F097B9F0BCBDE8004102
:1056B00022494FF000007047FFFDFBF9F7F5F4F2C7
:1056C000F0EEEDEBE9E8E6E4E3E1E0DEDDDBDAD89D
:1056D000D7D5D4D3D1D0CFCDCCCBCAC8C7C6C5C4FB
:1056E000C2C1C0BFBEBDBCBBBAB9B8B7B6B5B4B312
:1056F000B2B1B0AFAEADACABAAA9A8A8A7A6A5A4FD
:10570000A3A3A2A1A09F9F9E9D9C9C9B9A999998C0
:105710009797969595949393929191908F8F8E8E63
:105720008D8C8C8B8B8A89898888878786858584F0
:1057300084838382828181800000FF070000F87FDC
:1057400010F0004248BF4042B0FA80F310FA03F173
:105750000AD0C3F11D0303F5806302EB03524FEA45
:10576000415002EBD12170474FF00000704700001C
:1057700051EA030C17D41CF5801F58BFBCF5801FDD
:1057800000F10680994218BF704708BF90427047E9
:1057900007D711F5801F58BF13F5801F19D4994200
:1057A0007047894270471CF5801F08D5BCF5801FE3
:1057B000F7D58B4218BF704708BF824270474FF43D
:1057C000001C1CEB410F38BF1CEB430F01D28B4276
:1057D000704770B500F0B2F8922449004FF00051C4
:1057E0004FF08053FFF746BE70B5DFF848C11CEAA2
:1057F000111E1EBF1CEA13159EEA0C0F95EA0C0F32
:1058000000F06F8081EA03044EEAD47EAE4421EAC0
:105810004C1123EA4C1341F4801143F48013AEF190
:105820007F7EA1FB024CA0FB0365361955EB0C05EE
:10583000A1FB034C4CF10003A0FB021C16EB0C0671
:10584000654153F10003094218BF46F0010613F405
:10585000007F0BD14FEA03314FEA053041EA155181
:1058600040EA165034036FF003020AE04FEAC32106
:105870004FEAC52041EA555140EA5650F4026FF014
:10588000020202EB2E4201EB025585EACE710AD0EC
:105890005FEA440C18BF24F0004450F1000041F1CD
:1058A000000120EAD47040F2FE7C624500D270BD57
:1058B000A84214BF4FF080444FF04044002E08BF70
:1058C0000024BEF1806FA8BFA1F1C041BDE87040C7
:1058D00080F2828001F1C04101F000414FF00000F0
:1058E00070470CEA13159EEA0C0F18BF95EA0C0FCF
:1058F00006D081EA030E4FF000000EF0004170BDAB
:1059000000F01CF88900013E00F007B800F009B86B
:105910004FEA430C5FEA5C5C08D081EA030100F0C7
:105920005BB84FEA410C5FEA5C5CF6D102494FF08C
:10593000000070470000FF070000F87F0EF1020E24
:105940002EF0030E5EF8046B364205D4012A43EBB9
:10595000030515F5001F12D8012841EB010C1CF5B9
:10596000001F0CD80ED14FEAD17C0CEB4C0C0CF183
:10597000020C15F5001F08BF4CEBD37C04E04FF080
:10598000080C01E04FEAD37C0CEB4C0526FA05F637
:1059900006F00706B6F1040C06D20EEB860CBDE845
:1059A00070404CF0010C6047DFE80CF0090B02027C
:1059B0004FF00041A1F500214FF0000070BD1946E5
:1059C0001046012851EB010418BFD4F5001484BF20
:1059D000002001F0004170BD0808A0F500114FEA59
:1059E0003101704753EA010C17D41CF5801F58BFD2
:1059F000BCF5801F00F106808B4218BF704708BFBE
:105A00008242704707D713F5801F58BF11F5801FDA
:105A100019D48B4270479B4270471CF5801F08D5F4
:105A2000BCF5801FF7D5994218BF704708BF904258
:105A300070474FF4001C1CEB430F38BF1CEB410FA9
:105A400001D2994270470FB40CBC03BCFFF7C1BE32
:105A500010B591EA030F81F000413FF563AC83F08C
:105A6000004300F0D5B800002DE9F04101F5801C9D
:105A7000BCF5001FC0F2A9804FEA115C21EA0C516D
:105A800041F480110CF1FD0C5FEA5C0C0CF5C07C5C
:105A900001D340004941890241EA905187022EA476
:105AA0008E0EA45D0A0C04FB04F602FB06F6C6F19A
:105AB0004046A4FB0662F60D46EA422606FB06F4C3
:105AC000A4FB01235242C3F1404338BF5B1EA6FB37
:105AD00002420024E6FB0324D20B42EA4446A6FB22
