:020000040800F2
:10000000585400202D020008F1230008792200082E
:10001000ED23000869050008E9270008000000003A
:100020000000000000000000000000009125000812
:10003000790500080000000001240008BD25000823
:10004000470200084702000847020008470200086C
:10005000470200084702000847020008470200085C
:10006000470200084702000847020008470200084C
:10007000470200084702000847020008470200083C
:10008000470200084702000847020008470200082C
:100090006D050008470200084702000847020008F3
:1000A000470200084702000847020008470200080C
:1000B00047020008470200084702000847020008FC
:1000C00047020008470200084702000847020008EC
:1000D00047020008470200084702000847020008DC
:1000E00047020008470200084702000847020008CC
:1000F00047020008470200084702000847020008BC
:1001000047020008470200084702000847020008AB
:100110004702000847020008992600084702000825
:10012000470200084702000847020008470200088B
:10013000470200084702000847020008470200087B
:10014000470200084702000847020008470200086B
:10015000470200084702000847020008470200085B
:10016000470200084702000847020008470200084B
:10017000470200084702000847020008000000008C
:10018000470200084702000800F002F800F03EF8BD
:100190000AA090E8000C82448344AAF10107DA45E2
:1001A00001D100F033F8AFF2090EBAE80F0013F0F6
:1001B000010F18BFFB1A43F001031847F06D000050
:1001C000106E0000103A24BF78C878C1FAD85207E0
:1001D00024BF30C830C144BF04680C6070470000C1
:1001E0000023002400250026103A28BF78C1FBD840
:1001F000520728BF30C148BF0B6070471FB506F0DB
:10020000CAFD00F023F91FBD10B510BD00F076F94E
:100210001146FFF7F3FF03F0B7F800F094F903B4C9
:10022000FFF7F2FF03BC00F097F900000948804790
:1002300009480047FEE7FEE7FEE7FEE7FEE7FEE7C8
:10024000FEE7FEE7FEE7FEE704480549054A064BE0
:10025000704700008526000889010008584E0020DC
:1002600058540020585000205850002053EA020CE7
:1002700000F069802DE9F04B4FF00006002B1FBF06
:10028000B3FA83F503FA05F424FA05F65E4012BFCB
:100290001643B2FA82F502FA05F4C5F120051EBF35
:1002A00022FA05FC44EA0C04203556EA044C4FEAD5
:1002B000144418BF641C4FF000084FF0000990422E
:1002C00071EB030C39D3002919BFB1FA81F701FA98
:1002D00007F6B0FA80F700FA07F6C7F120071EBF4D
:1002E00020FA07FC46EA0C062037B6FBF4FCA7EB25
:1002F0000507103F07F01F0BCBF120062CFA06F67E
:100300000CFA0BFB44BFB3460026202FA4BF5E4669
:100310004FF0000B5BEA060C08BF4FF0010B19EB26
:100320000B0948EB0608ABFB027C06FB02CC0BFB7F
:1003300003CCC01B71EB0C01C1E70B4602464146E2
:100340004846BDE8F08B13B5084318BF4FF0FF30A7
:100350000146AFF30080BDE81C407047032A40F21D
:10036000308010F0030C00F0158011F8013BBCF157
:10037000020F624498BF11F801CB00F8013B38BF6F
:1003800011F8013BA2F1040298BF00F801CB38BF7D
:1003900000F8013B11F0030300F07580083AC0F04B
:1003A000088051F8043B083A51F804CBA0E8081043
:1003B000F5E7121D5CBF51F8043B40F8043BAFF376
:1003C0000080D20724BF11F8013B11F801CB48BFD0
:1003D00011F8012B24BF00F8013B00F801CB48BF06
:1003E00000F8012B704702F0FF0343EA032242EAC0
:1003F000024200F002B84FF0000200B513469446E6
:100400009646203922BFA0E80C50A0E80C50B1F16C
:100410002001BFF4F7AF090728BFA0E80C5048BF80
:100420000CC05DF804EB890028BF40F8042B08BF1E
:10043000704748BF20F8022B11F0804F18BF00F81A
:10044000012B7047704770477047000070B5064C2D
:100450007C44064D7D4404E0204601680844804702
:10046000241DAC42F8D170BD786B0000786B0000A1
:1004700010B500F03BF8006810BD10B5044600F060
:1004800035F8046010BD10B5203AC0F00B80B1E81B
:100490001850A0E81850B1E81850A0E81850203AB9
:1004A000BFF4F5AF5FEA027C24BFB1E81850A0E8C2
:1004B000185044BF18C918C0BDE810405FEA827CDC
:1004C00024BF51F8043B40F8043B08BF7047D207F3
:1004D00028BF31F8023B48BF11F8012B28BF20F894
:1004E000023B48BF00F8012B7047000000487047EE
:1004F000A000002000487047A00000207546FFF7CC
:10050000F9FFAE4605006946534620F007008546D0
:1005100018B020B5FFF798FEBDE820404FF0000668
:100520004FF000074FF000084FF0000BAC46ACE86E
:10053000C009ACE8C009ACE8C009ACE8C00921F0CA
:1005400007018D46704710B50446AFF30080204682
:10055000BDE81040FFF763BE01491820ABBEFEE7BF
:100560002600020070470000FEE7000040F218205D
:10057000C2F2000000F07EB97047000072B600BF02
:10058000FEE7000090F82020013A012A08D8006810
:1005900000F114020020136819431160704700BF76
:1005A00000F1240201204FF48021136819431160E7
:1005B0007047000010B590F820E0D0F800C0AEF110
:1005C000010EBEF1010FDCF808E011D81EF0E05F6B
:1005D00018D0CEF3016E012000FA0EF018608B687F
:1005E000D3B14868CC6844EAC000034318E000BFB8
:1005F00000F1240101204FF480220B681A430A60A5
:1006000010BD00BF00F1240101204FF400120B685F
:100610001A430A6010BD00BF0868CB6843EA405324
:100620000CEB0E10C0F880310B69C0F88431097DE5
:10063000012905D100F5C2710B6843F480730B608A
:100640005168C0F88C11126800F5C071C0F888219B
:10065000002001220B681A430A6010BDB0B590F863
:100660002020013A012A2FD846F20060C4F200008F
:10067000026842F001020260026822F47C520260C9
:10068000D1F814E0CC694A6A0368012C43EA0222DB
:1006900002600EF01F024FF0010303FA02F2C36979
:1006A0006FEA020C23EA0203C36113D02CBBC368B8
:1006B00003EA0C03C360CB688C8844EA034300EB75
:1006C000CE0423640B4611E0416A41F4802141626B
:1006D0000120B0BDC3681343C3600B688C8844EA33
:1006E000034300EBCE04236401F10C038C681B88E8
:1006F00043EA044300EBCE04636443688D6943EA34
:100700000204D1F810E0096A002D08BF03EA0C04C6
:1007100044604369BEF1000F43EA020408BF03EAE4
:100720000C040129446102D1C1691143C16101680E
:1007300021F0010101600020B0BD00007047000001
:1007400010B590F82040013C012C7BD8D0F800C0B7
:10075000002900F08180DCF81040A40700F08180BF
:100760000CEB011CDCF8B0410CF5D87E14F004044D
:100770009460DCF8B04119BFE4085460640D146063
:10078000DEF800400CF5DA7E04F00204D460DCF8F8
:10079000B44124075ABFDEF8004004F00F040824D7
:1007A0001461DEF800400029C4F307249461DEF8E8
:1007B00000404FEA14445461DCF8B8211A70026812
:1007C00002EB0112D2F8B8214FEA12225A700268E5
:1007D00002EB0112D2F8B8214FEA12429A70026875
:1007E00002EB0112D2F8B8214FEA1262DA70026805
:1007F00002EB0112D2F8BC211A71026802EB01125D
:10080000D2F8BC214FEA12225A71026802EB01129F
:10081000D2F8BC214FEA12429A71026802EB01122F
:10082000D2F8BC214FEA1262DA71006814BF00F1FD
:10083000100100F10C01002020220B681A430A600D
:1008400010BD00BF00F1240101204FF480220B688D
:100850001A430A6010BD00BFDCF80C40A4077FF407
:100860007FAF00F1240101204FF400120B681A43FE
:100870000A6010BD2DE9F04F81B00446006846695A
:10088000D0F804908768D0F80CB0D0F810A0D0F859
:100890001880F10704D1002530071DD424E000BFE3
:1008A000F90710D00121BA07816009D4780700F157
:1008B000AF80380700F1B680204600F033FA02E03E
:1008C000204600F031FA0025F80500F18780F80392
:1008D00000F1B180300707D51BF0100004D020686C
:1008E00045F400751021C160700708D51BF00800A1
:1008F00005D020680821C160204600F0A1F9B007AA
:1009000006D52068C068800702D0204600F09AF91A
:10091000700607D51AF0100004D0206845F48065F1
:1009200010210161B00608D51AF0080005D0206832
:1009300008210161204600F0C1F9F00606D52068C3
:100940000069800702D0204600F0BAF9B00308D54C
:1009500019F0100005D0206810214160204600F0F9
:10096000B1F9F00308D519F0080005D02068082176
:100970004160204600F0E2F9300440F19B805FEADC
:10098000497040F1948006F4807008EA10202843F2
:100990005FEA8871014648BF41F00201B20558BFC5
:1009A00001465FEA48700D4648BF45F004057005F2
:1009B00058BF0D46300540F17A8018F0700000F005
:1009C00076801038000905286CD8DFE800F003595C
:1009D0005D61656945F0080564E000BF20684FF47B
:1009E0008071BA0581600BD4780515D438051DD403
:1009F000204600F09BF9F8037FF56CAF1BE000BFC9
:100A0000204600F095F9F8037FF564AF13E000BFCE
:100A10004FF4006558E700BF05F50055F8037FF572
:100A200059AF08E04FF480554EE700BF05F580450B
:100A3000F8037FF54FAF20684FF48031BA0381602F
:100A40000AD4780310D4380314D4204600F072F985
:100A500030073FF541AF47E7204600F06DF930071A
:100A60003FF53AAF40E700BF05F5004530073FF5D9
:100A700033AF39E705F5803530073FF52DAF33E764
:100A800045F010050EE000BF45F020050AE000BF6C
:100A900045F0400506E000BF45F0800502E000BFDC
:100AA00045F480752068816921F0700181612068BA
:100AB0000421416055B1606A40EA05012046616247
:100AC00001B0BDE8F04FFFF739BE00BF01B0BDE88F
:100AD000F08F0000B0B5C8B1044690F8200010B9FE
:100AE000204600F071F82068016841F001010160C2
:100AF00000F014FA054600BF20684168C90707D115
:100B000000F00CFA401B0B28F6D312E00120B0BD18
:100B1000016821F00201016000F000FA054600BF03
:100B20002068416889070DD500F0F8F9401B0B28B3
:100B3000F6D3606A052140F400306062012084F839
:100B40002010B0BD217E0268012922F0800208BF7A
:100B500080320260617E0268012922F0400208BFF3
:100B600040320260A17E0268012922F0200208BF03
:100B700020320260E17E0268012922F0100218BFD3
:100B800010320260217F0268012922F0080208BFAA
:100B900008320260617F0268012922F0040208BF66
:100BA00004320260D4E901C2D4E9033561691A4311
:100BB0002A431143ACF101021143C161002001211C
:100BC000606284F82010B0BD80B586B0016846F23E
:100BD0000040C4F20000814202D006B080BD00BFD8
:100BE000002143F630020191C4F20202136900F5BC
:100BF000D43043F000731361136903F00073019361
:100C0000019B0191136843F00803136012680223EB
:100C100002F008020192019ACDE902310921032272
:100C2000059101A90192049200F09EF8142005217B
:100C3000002200F037FA142000F020FA06B080BD40
:100C40007047000010B540F21821C2F200010068A0
:100C50000968884200D010BD40F6D81440F2182030
:100C6000C2F2000440F6D013C2F20000C2F2000348
:100C700000212246FFF764FD206840F205218842EA
:100C800010D0B0F5027F18BF10BD40F22430C2F280
:100C9000000040F6D011C2F20001BDE8104001F0A2
:100CA000DDBE00BF44F6FC40C2F2000040F6D011A9
:100CB000C2F20001BDE8104001F0D0BE7047000054
:100CC0007047000070470000B0B5044690F820005F
:100CD00001281DD1022084F820002068016821F03D
:100CE0000101016000F01AF9054600BF2068406864
:100CF000C00713D000F012F9401B0B28F6D3606A2E
:100D000040F400306062052084F820000120B0BD6E
:100D1000606A40F4002060620120B0BD0020606283
:100D2000B0BD000070470000704700007047000031
:100D300070470000704700007047000070470000D7
:100D4000B0B5044600F0EAF8054640F20000C2F2F1
:100D500000000078611C18BF044400BF00F0DEF8FA
:100D6000401BA042FAD3B0BD2DE9F04F82B000F194
:100D70003E4241F6004502F1FF77C4F20205082227
:100D800043F6004E4FEAB726A84208BF0722C4F236
:100D9000010E072E38BF4FEAB72201250026002793
:100DA0004FF00008009208E008F101080437B8F19C
:100DB000100F06F1020600F0A7800C6805FA08F98A
:100DC00014EA090FF0D0D1F804B003220BF0030CA1
:100DD000ACF10104B240012C6FEA020A10D882681B
:100DE000CC6802EA0A02B440224382604268CBF334
:100DF000001422EA090204FA08F42243426005E0E2
:100E0000BCF1030F02D14FF0030C20E0C2688C68E4
:100E100002EA0A02B4402243BCF1020FC26016D1BA
:100E20006FF0030202EA58020244D2F820C007F031
:100E30001C050F230C69AB402CEA030304FA05F5EB
:100E40002B431362D1F804B001250BF0030C0268A8
:100E50000CFA06F302EA0A021A431BF4403F02604E
:100E6000A2D0002243F644030192C4F202031A689E
:100E70004FF6084C42F480421A601A68CFF6FF7CA5
:100E800002F480420192019A28F00302724452F85F
:100E90000C3007F00C050F24AC40A343009C04FA6F
:100EA00005F52B4342F80C30DEF808204B6842EA87
:100EB000090543F60C4CDC0258BF22EA0905CEF8BE
:100EC0000850C4F2010CDCF800209C0242EA09053B
:100ED00058BF22EA0905CCF80050DEF804209C0334
:100EE00042EA090558BF22EA0905CEF80450DEF8A7
:100EF0000020DB0342EA090558BF22EA0905CEF8C3
:100F00000050012550E700BF02B0BDE8F08F00009F
:100F1000002A08BF090481617047000044F20060A4
:100F2000C2F200000068704740F2000044F2006125
:100F3000C2F20000C2F2000100780A6810440860A2
:100F40007047000080B543F60040C4F2020001681B
:100F500041F400710160016841F480610160016841
:100F600041F480710160032000F0C8F80F2000F008
:100F700005F800F061F8002080BD000070B586B073
:100F8000002543F640010195C4F202010A680446B7
:100F900042F010020A60096801A801F010010191F5
:100FA0000199694600F06AF9049E002E18BF0126D7
:100FB00000F084F94DF68361B040C4F21B31A0FB10
:100FC00001014FF0FF3000EB914140F2982041F2D7
:100FD0000002C2F20000C4F2000240F2E733C0E9AE
:100FE0000021C0E902530561856101F005F805465D
:100FF00010B1284606B070BD40F29820C2F2000041
:1010000001F02AF805460028F3D1362000F036F822
:101010000F2C0DD8362021460022002500F042F882
:1010200040F20400C2F200000460284606B070BD21
:101030000125284606B070BD82B0002043F640016D
:101040000190C4F202014A6842F480424A604A6850
:1010500002F480420192019A00900868002240F058
:101060008050086008680F2100F0805000900098C0
:101070006FF0010002B000F015B80000002848BF72
:101080007047C1B200F01F00012202FA00F04EF2D8
:101090000012CEF2000242EAD10121F00301086001
:1010A0007047000010B54EF60C5CCEF2000CDCF878
:1010B0000030C3F3022E8EF00704042C28BF042452
:1010C000BEF103034FF0FF3E0EFA04F438BF0023D5
:1010D000A14399400EFA03F39A43114300F00F0223
:1010E00000F160430901043A03F5644362440028B7
:1010F00048BF02F10C03197010BD00004EF60C51F0
:10110000CEF200010A684FF6FF031A4060F30A228C
:1011100042F0806040F0FD70086070472DE9F041BA
:10112000002800F08B8043F60808C4F20208044649
:10113000D8F8F8030D4600F00700884207D288F877
:10114000F853D8F8F80300F00700A84276D12068D9
:10115000810717D5410705D5D8F8001041F4E051B3
:10116000C8F80010010705D5D8F8001041F4604117
:10117000C8F80010D8F80010A26821F0F00111435F
:10118000C8F80010C0073FD1D8F8F80300F00700F6
:10119000A84207D988F8F853D8F8F80300F00700F8
:1011A000A8424BD12068410707D5D8F80010E26863
:1011B00021F4E0511143C8F80010000708D5D8F811
:1011C0000000216920F4604040EAC100C8F8000036
:1011D00000F088F8D8F8001046F64072C1F3031109
:1011E000C0F60002515C40F2500220FA01F140F2D8
:1011F0000400C2F200000068C2F200021160FFF7B2
:10120000BDFE0020BDE8F0816068811E022907D282
:1012100058F8081C89015CBF0120BDE8F08111E08D
:10122000012807D158F8081C89035CBF0120BDE8DC
:10123000F08107E058F8081C890703D40120BDE8B5
:10124000F08100BFD8F8001021F003010843C8F86E
:101250000000FFF763FE064641F28837D8F8000029
:10126000616800F00C00B0EB810F8DD0FFF756FEE7
:10127000801BB842F2D90320BDE8F0810F22026042
:1012800043F60802C4F20202136803F0030343604A
:10129000136803F0F0038360136803F4E053C36042
:1012A000D2F800C04FF4E05303EADC030361D2F844
:1012B000F80300F0070008607047000040F250009B
:1012C00043F60801C2F20000C4F202010068096896
:1012D00046F65072C1F38221C0F60002515CC8404C
:1012E0007047000010B543F60404C4F202046068BD
:1012F00000F00C0008280BD0042819BF42F200406F
:10130000C0F2F40041F60030C0F2B70010BD00BFDB
:10131000206821682368490241F60031C0F2B70114
:1013200000F03F02C3F388105CBF42F20041C0F2FC
:10133000F401A1FB00010023FEF798FF21680222BF
:10134000C1F3014102EB4101B0FBF1F010BD00001F
:101350002DE9F04182B0002868D00446007843F6B9
:101360000006C007C4F202060BD0B06800F00C0003
:10137000042840F09F803068800302D56068002810
:1013800054D0207880071AD5B06810F00C0F09D01F
:10139000B06800F00C00082840F0A6807068400299
:1013A00000F1A2803068800702D5E06801283DD1B5
:1013B0003068216920F0F80040EAC10030602078F0
:1013C000000737D4207840074CD4A56955B3B068DE
:1013D00000F00C00082840F0BB80012D26D070687A
:1013E000E16900F480028A4220D1216A00F03F02C4
:1013F0008A421BD147F6C071626A0140B1EB821F7D
:1014000014D1A16A4FF6FF73C903994300F4403227
:10141000A1F580318A4209D1E16A00F07060B0EB39
:10142000016F03D1002002B0BDE8F081012002B0BD
:10143000BDE8F0816069002840F20000C4F2472056
:1014400076D00121C0F8801EFFF768FD054600BF79
:10145000706F8007B6D4FFF761FD401B0228F7D9F3
:10146000DDE000BF306C10F080580AD10020019000
:10147000306C40F080503064306C00F0805001904F
:10148000019847F20007C4F200073868C00541D44C
:10149000386840F480703860FFF740FD054600BFB3
:1014A0003868C00536D4FFF739FD401B0228F7D94C
:1014B000B5E000BFB06800F00C00082803D17068E8
:1014C00040023FF558AF6068B0F5803F07D0B0F5F7
:1014D000A02F40F08D80306840F48020306030686C
:1014E00040F4803030608DE0E068002852D0002069
:1014F000C4F2472001210160FFF710FD054600BF3F
:10150000306880073FF554AFFFF708FD401B022805
:10151000F6D984E0A068012805D005284ED1306FA7
:1015200040F004003067306F40F0010030674FE05A
:101530000021C0F8801EFFF7F1FC0546706F8007A0
:101540007FF540AFFFF7EAFC401B0228F6D966E0C2
:101550000027C4F2472700203866FFF7DFFC022D82
:1015600005460BD1306880015ED5FFF7D7FC401BE4
:1015700002284FF00300F5D955E700BF306880011D
:101580007FF550AFFFF7CAFC401B02284FF0030065
:10159000F4D948E70020C4F2472000210160FFF79A
:1015A000BDFC0546306880077FF509AFFFF7B6FC44
:1015B000401B02284FF00300F4D934E7316F0028B4
:1015C00021F001013167316F21F0040131674DD005
:1015D000FFF7A4FC054641F2883700BF306F800753
:1015E00056D4FFF79BFC401BB842F7D917E000BF69
:1015F0003168002821F480313160316821F4802184
:1016000031604FD0FFF78AFC054600BF3068800389
:101610003FF5B7AEFFF782FC401B6428F6D90320E4
:1016200002B0BDE8F08100BF04F11C052FCD0843D6
:1016300040EA8210D9034FF6FF729143A1F5803141
:1016400040EA05600843706001203866FFF766FCD9
:10165000044600BF306880013FF5E4AEFFF75EFC52
:10166000001B02284FF00300F4D9DCE6FFF756FC1C
:10167000054641F2883700BF306F800708D5FFF775
:101680004DFC401BB8424FF00300F5D9CBE600BF3C
:10169000B8F1000F7FF499AE306C20F080503064C8
:1016A00093E600BFFFF73AFC054600BF30688003B1
:1016B0007FF567AEFFF732FC401B64284FF0030054
:1016C000F4D9B0E690F851007047000070B538B119
:1016D0000446406A30B10020206104F1140007E0A4
:1016E000012070BD6068B0F5827F03D004F11C005A
:1016F000002101600026A66294F8510020B920461E
:1017000084F8506000F03CF8022084F8510094E81E
:101710000F0001F48271056802F4044225F04005CF
:101720000560114403F400622369114403F00202CE
:101730006369114403F00102A369E569114403F4EC
:101740000072114405F03802256A114405F0800248
:10175000A56A114305F4005211430160626A042135
:1017600001EA134102F0100211444160C16921F401
:101770000061C1610120666584F85100304670BD8A
:101780002DE9F04385B0006843F20005C4F201057D
:10179000A84203D005B0BDE8F08300BF002643F6A1
:1017A00030000096C4F2020041696C4641F4805159
:1017B000416141694FF0020801F4805100910099A4
:1017C000009601684FF0030941F0020101600168D1
:1017D000052701F00201009100990096016841F08F
:1017E000010101600068214600F0010000900098AE
:1017F0001820009005F55440CDE90186CDF80C90F5
:101800000497FFF7B1FA8020CDE9000805F55040B4
:101810002146CDE902690497FFF7A6FA05B0BDE8B5
:10182000F08300002DE9F04182B0044690F85100A9
:10183000012818D10E4600294FF0010000F0EF807A
:101840001746002A00F0EB8060681D46B0F5827FE5
:1018500003D1A068002800F0BB80FFF75FFB94F87D
:101860005010012904D1022002B0BDE8F08100BF70
:101870008046012084F850000420002184F85100A3
:101880006165A663A787E7872163A186E186A268D1
:101890002068B2F5004F2164616437D001684906C1
:1018A0003FD5E168E08F002943D000287AD0681C3A
:1018B0000BD11AE0C068A16B21F8020BA163E08F85
:1018C0000138E087E08F00286CD020688168C90764
:1018D000F0D1FFF723FBA0EB0800A842F2D342E0CF
:1018E000FFF71CFBE08F00285CD020688168C907E7
:1018F000F6D0C068A16B21F8020BA163E08F01381C
:10190000E087E08F0028F0D14CE000BF016821F0B3
:1019100040010160016821F48041016001684906CD
:10192000BFD4016841F040010160E168E08F002907
:10193000BBD1B8B3681C0CD124E000BF007BA16B05
:101940000870A06B0130A063E08F0138E087E08F62
:1019500040B320688168C907F0D1FFF7DFFAA0EB38
:101960000800A842F3D3012084F85100002084F835
:101970005000032002B0BDE8F08100BFFFF7CEFAAF
:10198000E08F78B120688168C907F7D0007BA16B30
:101990000870A06B0130A063E08F0138E087E08F12
:1019A0000028EFD16068B0F5827F0ED1A068B0F555
:1019B000004F02D0B0F5806F18D12168B0F5806F6C
:1019C0000A6822F040020A6010D1204601210FE08F
:1019D000042084F851002046314632463B460095AB
:1019E00000F05EF902B0BDE8F08100BF2046802122
:1019F00000222B46CDF8008000F034FD28B1606D48
:101A000040F02000606520206065012084F85100CE
:101A1000002084F85000606D002818BF012002B03B
:101A2000BDE8F0812DE9F04184B01D4616460F4611
:101A30000446FFF773FA94F8511001290ED180463D
:101A4000002F4FF0010018BF002E03D104B0BDE8F5
:101A5000F08100BF94F85000012803D1022004B0A7
:101A6000BDE8F081012084F850000320002184F8B3
:101A7000510061652763A686E686A163A187E18799
:101A8000A0682164B0F5004F2068616407D1016847
:101A900021F040010160016841F48041016001686A
:101AA000490603D4016841F0400101606168731E7A
:101AB000E268B1FA81F1B3FA83F349095B09B2F53F
:101AC000006F41EA030139D131B137F8021BC1601F
:101AD0002763E08E0138E086E08E002870D0681C15
:101AE0000BD11AE0216B31F8022BC2602163E08E2A
:101AF0000138E086E08E002862D02068816889077E
:101B0000F0D4FFF70BFAA0EB0800A842F2D338E0BC
:101B1000FFF704FAE08E002852D020688168890718
:101B2000F6D5216B31F8022BC2602163E08E0138BB
:101B3000E086E08E0028F0D142E000BF39B139786C
:101B40000173206B01302063E08E0138E086E08E67
:101B5000B0B3681C0BD123E0216B09780173206BB3
:101B600001302063E08E0138E086E08E40B32068CB
:101B700081688907F0D4FFF7D1F9A0EB0800A842EB
:101B8000F3D3012084F85100002084F85000032092
:101B900004B0BDE8F08100BFFFF7C0F9E08E78B176
:101BA000206881688907F7D5216B09780173206B5C
:101BB00001302063E08E0138E086E08E0028EFD10E
:101BC0002046022101222B46CDF8008000F04AFC7D
:101BD000E0B1606D40F02000606520206065A06885
:101BE00038B9002002902068C16802918068029094
:101BF0000298012084F85100002084F85000606DA4
:101C0000002818BF012004B0BDE8F08140F2500068
:101C1000C2F20000006849F68171C1F25E61A0FB6A
:101C20000101480D4FF47A71484303906068B0F5A4
:101C3000827F0BD12046802100222B46CDF80080E8
:101C400000F010FC0028C4D1C9E700BF03980028A9
:101C5000C5D0039801380390206880680006BED57F
:101C600003980028BBD0039801380390206880684F
:101C70000006B4D503980028B1D00398013803902A
:101C8000206880680006AAD503980028A7D003988A
:101C900001380390206880680006D7D49FE70000D1
:101CA0002DE9F04383B01E4615460F460446FFF764
:101CB00035F994F851108146012909D1002F4FF0D0
:101CC000010018BF002D0FD103B0BDE8F08300BFA5
:101CD0006068B0F5827F0DD1A06800284FF0020047
:101CE00008BF0429F0D1E9E7002EEDD094F85000A8
:101CF000012803D1022003B0BDE8F083012084F85D
:101D0000500094F85100002104281CBF052084F8DD
:101D100051006165A563E687A6872763E68620688C
:101D2000A686216461640168490603D4016841F014
:101D3000400101606168731EE268B1FA81F1B3FA93
:101D400083F3DDF8288049095B09B2F5006F41EAA9
:101D5000030165D131B137F8021BC1602763E08E02
:101D60000138E086012518F1010032D102E000BF00
:101D7000FFF7D4F8E08E18B9E08F002800F0B880A3
:101D80002068816889070CD5E18E51B1012D08D1F9
:101D9000216B002531F8022BC2602163E18E0139ED
:101DA000E1868168C907E3D0E18F0029E0D0C068EF
:101DB000A16B012521F8020BA163E08F0138E087B8
:101DC000D6E700BFFFF7AAF8A0EB0900404580F076
:101DD000A580E08E18B9E08F002800F08980206887
:101DE000816889070CD5E18E51B1012D08D1216B95
:101DF000002531F8022BC2602163E18E0139E186B2
:101E00008168C907DED0E18F0029DBD0C068A16BF3
:101E1000012521F8020BA163E08F0138E087D1E7AB
:101E200039B139780173206B01302063E08E0138BD
:101E3000E086012518F1010032D101E0FFF76EF8CC
:101E4000E08E10B9E08F002852D0206881688907A1
:101E50000ED5E18E61B1012D0AD1216B00250978E3
:101E60000173216B206801312163E18E0139E18624
:101E70008168C907E2D0E18F0029DFD0C068A16B7B
:101E800001250870A06B0130A063E08F0138E08766
:101E9000D4E700BFFFF742F8A0EB090040453DD270
:101EA000E08E08B9E08F18B32068816889070ED5E5
:101EB000E18E61B1012D0AD1216B002509780173F2
:101EC000216B206801312163E18E0139E18681684F
:101ED000C907DFD0E18F0029DCD0C068A16B0125E4
:101EE0000870A06B0130A063E08F0138E087D1E774
:101EF0002046022101224346CDF8009000F0B2FABC
:101F0000B0B1606D40F02000606520206065002069
:101F100084F85000012003B0BDE8F083012084F86C
:101F20005100002084F85000032003B0BDE8F08386
:101F300040F25000C2F20000006849F68171C1F21F
:101F40005E61A0FB0101480D4FF47A714843029095
:101F50006068B0F5827F21D120468021002243466F
:101F6000CDF8009000F07EFA0028CAD1A06838B9F8
:101F7000002001902068C16801918068019001985B
:101F8000012084F85100002084F85000606D002882
:101F900018BF012003B0BDE8F08300BF02980028FD
:101FA000E4D0029801380290206880680006DDD5F0
:101FB00002980028DAD002980138029020688068E0
:101FC0000006D3D502980028D0D00298013802909C
:101FD000206880680006C9D502980028C6D00298FB
:101FE00001380290206880680006D7D4BEE7000060
:101FF0007047000070470000002804BF01207047B0
:1020000010B5044690F83D0028B9002084F83C0043
:10201000204600F01FF8022084F83D002068211DB2
:1020200000F040FB012084F8460084F83E0084F86C
:102030003F0084F8400084F8410084F8420084F8AE
:10204000430084F8440084F8450084F83D000020F3
:1020500010BD00007047000090F83D1001291CBF22
:1020600001207047022180F83D10006841F2FF72A4
:10207000C168C4F20002904241F00101C1600DDC70
:1020800040F2FF71C4F20001884215DCB0F1804FCC
:102090002AD040F20041C4F2000123E040F2FF31B7
:1020A000C4F20101884213DC41F60001C4F20001D0
:1020B000884219D0002113E040F60001C4F200016B
:1020C000884211D040F60041C4F200010AE000BF8E
:1020D00044F20001C4F20101884205D040F20041FF
:1020E000C4F20101884206D1816801F00701062986
:1020F00004BF00207047016841F001010160002029
:10210000704700007047000070B504460068C5685D
:102110000669B10716D515F0020113D06FF0020160
:102120000161012121778069800703D02046FFF7F4
:10213000E9FF05E0204600F08FF8204600F08EF819
:1021400000202077700719D515F0040016D02068FC
:102150006FF00401016102212177806910F4407F52
:1021600004D02046FFF7CEFF06E000BF204600F077
:1021700073F8204600F072F800202077300717D55A
:1021800015F0080014D020686FF0080101610421E7
:102190002177C069800703D02046FFF7B3FF05E031
:1021A000204600F059F8204600F058F8002020772B
:1021B000F00619D515F0100016D020686FF0100148
:1021C000016108212177C06910F4407F04D02046C6
:1021D000FFF798FF06E000BF204600F03DF82046DC
:1021E00000F03CF800202077F00718BF15F0010040
:1021F00002D1300609D412E020686FF001010161BC
:10220000204600F02DF8300609D515F0800006D0E4
:1022100020686FF0800101612046FFF7E9FE70063B
:1022200009D515F0400006D020686FF0400101612B
:10223000204600F01FF8B00658BF70BD15F0200012
:1022400008D021686FF0200220460A61BDE8704086
:10225000FFF7D0BE70BD000070470000704700005F
:10226000006841F20001C4F20001884218BF7047C3
:10227000FEF75ABE70470000FEE7000080B540F24E
:10228000182046F20041C2F20000C4F2000103220D
:10229000002380E80E0000F10C014FF4102C4FF4E5
:1022A000001E81E8085083618383FEF713FC002839
:1022B00008BF80BDBDE88040FEF760B980B501F081
:1022C0008FFE42F2B55046F65872C0F60000C0F6D6
:1022D0000002002101F0C0F840F21421C2F2000116
:1022E000086080BD2DE9F04186B0002043F6300142
:1022F00005900090C4F202010A68002442F0020234
:102300000A600A68C4F2020402F002020092009A13
:1023100000900A68102642F001020A600A6801274C
:1023200002F001020092009A00900A6842F008024E
:102330000A600A6802F008020092009A0090086899
:10234000012240F0800008600868102100F0800041
:10235000009000982046FEF7DBFD04F580652846D6
:1023600001210122FEF7D4FDCDE9016701AE4FF056
:102370000208204631460397CDF81080FEF7F4FCA2
:1023800028463146CDE90177CDE90378FEF7ECFC2C
:1023900006B0BDE8F0810000B0B540F2402043F245
:1023A0000001C2F20000C4F201014FF48272002366
:1023B00080E80E0000F10C014FF0020C4FF0010E0E
:1023C0004FF40074382581E808500A21C0E9064519
:1023D000C0E90833C0E90A31FFF778F9002808BFDF
:1023E000B0BDBDE8B040FEF7C9B80000FEE7000090
:1023F000FEE70000000000000000000000000000F8
:10240000EFF30980BFF36F8F154B1A681EF0100FA2
:1024100008BF20ED108A20E9F04F10602DE9090077
:102420004FF0500080F31188BFF34F8FBFF36F8FD1
:1024300002F008F94FF0000080F31188BDE80900B0
:1024400019680868B0E8F04F1EF0100F08BFB0EC34
:10245000108A80F30988BFF36F8F704700BF00BFF9
:10246000000100202DE9F04381B0089C98461546F4
:102470000E468146FEF752FD201A00EB0804FEF7D7
:102480004DFD40F25001C2F200010968C1F3CB31A9
:1024900061430091D9F800108A683240921BB2FA69
:1024A00082F25209AA4203D1002001B0BDE8F083B4
:1024B000074618F101000ED130E000BF0098013846
:1024C0000090D9F8000080683040801BB0FA80F09E
:1024D0004009A842E8D0FEF721FDC01BA04227D248
:1024E00000980028EAD10024EBE700BF886830405C
:1024F000801BB0FA80F04009A842D5D088683040EF
:10250000801BB0FA80F04009A842CDD088683040E6
:10251000801BB0FA80F04009A842C5D088683040DE
:10252000801BB0FA80F04009A842DFD1BCE700BFB1
:10253000D9E900014268B1F5827F22F0E0024260F1
:102540000BD1D9F80810B1F5004F02D0B1F5806F6A
:1025500003D1016821F040010160D9F82810B1F5DC
:10256000005F07D1016821F400510160016841F466
:1025700000510160012089F85100002089F85000C5
:10258000032001B0BDE8F08300000000000000005F
:10259000074B19680868B0E8F04F80F30988BFF36B
:1025A0006F8F4FF0000080F31188704700BF00BFAD
:1025B00000010020012000F00DFFFBE780B54EF286
:1025C0001000CEF20000006802F08AFC012808BF6B
:1025D00080BDBDE8804002F055B90000B0B592B0B2
:1025E000002443F64000CDE90A44CDE908440594AF
:1025F000CDE90344CDE901440094C4F2020001682E
:10260000022541F080510160006800F08050009088
:10261000009847F200000094C4F20000016841F401
:1026200080410160006800F4804000900098012023
:1026300006904FF4803007904FF480000D900620F4
:102640000E90A820CDE90F050420119006A80C9546
:10265000FEF77EFE10B172B6FEE700BF0F20CDE997
:1026600001054FF4A05004904FF48050059001A84C
:1026700005210394FEF752FD10B172B6FEE700BFCC
:1026800012B0B0BD4EF68850CEF20000016841F4A1
:10269000700101607047000040F29820C2F2000013
:1026A000FFF732BDB0B540F6FF3E0568C4F2000E3C
:1026B00040F2004C7045C4F2010C27DCB0F1804FB1
:1026C00031D040F20043C4F2000398422BD040F6D0
:1026D0000003C4F20003984225D041F6FF73C4F210
:1026E000000398422ADC70453CDCB0F1804F5FD09B
:1026F00040F20043C4F20003984259D040F6000370
:10270000C4F20003984253D057E000BF40F60043A4
:10271000C4F20003984206D0604504D00023C4F2FE
:1027200001039842D9D14B6825F0700243EA0205B3
:1027300041F6FF73C4F200039842D4DD43F6FF7301
:10274000C4F20103984221DC42F20003C4F2000308
:1027500098422DD00023C4F20103984228D060454E
:1027600026D02AE040F60043C4F2000398421FD06E
:1027700041F60003C4F20003984219D041F6004329
:10278000C4F20003984213D017E000BF44F20003E4
:10279000C4F2010398420BD044F60003C4F20103D3
:1027A000984205D044F20043C4F20103984204D198
:1027B000CB6825F4407243EA02050A688C684B69CD
:1027C000C46240F480648262644504BF09690163A5
:1027D000026825F0800142F00402194302600122E0
:1027E00042610160B0BD0000FEE700002DE9F04F3E
:1027F00081B044F6D054002000214CF6CD4AC2F2FC
:102800000004C4F290204FF07E5BC4F27A41C3F61C
:10281000CC5A00226423C4F2F012C4E9000BC4E9CC
:10282000021A04F11C002821C4E90432FDF7E3FD7B
:102830009FED610A204600F013FC44F61465002069
:102840000021C2F20005C4F20820C4F27021002267
:1028500040F20009C4F2A0123223C4F2202985E814
:10286000070405F11C002821C5E90439FDF7C3FD63
:102870009FED520A284600F0F3FB44F6FC46C2F2F4
:1028800000064FF0010806F108002421C6E900B84F
:10289000FDF7B1FD94E88F10A46906F12C0E8EE8C7
:1028A0008F1006F1480028217464FDF7A4FD95E817
:1028B0008F00D5E9054506F1700C8CE88F0006F114
:1028C0008C004421C6E92145FDF795FD40F2F8341E
:1028D0000020C2F20004C4F234200021002245F29C
:1028E000EC13C4F2A001C4F27042C3F6B85384E8FA
:1028F0000F006420C4E9040B04F11C002821A6F891
:10290000D080FDF778FD9FED2E0A204600F0A8FB51
:1029100040F23C450020C2F20005C4F24010C5E977
:10292000000932204FF00008C5E9040905F11C0038
:102930002821C5E9028AFDF75EFD9FED220A28469F
:1029400000F08EFB40F224370021C2F20007042081
:10295000C4F20E31C7E900B0C7E9021894E84F107D
:10296000A469C7E90A8007F1300080E84E1007F13A
:1029700048002821C7E90488C7E90688C7E908880C
:102980007C64FDF738FD95E84F00D5E9054507F172
:10299000700C8CE84F0007F18C004021C7E92145FD
:1029A000FDF729FD0020CBF68070C7F8CC00A7F812
:1029B000D08001B0BDE8F08F0000874400803B4626
:1029C0000000000000606A4640F27C0A44F6FC48C1
:1029D00040F6F81540F2243940F2182B40F28004FA
:1029E00040F21026C2F2000AC2F20008C2F200054C
:1029F000C2F20009C2F2000BC2F20004C2F20006E9
:102A0000002716E0404600F027F94046294600F02E
:102A10000BF9484600F020F94846294600F004F931
:102A2000584621462A463346FDF7C4FD012000F0F2
:102A3000D1FCDAF800000028E4D0C5E90077EFE720
:102A400040F2E024C2F20004204600F0B5FA20462D
:102A500000F042FA012000F0BDFCF5E790ED052AF8
:102A60009FED6C3A80ED062A0A8852BA00EE102AD1
:102A7000B8EEC01A9FED660A21EE001A81EE033A05
:102A80009FED651A33EE422AB4EE412AF1EE10FAB8
:102A900080ED053A80F29A809FED611AB4EE412AEA
:102AA000F1EE10FA1CDA00BF32EE002AB4EE412A31
:102AB000F1EE10FA14DA32EE002AB4EE412AF1EE09
:102AC00010FA0DDA32EE002AB4EE412AF1EE10FAD5
:102AD00006DA32EE002AB4EE412AF1EE10FAE3DB18
:102AE00090ED001A90ED034A82EE013A80ED072A3C
:102AF00033EE042AB4EE402AF1EE10FA80ED043AE7
:102B000037DB9FED463A00BF32EE032AB4EE402A8F
:102B1000F1EE10FA2DDB32EE032AB4EE402AF1EE8C
:102B200010FA26DB32EE032AB4EE402AF1EE10FA58
:102B30001FDB32EE032AB4EE402AF1EE10FAE3DA9C
:102B400017E000BF32EE002AB5EE402AF1EE10FA8F
:102B500014DA32EE002AB5EE402AF1EE10FA0DDA60
:102B600032EE002AB5EE402AF1EE10FA06DA32EE25
:102B7000002AB5EE402AF1EE10FAE3DB80ED032ADD
:102B80004A88B1EE082AD2BA00EE102AB8EEC00A7E
:102B900020EE020A80EE010AB3EE041A9FED212A0C
:102BA00080ED080A8A88D2BA00EE102AB8EEC00A70
:102BB00020EE010A20EE020A80ED090A897900EE72
:102BC000101AB8EE400A80ED0A0A70479FED133ADA
:102BD00032EE032AB4EE412AF1EE10FAFFF65CAFB2
:102BE00032EE032AB4EE412AF1EE10FAFFF654AFAA
:102BF00032EE032AB4EE412AF1EE10FAFFF64CAFA2
:102C000032EE032AB4EE412AF1EE10FAE0DA43E79D
:102C10000000B44300F8FF45000034430000B4C393
:102C2000000034C300008038426890ED310A013A58
:102C3000D31702EB937323F00303BDEEC00AD01A3F
:102C400010EE102A130A01EB400C01F810308CF83A
:102C500001207047000000002DE9F04381B02DED08
:102C6000048B8146D0F8C00004F024F80546D9F85A
:102C700020000E4604F01EF89FED810B53EC102B44
:102C800003F01EFD9FED800B07460C4653EC102B06
:102C90002846314603F014FD3A46234603F0A6FACF
:102CA00003F072FA99ED021A99ED032A9FED860A54
:102CB00032EE418AB4EE408AF1EE10FAC9F8C00053
:102CC00038DA9FED830AB4EE408AF1EE10FA1DDA8D
:102CD0009FED801A38EE018AB4EE408AF1EE10FAC8
:102CE00014DA38EE018AB4EE408AF1EE10FA0DDA09
:102CF00038EE018AB4EE408AF1EE10FA06DA38EEC8
:102D0000018AB4EE408AF1EE10FAE3DB99F8D000C4
:102D100089ED2E8A70B399F8D100022800F08D80D9
:102D2000012800F09980002840F0A48099ED330A32
:102D30009EE000BF9FED651A38EE018AB4EE408A2E
:102D4000F1EE10FABDDB38EE018AB4EE408AF1EE06
:102D500010FAB6DB38EE018AB4EE408AF1EE10FAD2
:102D6000AFDB38EE018AB4EE408AF1EE10FAE3DA16
:102D7000A7E700BF18EE100A03F09CFF41EC100B10
:102D80009FED431B02F0B0FAD9F8B800B0EE408ACC
:102D9000F0EE608A03F08EFF41EC100B9FED3E1BBE
:102DA00002F0A2FA51EC100B9FED3D0B53EC102BEF
:102DB00003F086FC9FED3C0B04460D4651EC180BCE
:102DC00053EC102B03F07CFC22462B4603F00EFA4A
:102DD00099ED2E8A804618EE100A0F4603F06AFF1E
:102DE00002460B4605460E4603F06AFC9FED300B8B
:102DF00053EC102B03F064FC42463B4603F0F6F91B
:102E00009FED2D0B04460F4653EC102B2846314600
:102E100003F056FC22463B4603F0E8F99FED280BF1
:102E200053EC102B03F0E2F903F0AEF9C9F8CC0033
:102E300099F8D10002287FF473AF99ED2D0A99ED2E
:102E4000329A09F12C00F0EE480A00F017F939EE39
:102E5000000A89ED2F0A01E099ED2F0AD9ED300A19
:102E600099ED338A09F1700000F008F938EE000A94
:102E700089ED310ABDEC048B01B0BDE8F08300BFE1
:102E8000333333333333E33F9A9999999999D93F3F
:102E9000000000000000104000000000000008409A
:102EA0006631B1F9B836A4BF2EFF00EF0D5335BF20
:102EB000E8305F5E807DC8BF772D211FF43C24C0C1
:102EC0000000000000409F40000034430000B4C3F5
:102ED000000034C30000B44310B5044600F11C01E7
:102EE0000F20012200F0A0F9207F042856D82CA141
:102EF00051F8200004F11D0160620220062200F05A
:102F000093F9B4F91D0094ED091A00EE100AB4F912
:102F10001F00B8EEC00A03EE100AB4F921009FEDBD
:102F2000252A04EE100AB8EEC33AB8EEC44A21EEE0
:102F3000000A21EE033A21EE041A80EE020A83EE23
:102F4000023A81EE021A206C94ED0A2A94ED0B4AA3
:102F500094ED0C5A01300528206432EE002A34EE3C
:102F6000030A35EE011A84ED0A2A84ED0B0A84ED7A
:102F70000C1A18BF10BDB1EE043A82EE032A80EE9F
:102F8000030A81EE031A0020C4E90A0020632064CA
:102F900084ED0D2A84ED0E0A84ED0F1A10BD00BFDA
:102FA000000074420000F441CDCC74413333F3404F
:102FB0003333734000007A4410B504464120214663
:102FC000012200F0F9F86078032888BF10BD1EA127
:102FD00051F82000A11CE0601220062200F0ECF85D
:102FE000B4F90300B4F90510B4F9072094ED030A0D
:102FF00001EE100A9FED182A04EE101A05EE102AB1
:10300000B8EEC11AB8EEC44AB8EEC55AB8EEC00A56
:1030100021EE021A9FED113A24EE024A25EE022A11
:1030200021EE001A24EE004A22EE000A21EE031AD5
:1030300024EE034A20EE030A84ED041A84ED054AC7
:1030400084ED060A10BD00BF03000000060000006A
:103050000C0000001800000000000038CDCC1C411E
:103060009FED051AB5EE400AF1EE10FAC8BFB0EEBA
:10307000401A80ED061A70470000000090ED071A14
:10308000C0ED080AB4EE401AF1EE10FA3CD190ED12
:10309000042AB7EE004AB8EEC22A84EE025A31EE94
:1030A000601A81EE022A90ED093A90ED030A90ED44
:1030B0000B6A80ED0A3A31EE433A34EE407A20EE64
:1030C000030A90ED0C3A27EE066A90ED057A30EE91
:1030D000060A34EE454A23EE043A33EE022AB1EEF4
:1030E000473AB4EE432A80ED091A80ED0B0AF1EE5F
:1030F00010FAB4EE472AB8BFB0EE432AF1EE10FA48
:10310000C8BFB0EE472A21E090ED042A30EE601AE5
:10311000B8EEC22A81EE022A80ED070A90ED050A78
:103120000021B1EE403A80ED091AC162B4EE432AA3
:10313000F1EE10FAB4EE402AB8BFB0EE432AF1EE39
:1031400010FAC8BFB0EE402A9FED1A0A90ED004A6F
:1031500090ED015A90ED026A90ED063A80ED0C2A4E
:1031600024EE011A25EE022A26EE004A31EE020A6A
:10317000B5EE403A34EE000AF1EE10FA80ED0D1A89
:1031800080ED0E2A80ED0F4A80ED100A08BF7047CF
:10319000B1EE431AB4EE410AF1EE10FAB4EE430A6E
:1031A000B8BFB0EE410AF1EE10FAC8BFB0EE430A64
:1031B000704700BF00000000F0B581B00024C4F2E9
:1031C000020416460D46074604F5806001210122DF
:1031D000FDF79EFE204610210022FDF799FE47F0E4
:1031E000800040F24027C2F200078DF803000DF185
:1031F0000301384601224FF47A73FEF713FC701C6A
:10320000C2B2384629464FF47A73FEF70BFB00BF73
:103210003846FEF757FA0428FAD02046102101223A
:10322000FDF776FE01B0F0BDF0B581B040F200448C
:10323000C4F2020415460E460746A4F5806010212C
:103240000122FDF765FE204601210022FDF760FE08
:1032500047F0800040F24027C2F200078DF80300DB
:103260000DF10301384601224FF47A73FEF7DAFBC1
:10327000384631462A464FF47A73FEF7D3FA00BF38
:103280003846FEF71FFA0428FAD020460121012211
:10329000FDF73EFE01B0F0BDF0B583B00024C4F2EE
:1032A0000204204610210022FDF732FE40F24025A4
:1032B0007E20C2F200058DF806000DF106012846B9
:1032C00001224FF47A73FEF7ADFBB6270DF107012B
:1032D000284601224FF47A738DF80770FEF7A2FB9F
:1032E0000120FDF72DFD204610210122FDF710FEE3
:1032F00004F58066304601210022FDF709FE142006
:103300008DF8080002A9284601224FF47A73FEF7CF
:1033100089FB0DF10901284601224FF47A738DF8DB
:103320000970FEF77FFB1E20FDF70AFD30460121E4
:103330000122FDF7EDFD204610210022FDF7E8FDFA
:103340000120FDF7FDFC7D208DF80A000DF10A013A
:10335000284601224FF47A73FEF764FB04208DF8AF
:103360000B000DF10B01284601224FF47A73FEF792
:1033700059FB0120FDF7E4FC204610210122FDF756
:10338000C7FD03B0F0BD0000FDF7DCFDFFF726F937
:10339000FEF7A8FFFEF772FFFEF7FEFF40F21824CB
:1033A000C2F2000440F25401C2F200012046FDF7CF
:1033B00055F92046FDF788FC20460221FDF7E2F88A
:1033C000FFF76AFF00F016F8FEF778FF00F026F826
:1033D000FEE70000EFF3058100291CBF6FF0050038
:1033E0007047002804BF0020704780B500F0E0FF60
:1033F000002080BDEFF3058000281CBF6FF00500A2
:10340000704740F20C20C2F200000168002911BF91
:103410004FF0FF30012101600020704710B5EFF33D
:10342000058000281CBF6FF0050010BD40F20C2085
:10343000C2F20000016801291CBF4FF0FF3010BD2F
:103440004EF61F51CEF2000100240C7002210160E3
:1034500001F078F8204610BD2DE9F04184B08E4689
:1034600000240394EFF3058150B149B94FF00004F3
:1034700052B19369002B08BF1823382B16D90024AA
:10348000204604B0BDE8F08180251823002103AF59
:103490000093AAB27346019701F0B6FC0399012884
:1034A00008BF0C46204604B0BDE8F0811179C90779
:1034B00024D15769D2E902864FEA970C1168002F90
:1034C000654608BF8025B8F1000F13D05C2E15D3D8
:1034D00012690024002A18BF002FD1D0CDE9003294
:1034E00062467346CDF8088001F0BEFC04B0BDE82A
:1034F000F08100BF16B91269002AC8D00024204606
:1035000004B0BDE8F08100002DE9F041044600F070
:103510000DFE40F20016C2F20006F06840F270554F
:103520000130F0603068C2F2000558B130690028FF
:1035300040F007813068E16AC06A884298BF346011
:10354000FFE000BF3460F068012840F0FA802846B0
:1035500000F092FD05F1140000F08EFD05F1280049
:1035600000F08AFD05F13C0000F086FD05F15000F9
:1035700000F082FD05F1640000F07EFD05F17800A9
:1035800000F07AFD05F18C0000F076FD05F1A00059
:1035900000F072FD05F1B40000F06EFD05F1C80009
:1035A00000F06AFD05F1DC0000F066FD05F1F000B9
:1035B00000F062FD05F5827000F05EFD05F58C708F
:1035C00000F05AFD05F5967000F056FD05F5A07067
:1035D00000F052FD05F5AA7000F04EFD05F5B4703F
:1035E00000F04AFD05F5BE7000F046FD05F5C87017
:1035F00000F042FD05F5D27000F03EFD05F5DC70EF
:1036000000F03AFD05F5E67000F036FD05F5F070C6
:1036100000F032FD05F5FA7000F02EFD05F50270A0
:1036200000F02AFD05F5077000F026FD05F50C7089
:1036300000F022FD05F5117000F01EFD05F5167075
:1036400000F01AFD05F51B7000F016FD05F5207061
:1036500000F012FD05F5257000F00EFD05F52A704D
:1036600000F00AFD05F52F7000F006FD05F5347039
:1036700000F002FD05F5397000F0FEFC05F53E7026
:1036800000F0FAFC05F5437000F0F6FC05F5487013
:1036900000F0F2FC05F54D7000F0EEFC05F55270FF
:1036A00000F0EAFC05F5577000F0E6FC05F55C70EB
:1036B00000F0E2FC05F5617000F0DEFC05F56670D7
:1036C00000F0DAFC05F56B7000F0D6FC05F57070C3
:1036D00000F0D2FC05F5757000F0CEFC05F57A70AF
:1036E00000F0CAFC05F57F7000F0C6FC05F58260AD
:1036F00000F0C2FC05F2244000F0BEFC05F5876036
:1037000000F0BAFC05F24C4000F0B6FC40F2DC18C8
:10371000C2F20008404600F0AFFC08F1140738463A
:1037200000F0AAFC06F1640000F0A6FC06F13C00E3
:1037300000F0A2FC06F1500000F09EFCC6F81C80D0
:1037400037627068716A421CE06A72608842626423
:1037500088BF706200EB800005EB8000211D00F047
:10376000CDFC00F007FD306988B13068E16AC06ABD
:10377000884228BFBDE8F0814EF60450CEF200002A
:103780004FF080510160BFF34F8FBFF36F8FBDE8E3
:10379000F081000040F2001540F270564EF60458D9
:1037A000C2F20005C2F20006CEF200084FF08057C8
:1037B00003E000BF204600F0F5FCA868D0B100F09F
:1037C000B5FCA86CC468201D00F028FCE86801382E
:1037D000E860A8680138A86000F0CCFC94F85900B3
:1037E0000228EAD00128E5D070B9206B00F0DAFC9D
:1037F000E0E700BF30680228DFD3C8F80070BFF3ED
:103800004F8FBFF36F8FD8E74FF0500080F31188D0
:10381000BFF36F8FBFF34F8FFEE700002DE9F04736
:103820000A9C8246206B16460F46DDE90859910036
:10383000A5229846FCF7D7FD206B002F00EB8600F1
:10384000A0F1040020F0070656D0387884F8340040
:10385000387800284BD0787884F8350078780028BC
:1038600045D0B87884F83600B87800283FD0F8788A
:1038700084F83700F878D0B3387984F8380038798C
:10388000A8B3787984F83900787980B3B87984F866
:103890003A00B87958B3F87984F83B00F87930B336
:1038A000387A84F83C00387A08B3787A84F83D0096
:1038B000787AE0B1B87A84F83E00B87AB8B1F87A8C
:1038C00084F83F00F87A90B1387B84F84000387B68
:1038D00068B1787B84F84100787B40B1B87B84F88C
:1038E0004200B87B00281CBFF87B84F8430000200E
:1038F00084F8430003E000BF002084F83400002770
:10390000201D372D28BF3725E562C4E9135700F085
:10391000BFFB04F1180000F0BBFBC5F13800A0614B
:1039200030465146424624616462676584F85870A7
:1039300000F042FBB9F1000F206018BFC9F8004049
:10394000BDE8F08708480068006880F308884FF0F9
:10395000000080F3148862B661B6BFF34F8FBFF3E7
:103960006F8F00DF00BF000008ED00E081B0002095
:10397000009040F29800C2F2000000684FF0500141
:1039800081F31188BFF36F8FBFF34F8F013007D0E2
:10399000FEE700BF009830B9009820B9009810B930
:1039A00000980028F6D001B07047000088B040F2BF
:1039B000781AC2F2000A0DF11009EB46DAF8080095
:1039C00005681DB1C068046801E000BF002400F074
:1039D00031FE01F095FADAF810100646884220D33D
:1039E000002DCAF8106051D0A6424FD301F090FBD1
:1039F000DAF80800C068C7683D1D284600F00EFBD5
:103A000097F82800410745D400F0FE0087F8280009
:103A100084E000BF6860DAF8080039462D6100F0E4
:103A20003BFBDAF80800016831B3C068C568046878
:103A30002F1D384600F0F2FA296A2846884795F883
:103A400028004007EDD5A8692044A042E2D8DAF862
:103A50000000002800F04881002004A931C101F0D5
:103A60003FFADAF8000049460022002300F092FFF6
:103A70000028D6D138E100BFDAF80C10CAF810607F
:103A8000CAE9021001F044FB1AE100BF65B100224F
:103A900010E000BFB8693F610119B14279601FD9D8
:103AA0000AF1080021E000BFDAF80C000068B0FA63
:103AB00080F04209DAF80000A11B00F04FFC01F091
:103AC00027FB002840F0FC804EF60450CEF20000A8
:103AD0004FF080510160BFF34F8FBFF36F8FEFE066
:103AE000311B814206D20AF10C000068294600F021
:103AF000D3FA13E0DAF80000002800F01381002068
:103B000004A991C101F0ECF9DAF80000494600225D
:103B1000002300F03FFF002800F00481396A384696
:103B20008847CDE00098B0F1FF3F07DCDDE90120D8
:103B3000039990470098002800F1C280029E7069A6
:103B400010B1301D00F06AFA01F0DAF9DAF810105D
:103B5000074688420DD30098CAF8107009283FD94B
:103B6000AEE000BF6860DAF8080021462D6100F081
:103B700093FADAF80800016841B3C068C568D0F864
:103B800000802C1D204600F049FA296A2846884703
:103B900095F828004007ECD5A86940444045E1D895
:103BA000DAF80000002800F095800020CDE9040834
:103BB000069501F095F9DAF8000049460022002345
:103BC00000F0E8FE0028D4D184E000BFDAF80C1041
:103BD000CAE902100098CAF81070092800F2708033
:103BE000DFE800F00606064448620606444800BFC7
:103BF00096F82800019A40F00101B06986F8281073
:103C00008318314641F8043FBB42366106D99742DA
:103C10000AF1080007D293420AD204E0BA1A82429B
:103C200006D20AF10C00006800F036FA48E000BF46
:103C3000316A3046884796F82800400740D5DAF8C0
:103C4000000000285AD00198B16906960844002166
:103C5000CDE9041001F044F9DAF8000049460022E9
:103C6000002300F097FE58BB48E000BF96F82800FC
:103C700022E000BF96F8280040F00101019886F884
:103C800028100028B06143D0384431460AF10C02B4
:103C900041F8040F3661B84288BF0AF10802106883
:103CA00000F0FAF90CE000BF96F82800810703D471
:103CB000304600F077FA03E000F0FE0086F82800B6
:103CC000DAF800005946002200F07AFF00287FF45D
:103CD00029AF73E64FF0500080F31188BFF36F8F68
:103CE000BFF34F8FFEE700BF4FF0500080F3118805
:103CF000BFF36F8FBFF34F8FFEE700BF4FF0500051
:103D000080F31188BFF36F8FBFF34F8FFEE700BFC3
:103D10004FF0500080F31188BFF36F8FBFF34F8FC8
:103D2000FEE700BF4FF0500080F31188BFF36F8FA4
:103D3000BFF34F8FFEE70000F0B581B0044600F0FE
:103D4000F5F994F94560012E0FDB04F1240500BF5D
:103D5000286850B1284601F0A1F9002818BF00F0EA
:103D600071FBF0B2013E0128F2D8FF2684F84560CD
:103D700000F000FA00F0DAF994F94470012F0EDB3C
:103D800004F11005286850B1284601F087F9002891
:103D900018BF00F057FBF8B2013F0128F2D884F8B1
:103DA000446001B0BDE8F04000F0E4B970B50446ED
:103DB00000F040FC40F2B41CC2F2000CDCF804003D
:103DC00050B19CF80000002818BF4FF000404FF0A1
:103DD000000574BB8DE000BF40F60020C2F2000079
:103DE000C21D22F0070210F00701A0EB020318BF6A
:103DF000104600224FF47055CCE90602002918BF86
:103E000003F57055411921F00701A1F10803CCF821
:103E1000043041E90222191AC0E9003101208CF86E
:103E200000004FF00040CCE90211002C4FF00005DB
:103E30005FD020405DD124F0070000F11002600740
:103E400008BF04F10802002A4FF0000551D0DCF849
:103E5000080082424DD8604650F818EFDEF8045052
:103E600095422CD2DEF80010C1B174464D689542DF
:103E700018D20B68B3B15D68954217D21868A8B123
:103E80004568954216D20468A4B16568954215D27A
:103E90002168A6460029E9D111E000BF0CF1180005
:103EA0000DE000BF8E46204609E000BF9E46084652
:103EB00005E000BF8646184601E000BFA646DCF8D4
:103EC00004108E4514D00168DEF80040AB1A112BA7
:103ED00004604DD30EEB0205680719D04FF0500077
:103EE00080F31188BFF36F8FBFF34F8FFEE700BFE2
:103EF000002501F00DF968075BD04FF0500080F30A
:103F00001188BFF36F8FBFF34F8F00BFFEE700BF75
:103F10000CF118006B60CEF8042000BF0368AB42C0
:103F20000AD21868A8420BD20368AB4204D21868C0
:103F30001A46A842F2D304E00246184601E000BF48
:103F40001A4653686C68D618AE4202D11C44154616
:103F500054602B19834207D1DCF80430984203D017
:103F6000D0E9000323446B60AA42286018BF1560A3
:103F700001F10805DEF80400DCE90212091A914299
:103F8000CCF8081038BFCCF80C109CF800100029B1
:103F900018BF40F00040CEF80400DCF8100000210B
:103FA0000130CEF80010CCF8100001F0B1F868072D
:103FB000A3D1284670BD0000034643F66D10C0F63D
:103FC00000004FF0807C21F0010103E903106FF045
:103FD000020043F8240CA3F1440043F8202C70475E
:103FE000B0B540F2080442F6C910C2F20004C0F6AF
:103FF000000000212246FFF72FFA40F20425C2F20A
:104000000005286042F6412004F12402C0F60000B9
:104010000021FFF721FA6860B0BD0000D0E901324D
:1040200001699A60D1F804C082688445536008BF72
:104030004A60002202610868013808600868704719
:1040400044F60403C2F20003036044F20460C2F2C7
:1040500000000860802010607047000044F6604354
:10406000C2F20003036044F66000C2F20000086080
:104070004FF48070106070474FF0FF31024642F8F5
:10408000081F00214260C0E9032201607047000060
:10409000002101617047000010B5D1F800E01EF169
:1040A000010213D000F1080462681368734511D847
:1040B00053681C68744511D85A68146874450FD841
:1040C00054682368A4467345EED90BE00269D2F820
:1040D00004C007E09446224604E000BF9C4601E08D
:1040E00094461A46C1F804C0CCF808108A605160A2
:1040F000086101680131016010BD0000D0F800C006
:10410000436808619A684B608A609A689960516058
:104110000CF1010101607047DFF80C00016841F407
:10412000700101607047000088ED00E04FF0500022
:1041300080F31188BFF36F8FBFF34F8F40F2980069
:10414000C2F2000001684A1C026009B1704700BF5A
:104150004EF60450CEF200000068000608BF70471B
:104160004FF0500080F31188BFF36F8FBFF34F8F74
:10417000FEE7000040F29800C2F20000016839B189
:104180000139016018BF7047002080F31188704723
:104190004FF0500080F31188BFF36F8FBFF34F8F44
:1041A000FEE7000070B5002808BF70BD40F2B415EE
:1041B000C2F200050446287854F8041C002818BFF1
:1041C0004FF0004008420DD0A4F1080632689AB1C1
:1041D0004FF0500080F31188BFF36F8FBFF34F8F04
:1041E000FEE700BF4FF0500080F31188BFF36F8FE0
:1041F000BFF34F8FFEE700BF21EA000044F8040C34
:1042000000F018FA54F8041CA8680844A86005F1E6
:10421000180000BF0368B3420AD21868B04225D222
:104220000368B34204D218681A46B042F2D301E0E0
:10423000024618465368D418B44202D119441646AF
:1042400051607318834206D16B68984203D0D0E95D
:10425000000319447160B242306018BF166068698B
:1042600001306861BDE8704000F052BF1A465368E3
:10427000D418B442E5D1E1E74EF21000CEF20000CE
:1042800000210160816040F25001C2F20001096822
:1042900044F6D352C1F26202A1FB02124FF0FF3189
:1042A00001EB9211416007210160704744F6BC4C5C
:1042B000C2F2000CDCF8002022B3634653F8082F4A
:1042C00042B3634653F8102F52B3634653F8182F86
:1042D00062B3634653F8202F72B3634653F8282F16
:1042E00082B3634653F8302F92B3634653F8382FA6
:1042F000002A18BF7047072219600CEBC201486002
:10430000704700BF0022634619600CEBC201486091
:10431000704700BF012219600CEBC2014860704772
:10432000022219600CEBC201486070470322196039
:104330000CEBC20148607047042219600CEBC2010B
:1043400048607047052219600CEBC2014860704755
:10435000062219600CEBC2014860704770B5154623
:104360000E460446FFF7E2FE94F84400FF2804BF1F
:10437000002084F8440094F84500FF2804BF002082
:1043800084F84500FFF7F6FEA06B28B12046BDE893
:104390007040FFF7D1BC00BF04F1240031462A462B
:1043A00000F092F82046BDE87040FFF7C5BC000061
:1043B00070B588B340F20015C2F200050446686982
:1043C00050B14FF0500080F31188BFF36F8FBFF3EF
:1043D0004F8F00BFFEE700BF686901306861AE69BA
:1043E00028680430FFF71AFE2868A419446005D332
:1043F000286A29680431FFF74FFE08E0E869296858
:104400000431FFF749FEE86A844238BFEC6200F0ED
:104410007FFE002818BF70BD4EF60450CEF200009B
:104420004FF080510160BFF34F8FBFF36F8F70BDAE
:1044300040F20011C2F200018A6B0260896941609A
:104440007047000040F20010C2F200000121016339
:104450007047000070B5D8B140F20014C2F20004F9
:104460000D4621681831FFF717FEA6692068043051
:10447000FFF7D4FD681C15D02068AD19456019D32D
:10448000206A21680431BDE87040FFF705BE00BF17
:104490004FF0500080F31188BFF36F8FBFF34F8F41
:1044A000FEE700BF54F8500B011D2046BDE87040E8
:1044B000FFF724BEE06921680431FFF7EDFDE06AF3
:1044C000854238BFE56270BDF0B581B0C0B140F241
:1044D0000014C2F200040D46216816461831FFF799
:1044E0000DFEA76920680430FFF798FD96B154F8D7
:1044F000500B011D204601B0BDE8F040FFF7FEBDA6
:104500004FF0500080F31188BFF36F8FBFF34F8FD0
:10451000FEE700BF2068ED19456007D3206A2168D7
:10452000043101B0BDE8F040FFF7B6BDE069216895
:104530000431FFF7B1FDE06A854238BFE56201B0A2
:10454000F0BD000010B588B00020CDE9050006A838
:1045500005A904AAFFF774FD059800283ED0069C23
:10456000002C45D05C21049A079107995C2949D118
:1045700007992063022084F8590007A80021CDE99B
:10458000001043F29570C0F6000028A100230294A9
:10459000FFF744F92046FEF7B7FF079840F20014F2
:1045A000C2F20004A062B0B100F02AFE411C33D078
:1045B000012810D14FF0500080F31188BFF36F8FA6
:1045C000BFF34F8F4FF0FF30E062012020610020E9
:1045D000A06100F095F808B010BD00BF4FF050008A
:1045E00080F31188BFF36F8FBFF34F8FFEE700BFDB
:1045F0004FF0500080F31188BFF36F8FBFF34F8FE0
:10460000FEE700BF4FF0500080F31188BFF36F8FBB
:10461000BFF34F8FFEE700BF4FF0500080F31188CB
:10462000BFF36F8FBFF34F8FFEE700BF49444C4588
:104630000000000040F20010C2F2000041690131A8
:104640004161704780B540F2001EC2F2000EDEF8F4
:10465000141019B10121CEF8301080BD0021CEF820
:104660003010DEF8241040F2705C01EB8103C2F2DE
:10467000000C5CF823208AB101EB81020CEB820371
:1046800053F8042F5268181D82421A6020D0D06857
:10469000CEF80000CEF8241080BD00BF0CEB8302E2
:1046A000A2F12803E1B15A6922BB012918D01A6886
:1046B00012BB022914D053F8142CFAB903290FD0D5
:1046C00053F8282C0439002AA3F15003EAD0D3E789
:1046D00052681A60D068CEF80000CEF8241080BD71
:1046E0004FF0500080F31188BFF36F8FBFF34F8FEF
:1046F000FEE700BF0139BFE70239BDE70339BBE779
:10470000B0B584B04EF2004CCEF2000C4CF27021E9
:10471000C4F20F11DCF800294B1C9A420AD14FF069
:10472000500080F31188BFF36F8FBFF34F8F00BF2E
:10473000FEE700BFDCF800298A4209D14FF05000A3
:1047400080F31188BFF36F8FBFF34F8FFEE700BF79
:104750009CF800100291FF218CF800109CF80010CA
:104760008DF807109DF8071001F0500240F2D411A7
:10477000C2F200010A7007224A609DF90720B2F1D7
:10478000FF3F69DC032200BFD31C4B609DF807008C
:1047900040008DF807009DF90700B0F1FF3F23DCD2
:1047A000931C4B609DF8070040008DF807009DF9B1
:1047B0000700B0F1FF3F17DC531C4B609DF807006A
:1047C00040008DF807009DF90700B0F1FF3F0BDCBA
:1047D0004A609DF80700043A40008DF807009DF9F3
:1047E00007000028D0D4131D032B35D14FF440709F
:1047F000486002988CF80000DCF8200940F4700052
:10480000CCF82009DCF8200940F07040CCF82009F1
:10481000FFF732FD40F29804C2F200040025256043
:10482000FFF77AFC4EF63470CEF20000016841F0DA
:1048300040410160FFF786F8FFF704FF0395206809
:104840004FF0500181F31188BFF36F8FBFF34F8F8B
:10485000013011D0FEE700BF4FF0500080F3118807
:10486000BFF36F8FBFF34F8FFEE700BF039830B9E0
:10487000039820B9039810B903980028F6D00020B7
:1048800004B0B0BD80B54FF0500080F31188BFF385
:104890006F8FBFF34F8F00F039FB30B14EF60450ED
:1048A000CEF200004FF080510160002080F31188AB
:1048B00080BD000070B582B070B11C46B3B1F9B9CB
:1048C000F2B14FF0500080F31188BFF36F8FBFF348
:1048D0004F8F00BFFEE700BF4FF0500080F31188FC
:1048E000BFF36F8FBFF34F8FFEE700BF4FF0500055
:1048F00080F31188BFF36F8FBFF34F8FFEE700BFC8
:1049000051B14AB94FF0500080F31188BFF36F8F57
:10491000BFF34F8FFEE700BF50230193019B502B45
:104920002ED1019B069E012384F84630002908BF42
:1049300022462260C4E90F01FFF7F8FB2068D4E9A2
:104940000F12002502FB0103013901FB0201A563DF
:10495000C4E90103FF20E16084F8440084F84500C5
:1049600004F11000FFF788FB04F12400FFF784FB3B
:10497000FFF700FC204684F84C6002B070BD00BF19
:104980004FF0500080F31188BFF36F8FBFF34F8F4C
:10499000FEE700002DE9F04F83B00292C0B11D4642
:1049A00017460E460446E9B1022D03D1E06B0128FB
:1049B00040F0888000F094FA10BB0FB34FF0500025
:1049C00080F31188BFF36F8FBFF34F8FFEE700BFF7
:1049D0004FF0500080F31188BFF36F8FBFF34F8FFC
:1049E000FEE700BF206C0028DED04FF0500080F3BF
:1049F0001188BFF36F8FBFF34F8F00BFFEE700BF7B
:104A0000FFF794FBA06B022D66D0E16B884263D365
:104A100004F1100801206F460DF108090DE000BFF8
:104A20002046FFF789F900F073FBFFF77FFBA06BCF
:104A3000E16B88424FF000004ED30299002973D0F9
:104A4000C00702D03846FFF7F3FCFFF793FBFFF7F0
:104A5000F1FDFFF76BFB94F84400FF2804BF002032
:104A600084F8440094F84500FF2804BF002084F82F
:104A70004500FFF77FFB3846494600F073F90028F0
:104A800058D1FFF753FBD4F838A0D4F83CB0FFF767
:104A900071FBDA45C4D102994046FFF7DBFC2046A2
:104AA000FFF74AF900F034FB0028BED14EF604505F
:104AB000CEF200004FF080510160BFF34F8FBFF383
:104AC0006F8FB2E74FF0500080F31188BFF36F8F04
:104AD000BFF34F8FFEE700BFA76B226CD2B19DB32F
:104AE000E0683146FBF73AFCE168206C2268091A5D
:104AF0009142E16003D2A16840420844E060A81EF0
:104B0000B0FA80F040093946002F18BF0121084053
:104B10003F1A26E02068002520BBA06800F078FA44
:104B2000A56005461EE000BFFFF724FB002003B090
:104B3000BDE8F08F2046FFF7FFF800F0E9FA00200B
:104B400003B0BDE8F08F00BF60683146FBF706FC9C
:104B5000216CD4E9010208449042606001D32068CE
:104B600060600025781CA06354F8240FA0B1204693
:104B700000F094FA50B14EF60450CEF200004FF01F
:104B800080510160BFF34F8FBFF36F8FFFF7F2FAD1
:104B9000012003B0BDE8F08F002DF7D04EF6045091
:104BA000CEF200004FF080510160BFF34F8FBFF392
:104BB0006F8FFFF7DFFA012003B0BDE8F08F000030
:104BC0002DE9F04F83B0029290B116460D4604468F
:104BD000002947D000F084F9A0B99EB14FF05000F1
:104BE00080F31188BFF36F8FBFF34F8FFEE700BFD5
:104BF0004FF0500080F31188BFF36F8FBFF34F8FDA
:104C0000FEE700BFFFF792FAD4F838A0BAF1000F20
:104C100036D0226C52B1D4E902308118E160994259
:104C200024BF2168E1602846FBF798FBAAF1010048
:104C3000A06354F8100F70B1204600F02FFA50B165
:104C40004EF60450CEF200004FF080510160BFF3E9
:104C50004F8FBFF36F8F0124FFF78CFA204603B00C
:104C6000BDE8F08F206C0028B4D04FF0500080F3E6
:104C70001188BFF36F8FBFF34F8F00BFFEE700BFF8
:104C800004F1240801206F464FF000090DF1080BD4
:104C90002EE000BFFFF76EFAFFF7CCFCFFF746FAF5
:104CA00094F84400FF2808BF84F8449094F8450025
:104CB000FF2808BF84F84590FFF75CFA384659464C
:104CC00000F050F8E0B12046FFF736F800F020FA87
:104CD000FFF72CFAA66BFFF74DFA002E3CD0FFF73A
:104CE00025FAD4F838A00020BAF1000F7FF491AF74
:104CF000029949B3C007CDD03846FFF799FBC9E701
:104D0000FFF714FAA66BFFF735FA2EB12046FFF72E
:104D100013F800F0FDF9E2E702994046FFF79AFB2D
:104D20002046FFF709F800F0F3F90028D7D14EF636
:104D30000450CEF200004FF080510160BFF34F8F5E
:104D4000BFF36F8FCBE700BF0024FFF713FA2046B5
:104D500003B0BDE8F08F00BF0024204603B0BDE8DB
:104D6000F08F0000B0B5D8B10D4619B30446FFF777
:104D7000DDF940F2001CC2F2000CDCF818202968B2
:104D80004B1C21D0D4E9000EDCF83830834221D00E
:104D900072451FD30124FFF7EDF92046B0BD00BFD7
:104DA0004FF0500080F31188BFF36F8FBFF34F8F28
:104DB000FEE700BF4FF0500080F31188BFF36F8F04
:104DC000BFF34F8FFEE700BF0024FFF7D3F9204663
:104DD000B0BD00BFA2EB0E0291420DD9881A286027
:104DE000DCF838002060DCF8180060600024FFF771
:104DF000C1F92046B0BD00BF002001242860FFF7A4
:104E0000B9F92046B0BD00002DE9F04383B0074654
:104E10009000984615468946FEF7C8FFF8B1064649
:104E20005C20FEF7C3FFB8B10446DDE90A1000229A
:104E3000266384F85920CDE90010384649462A46B1
:104E400043460294FEF7EAFC2046FEF75DFB012094
:104E500003B0BDE8F08300BF3046FFF7A3F94FF081
:104E6000FF3003B0BDE8F08370B586B00B9CCCB1C9
:104E70000C9E0EB35C250495049D5C2D26D1049DEB
:104E8000DDF828C0022586F8595005AD3463CDE918
:104E900000C50296FEF7C2FC3046FEF735FB0598CA
:104EA00006B070BD4FF0500080F31188BFF36F8FD4
:104EB000BFF34F8FFEE700BF4FF0500080F3118823
:104EC000BFF36F8FBFF34F8FFEE700BF4FF050006F
:104ED00080F31188BFF36F8FBFF34F8FFEE70000A1
:104EE00040F20010C2F20000016900290FBF01204A
:104EF0004069B0FA80F0400918BF400070470000D8
:104F000040F20010C2F20000806970472DE9F043C2
:104F100081B040F20016C2F20006706940B1706BB9
:104F2000002401307063204601B0BDE8F08300BF6B
:104F3000B06910F10109C6F8189020D3F069006833
:104F400050B14FF0500080F31188BFF36F8FBFF363
:104F50004F8F00BFFEE700BFF069316AF161306238
:104F6000B06B0130B063F069006828B1F069C068C7
:104F7000C068406802E000BF4FF0FF30F062F06AA6
:104F800040F270588145C2F2000801D200242EE0A0
:104F9000F0690024006813E0F86A716A884288BFEB
:104FA000706200EB800008EB80002946FFF7A6F84E
:104FB000F86A3168C96AF269884228BF012410681A
:104FC00090B1F069C068C7683D4655F8040F814547
:104FD0000CD32846FFF722F8B86A0028DCD007F186
:104FE0001800FFF71BF8D7E74FF0FF30F06230688A
:104FF000C06A00EB800058F82000012888BF012417
:10500000306B002818BF0124204601B0BDE8F083B2
:1050100070B588B140F20016C2F20006044630684E
:10502000A0420BD04FF0500080F31188BFF36F8F78
:10503000BFF34F8FFEE700BF002070BD206D18B397
:10504000411EE06AE26C216590424FF0000008BF0B
:1050500070BDC1B9251D2846FEF7E0FFE06CC0F128
:105060003801E062A161716A884240F2705188BFE4
:10507000706200EB8000C2F2000101EB8000294663
:10508000FFF73CF8012070BD4FF0500080F311880D
:10509000BFF36F8FBFF34F8FFEE7000070B5C0689E
:1050A000C5686DB105F118042046FEF7B7FF40F260
:1050B0000016C2F20006706960B106F164001AE0E1
:1050C0004FF0500080F31188BFF36F8FBFF34F8F05
:1050D000FEE700BF2C1D2046FEF7A0FFE86A716ABC
:1050E000884240F2705188BF706200EB8000C2F2CB
:1050F000000101EB80002146FFF700F8E86A316803
:10510000C96A884292BF00200120306370BD000050
:105110002DE9F04140F20015C2F20005686968B15E
:10512000FFF704F8686901386861686980B1002494
:10513000FFF720F82046BDE8F08100BF4FF0500097
:1051400080F31188BFF36F8FBFF34F8FFEE700BF6F
:10515000E8680028EBD0686E88B340F27056C2F25F
:1051600000064FF0010800BF286FC76807F118005C
:10517000FEF754FF3C1D2046FEF750FFF86A696AAF
:10518000884288BF686200EB800006EB8000214601
:10519000FEF7B4FFF86A2968C96A884228BFC5F8D3
:1051A0003080686E0028DFD1E869006820B1E869C6
:1051B000C068C068406801E04FF0FF30E8626C6B87
:1051C0004CB10126FFF7A2FE002818BF2E63013C58
:1051D000F8D100206863286B0028A8D04EF6045050
:1051E000CEF200004FF080510160BFF34F8F0124D9
:1051F000BFF36F8FFEF7BEFF2046BDE8F0810000D1
:1052000070B586B0FEF792FF40F27816C2F2000643
:10521000306808BB06F114042046FEF72DFF06F1A6
:1052200028052846FEF728FF40F2804240F220532E
:10523000C6E902450025C2F20002C2F200030A20BC
:1052400010210095FFF736FB306028B146F6A671B5
:10525000C0F60001FFF72AF8FEF78CFF3068D8B1DE
:105260000020CDE9040005A804A903AAFEF7F6FE74
:10527000DDE903200221059DCDE9001043F6AD10C4
:10528000C0F6000009A100230295FFF7EDFD706054
:1052900010B1012006B070BD4FF0500080F31188AE
:1052A000BFF36F8FBFF34F8FFEE700BF546D7220C7
:1052B0005376630003B401984100009850EAC1207E
:1052C00018BF04204A0D18BF40F0010040F2FF72E1
:1052D000B2EB515F08BF40F00200012808BF052073
:1052E00002B07047000000002DE9F04D2DED040BD9
:1052F0002DED0E8B94B0DDE92350259CDDF888A0C0
:1053000025F0004624F00048BAF1000F14BF012137
:10531000002101EB4502FC4953184A1093422AD35D
:10532000002814BF0123002303EB44030B44F74977
:105330008B4220D358EA00019FEDF5AB76D0DFF821
:10534000D8B35D4503D1BAF1000F05D188E0BAF1B9
:10535000000F08BF002100D0012101EB450111F52C
:10536000001F08D8002814BF0121002101EB4401CF
:1053700011F5001F0BD99DED241B9DED220B14B0E0
:10538000BDEC0E8B04B0BDE8F04D00F071BE0027FF
:10539000002DBCBFE149884521DAE1498845A8BF15
:1053A00002271CDAC3451ADCDE4901EB2851142917
:1053B00008DDC1F1340220FA02F101FA02F2824260
:1053C0000DD108E058B9C1F1140228FA02F101FA2E
:1053D00002F2424503D101F00101C1F1020756EA90
:1053E0000A0124D1002C22DA002D18BF022F01D08F
:1053F000012F0AD00220FBF740F814B0BDEC0E8B51
:1054000004B0BDE8F04D00F01BBE0220FBF735F8FC
:1054100000F016FE51EC100B00F0A9FE41EC100B51
:1054200014B0BDEC0E8B04B0BDE8F08D18E09FED1C
:10543000BE9B9FEDBF8B002871D1B848804522D11B
:1054400005F1804010F5801008BFBAF1000F07D0B9
:10545000B3450ADC002CA8BF9DED240BE0DA0DE07B
:10546000B0EE4A0AF0EE6A0ADAE7002C06DA9DEDA1
:10547000240B51EC100B00F07AFE6FE0AE4878443C
:1054800090ED000BCCE7D8454DD1002C48DA2EB179
:1054900086423AD1BAF1000F42D126E0BAF1000FAC
:1054A00013D00220FAF7E9FF00F0FEFD8DED020BAC
:1054B0009DED220B8DED000B10EE900A039961F328
:1054C0001E0003909DED020BAAE78DED029B9DED62
:1054D000220B19EE901A10EE900A8DED000B61F37D
:1054E0001E0003909DED020B9AE78DED028B9DED62
:1054F000220B18EE901A10EE900A8DED000B61F35E
:105500001E0003909DED020B8AE709DA9DED220B48
:1055100051EC1A0B53EC102B00F024FF1EE020E09E
:105520009DED220B7CE786421BDAB4F1804F0DD053
:10553000A4F10050B0F1FF5013D1002D11DB9DED0F
:10554000220B51EC100B00F0DBFD07E09DED220B70
:1055500053EC102B51EC100B00F0CABC41EC100BBB
:105560005EE79DED220B51EC100B00F0BDFDBAF192
:10557000000FCDE90A0142D19FED710B46B3A6F1B0
:10558000E040B0F17F600CD05E4538D1002D00DAEC
:10559000A7B3022F0CBF01204FF0FF3001F03CF801
:1055A000DCE7002D01DD002C0DDA002D01DD002CE3
:1055B0001FDB002D16DA002C14DB012F08BF9FED36
:1055C000620B3FF42DAFB0EE490AF0EE690A27E70F
:1055D000022F18BF002D0CD0012F0AD1002DFFF68D
:1055E0001FAF06E0002DB8BF002C08DA012F3FF4F2
:1055F00017AFB0EE480AF0EE680A11E71BE0012091
:1056000000EBE57050EA070115D0791EB0EE4A8A2A
:10561000F0EE6A8A084308BF9FED4D8B4E48002587
:10562000804570DD4D494E48884514DDB0420DDBA4
:10563000002C19DB2FE00120FAF71FFF14B0BDEC9E
:105640000E8B04B0BDE8F04D00F01EBDB34502DC8A
:10565000002C09DC1FE0864202DA002C1BDA03E092
:105660005E452BDD002C16DD0220FAF706FF00F068
:105670001BFD8DED020B53EC192B51EC180B01F0B7
:105680001FF8CDE900010399019861F31E00039012
:105690009DED020BC4E60220FAF7EFFE00F014FDC8
:1056A00010EE901A18EE900A8DED020B8DED008B26
:1056B00061F31E0003909DED020BB1E69DED0A0B18
:1056C00053EC1A2B51EC100B01F006FA9FED260B50
:1056D000CDE90A0153EC102B9DED0A0B51EC100B98
:1056E00000F0EEFF9FED221B53EC112B01F01CF993
:1056F0009DED0A1B53EC112B00F0E2FF9FED1E1BEA
:1057000053EC112B3CE08CE0FFFF1F00FFFF0F006C
:10571000000000000000F03F0000F03F0000F07FBC
:105720000000404301FCFFFF000000000000F07F8C
:105730000000000000000000B61A00000000000099
:105740000000000000000080000000000000F0FFEA
:10575000000000000000F0BF0000E0410000F04346
:10576000FFFFEF3F00000000000000000000D03FFE
:10577000555555555555D53F000000000000E03FF8
:1057800001F0D2F89DED0A0B41EC190B53EC102BF4
:1057900051EC100B00F094FF53EC192B00F090FF2C
:1057A0009DED0A0B41EC1B0B53EC102B9FEDFE0BF8
:1057B00051EC100B00F084FF41EC190B9FEDFC0B3A
:1057C00051EC1B0B53EC102B00F07AFF41EC1B0B40
:1057D0009FEDF90B53EC102B9DED0A0B51EC100BC8
:1057E00000F06EFF53EC1B2B01F076F941EC1B0B24
:1057F00051EC190B53EC1B2B00F0F8FC0490CDE995
:1058000004519DED040B53EC192B51EC100B01F0DE
:1058100063F953EC1B2B01F087F841EC100B00F0FF
:10582000A9B90020B6F5801F0EDA9FEDE50B53EC09
:10583000102B9DED0A0B51EC100B00F041FFCDE950
:105840000A016FF034000E4600EB2650A0F2FF373D
:10585000C6F31300DC4940F07F6646F040568842AC
:10586000D8BF002408DDD9498142C8BF012403DC28
:105870000024A6F580167F1CD548784400EBC408A8
:105880000B9698ED000B53EC102B9DED0A0B51EC91
:10589000100B01F021F998ED000B41EC1B0B53ECC0
:1058A000102B9DED0A0B51EC100B00F09FFC41EC0E
:1058B000100B51EC1A0B53EC102B00F053FD41EC84
:1058C0001C0B51EC1B0B53EC1C2B00F0F9FE41ECB4
:1058D000190BC0488DED0E9B78440E9590ED000B92
:1058E0004FF0005040EA660000EB84408DED120B53
:1058F00000F50020139098ED000B53EC102B9DED5C
:10590000120B51EC100B01F0E7F89DED0A1B53EC64
:10591000112B01F009F841EC100B53EC102B9DED0D
:105920000E0B51EC100B00F0CBFE9DED120B41EC79
:105930001D0B53EC102B9DED0E0B51EC100B00F0DA
:10594000BFFE53EC1B2B00F0EFFF53EC1D2B01F0BF
:10595000C3F853EC1C2B00F0B3FE41EC1C0B53ECD2
:10596000192B51EC190B00F0ABFE41EC1B0B9A48C4
:105970000621B0EE4B0AF0EE6B0A784400F0E4FA30
:10598000B0EE401AF0EE601AB0EE41DAF0EE61DAF5
:1059900053EC1B2B51EC1B0B00F092FE53EC1D2B18
:1059A00000F08EFE9DED0E0B41EC1B0B53EC192B02
:1059B00051EC100B00F01AFC53EC1C2B00F080FE95
:1059C00053EC1B2B00F012FC9DED0E0B41EC1B0B5E
:1059D00053EC102B51EC100B00F072FE41EC1D0B40
:1059E00053EC1D2B9FED7EEB51EC1E0B00F0FEFBEC
:1059F00053EC1B2B00F0FAFB1290CDE912519DEDF8
:105A0000120B53EC1E2B51EC100B01F065F853EC0C
:105A10001D2B01F061F853EC1B2B00F085FF9DED71
:105A2000120B41EC1D0B53EC102B9DED0E0B51ECAA
:105A3000100B00F045FE41EC1B0B53EC192B51EC05
:105A40001D0B00F03DFE9DED120B41EC190B53ECCC
:105A5000102B51EC1C0B00F033FE53EC192B00F013
:105A6000C5FB41EC190B51EC1B0B53EC192B00F04F
:105A7000BDFB0490CDE904519DED040B53EC1B2BB1
:105A800051EC100B01F028F853EC192B00F04CFFEF
:105A90009DED040B41EC190B53EC102B9FED520BB9
:105AA00051EC100B00F00CFE41EC1B0B9FED500B6A
:105AB00051EC190B53EC102B00F002FE9DED040B82
:105AC00041EC190B53EC102B9FED4B0B51EC100BD1
:105AD00000F0F6FD53EC192B00F088FB41EC100BA5
