:020000040800F2
:1000000038550020390200083D2F0008152D000842
:10001000392F00087508000811370008000000009B
:10002000000000000000000000000000D1300008C7
:100030009108000800000000412F0008FD30000872
:10004000530200085302000853020008530200083C
:10005000530200085302000853020008530200082C
:10006000530200085302000853020008530200081C
:1000700085080008530200085302000853020008D4
:1000800053020008530200085302000853020008FC
:1000900079080008530200085302000853020008C0
:1000A00053020008530200085302000853020008DC
:1000B00053020008530200085302000853020008CC
:1000C00053020008530200085302000853020008BC
:1000D00053020008530200085302000853020008AC
:1000E000530200085302000853020008530200089C
:1000F000530200085302000853020008530200088C
:10010000530200085302000853020008530200087B
:10011000530200085302000853020008DD310008B2
:10012000530200085302000853020008530200085B
:10013000530200085302000853020008530200084B
:10014000530200085302000853020008530200083B
:10015000530200085302000853020008530200082B
:10016000530200085302000853020008530200081B
:100170005302000853020008530200080000000068
:10018000530200085302000800F002F800F045F89E
:100190000AA090E8000C82448344AAF10107DA45E2
:1001A00001D100F03AF8AFF2090EBAE80F0013F0EF
:1001B000010F18BFFB1A43F001031847247F00000A
:1001C000447F0000103A24BF78C878C1FAD852079B
:1001D00024BF30C830C144BF04680C6070470000C1
:1001E0000023002400250026103A28BF78C1FBD840
:1001F000520728BF30C148BF0B6070471FB507F0DA
:1002000016FE9DE8030000F01DFA00F029F91FBD5D
:1002100010B5002000F04CFA10BD00F076FA11463F
:10022000FFF7ECFF04F088FA00F0AEFA03B4FFF732
:10023000EFFF03BC00F0DCF909488047094800479C
:10024000FEE7FEE7FEE7FEE7FEE7FEE7FEE7FEE786
:10025000FEE7FEE704480549054A064B70470000E3
:10026000C931000889010008384F002038550020A6
:10027000385100203851002053EA020C00F0698008
:100280002DE9F04B4FF00006002B1FBFB3FA83F5AA
:1002900003FA05F424FA05F65E4012BF1643B2FADB
:1002A00082F502FA05F4C5F120051EBF22FA05FC0D
:1002B00044EA0C04203556EA044C4FEA144418BFB3
:1002C000641C4FF000084FF00009904271EB030CE2
:1002D00039D3002919BFB1FA81F701FA07F6B0FA4C
:1002E00080F700FA07F6C7F120071EBF20FA07FCC7
:1002F00046EA0C062037B6FBF4FCA7EB0507103FD7
:1003000007F01F0BCBF120062CFA06F60CFA0BFBBC
:1003100044BFB3460026202FA4BF5E464FF0000B1B
:100320005BEA060C08BF4FF0010B19EB0B0948EB19
:100330000608ABFB027C06FB02CC0BFB03CCC01B0C
:1003400071EB0C01C1E70B46024641464846BDE849
:10035000F08B13B5084318BF4FF0FF300146AFF3E1
:100360000080BDE81C4070470B460146184600F06F
:10037000F5B8032A40F2308010F0030C00F015802D
:1003800011F8013BBCF1020F624498BF11F801CB98
:1003900000F8013B38BF11F8013BA2F1040298BFFD
:1003A00000F801CB38BF00F8013B11F0030300F067
:1003B000EC80083AC0F0088051F8043B083A51F844
:1003C00004CBA0E80810F5E7121D5CBF51F8043B10
:1003D00040F8043BAFF30080D20724BF11F8013B83
:1003E00011F801CB48BF11F8012B24BF00F8013BE5
:1003F00000F801CB48BF00F8012B704702F0FF0363
:1004000043EA032242EA024200F002B84FF000023F
:1004100000B5134694469646203922BFA0E80C50FA
:10042000A0E80C50B1F12001BFF4F7AF090728BFD5
:10043000A0E80C5048BF0CC05DF804EB890028BF51
:1004400040F8042B08BF704748BF20F8022B11F07A
:10045000804F18BF00F8012B7047704770477047F6
:1004600070B5064C7C44064D7D4404E0204601688E
:1004700008448047241DAC42F8D170BD987C000030
:10048000987C000070B5064600F0B8F8056806F1E3
:100490000B0020F00704B4429CBF002070BD2B4627
:1004A0006A68BAB11068A04210D304F1080188420A
:1004B0003CBF5068586007D35168101941601168FB
:1004C000091B016058601460101D70BD134652680E
:1004D000002AE7D12146284600F0A0F80028DED106
:1004E00070BD70B50446051F00F088F80068002C48
:1004F00014BF446870BD002C18BFAC423CBF2046FE
:100500006468F8D301680A18AA4218BF456003D18D
:100510002A6805461144016028684119A1421CBFA0
:100520006C6070BD6168696021680844286070BDB6
:1005300010B500F06BF8006810BD10B5044600F06F
:1005400065F8046010BD10B5002000F0D2F8FFF788
:100550005FFEBDE81040012000F04AB82DE9F041EF
:10056000074615460E461020FFF78CFF04000AD000
:100570006760C4E9026500F045F801682160046025
:100580000020BDE8F0810120FBE710B5203AC0F063
:100590000B80B1E81850A0E81850B1E81850A0E856
:1005A0001850203ABFF4F5AF5FEA027C24BFB1E8EF
:1005B0001850A0E8185044BF18C918C0BDE8104032
:1005C0005FEA827C24BF51F8043B40F8043B08BF3B
:1005D0007047D20728BF31F8023B48BF11F8012B02
:1005E00028BF20F8023B48BF00F8012B70470000ED
:1005F00001491820ABBEFEE7260002000048704704
:10060000D8000020004870470801002000487047CB
:10061000D0000020704770477047704738B50446D7
:100620000A4600206946AFF30080002808BF38BDA5
:1006300002460099204600F08DF8012038BD0120C7
:1006400000F0C8B8F8B5AFF30080054600200C46AE
:10065000102000BF0646A819A0420DD932466946AF
:100660000020AFF30080070008BF00F0B3F8009847
:10067000A04218BF0546C419FFF7C0FF0560074632
:10068000F01D20F007004619284600F00AF8B44291
:1006900008BFF8BDA21B31463868BDE8F84000F03D
:1006A00059B800210160C0E901107047102070475F
:1006B0002DE9F0410646FFF7A5FF8046454613E0C9
:1006C00016B1E068B0420ED120682860D4E901017B
:1006D000D8F8007088472046FFF703FFD8F80000DD
:1006E000B842EBD100E025462C68002CE8D1BDE8EB
:1006F000F08110B500F056F8BDE8104000F04DB89C
:1007000000487047D000002070477546FFF7F8FF9B
:10071000AE4605006946534620F00700854618B0EE
:1007200020B5FFF797FDBDE820404FF000064FF0E1
:1007300000074FF000084FF0000BAC46ACE8C009D2
:10074000ACE8C009ACE8C009ACE8C00921F0070179
:100750008D467047034640688C46002818BF884283
:100760003CBF03464068F8D318681844884207D055
:100770000CF1030020F00700001D411A521A014637
:10078000081D0A60FFF7ADBE10B50446AFF3008048
:100790002046BDE81040FFF749BD002801D0FFF713
:1007A00027BF704710B5002102A000F01AF8012001
:1007B00010BD0000534947414252543A2041626EF5
:1007C0006F726D616C207465726D696E6174696FB2
:1007D0006E00000010B500F01DF8BDE81040FFF7F6
:1007E000DCBF70B505460C460A2000E06D1C00F029
:1007F00039F835B128780028F8D102E0641C00F0FF
:1008000031F814B120780028F8D1BDE870400A20F2
:1008100000F028B810B5012805D0002103A0FFF78B
:10082000E0FF012010BD09A1F8E70000534947523D
:10083000544D454D3A204F7574206F6620686561B0
:1008400070206D656D6F7279000000003A20486578
:100850006170206D656D6F727920636F7272757053
:100860007465640008B569468DF800000320ABBECE
:1008700008BD0000FEE7000040F28830C2F2000030
:1008800000F084B940F2B030C2F2000000F0EEBBDC
:100890007047000072B600BFFEE7000090F820200D
:1008A000013A012A08D8006800F1140200201368F8
:1008B00019431160704700BF00F1240201204FF47A
:1008C00080211368194311607047000010B590F83B
:1008D00020E0D0F800C0AEF1010EBEF1010FDCF84F
:1008E00008E011D81EF0E05F18D0CEF3016E0120B1
:1008F00000FA0EF018608B68D3B14868CC6844EAFF
:10090000C000034318E000BF00F1240101204FF4B0
:1009100080220B681A430A6010BD00BF00F1240159
:1009200001204FF400120B681A430A6010BD00BF8B
:100930000868CB6843EA40530CEB0E10C0F88031D6
:100940000B69C0F88431097D012905D100F5C27118
:100950000B6843F480730B605168C0F88C11126807
:1009600000F5C071C0F88821002001220B681A43ED
:100970000A6010BDB0B590F82020013A012A2FD8A6
:1009800046F20060C4F20000026842F00102026018
:10099000026822F47C520260D1F814E0CC694A6A01
:1009A0000368012C43EA022202600EF01F024FF09E
:1009B000010303FA02F2C3696FEA020C23EA02039D
:1009C000C36113D02CBBC36803EA0C03C360CB68BC
:1009D0008C8844EA034300EBCE0423640B4611E009
:1009E000416A41F4802141620120B0BDC3681343D4
:1009F000C3600B688C8844EA034300EBCE04236495
:100A000001F10C038C681B8843EA044300EBCE041D
:100A1000636443688D6943EA0204D1F810E0096A0F
:100A2000002D08BF03EA0C0444604369BEF1000FC7
:100A300043EA020408BF03EA0C040129446102D11D
:100A4000C1691143C161016821F001010160002009
:100A5000B0BD00007047000010B590F82040013C88
:100A6000012C7BD8D0F800C0002900F08180DCF890
:100A70001040A40700F081800CEB011CDCF8B041B1
:100A80000CF5D87E14F004049460DCF8B04119BF72
:100A9000E4085460640D1460DEF800400CF5DA7E62
:100AA00004F00204D460DCF8B44124075ABFDEF835
:100AB000004004F00F0408241461DEF8004000290F
:100AC000C4F307249461DEF800404FEA14445461F3
:100AD000DCF8B8211A70026802EB0112D2F8B821D2
:100AE0004FEA12225A70026802EB0112D2F8B821C2
:100AF0004FEA12429A70026802EB0112D2F8B82152
:100B00004FEA1262DA70026802EB0112D2F8BC21DD
:100B10001A71026802EB0112D2F8BC214FEA1222CC
:100B20005A71026802EB0112D2F8BC214FEA12425C
:100B30009A71026802EB0112D2F8BC214FEA1262EC
:100B4000DA71006814BF00F1100100F10C010020FF
:100B500020220B681A430A6010BD00BF00F1240177
:100B600001204FF480220B681A430A6010BD00BFB9
:100B7000DCF80C40A4077FF47FAF00F124010120D2
:100B80004FF400120B681A430A6010BD2DE9F04FB4
:100B900081B0044600684669D0F804908768D0F8B0
:100BA0000CB0D0F810A0D0F81880F10704D10025BF
:100BB00030071DD424E000BFF90710D00121BA0787
:100BC000816009D4780700F1AF80380700F1B68062
:100BD000204600F03DFA02E0204600F03BFA0025F6
:100BE000F80500F18780F80300F1B180300707D5E0
:100BF0001BF0100004D0206845F400751021C1607E
:100C0000700708D51BF0080005D020680821C160D6
:100C1000204600F0A1F9B00706D52068C06880071B
:100C200002D0204600F09AF9700607D51AF010009D
:100C300004D0206845F4806510210161B00608D514
:100C40001AF0080005D0206808210161204600F054
:100C5000CBF9F00606D520680069800702D020464F
:100C600000F0C4F9B00308D519F0100005D02068D1
:100C700010214160204600F0BBF9F00308D519F0BF
:100C8000080005D0206808214160204600F0ECF9FA
:100C9000300440F19B805FEA497040F1948006F493
:100CA000807008EA102028435FEA8871014648BF37
:100CB00041F00201B20558BF01465FEA48700D4697
:100CC00048BF45F00405700558BF0D46300540F19A
:100CD0007A8018F0700000F076801038000905283E
:100CE0006CD8DFE800F003595D61656945F00805DF
:100CF00064E000BF20684FF48071BA0581600BD4B6
:100D0000780515D438051DD4204600F0A5F9F80360
:100D10007FF56CAF1BE000BF204600F09FF9F803A1
:100D20007FF564AF13E000BF4FF4006558E700BFE4
:100D300005F50055F8037FF559AF08E04FF48055ED
:100D40004EE700BF05F58045F8037FF54FAF2068FB
:100D50004FF48031BA0381600AD4780310D4380389
:100D600014D4204600F07CF930073FF541AF47E747
:100D7000204600F077F930073FF53AAF40E700BF73
:100D800005F5004530073FF533AF39E705F5803508
:100D900030073FF52DAF33E745F010050EE000BFFB
:100DA00045F020050AE000BF45F0400506E000BF21
:100DB00045F0800502E000BF45F480752068816938
:100DC00021F07001816120680421416055B1606AA1
:100DD00040EA05012046616201B0BDE8F04FFFF72F
:100DE00039BE00BF01B0BDE8F08F0000B0B5C8B19A
:100DF000044690F8200010B9204600F071F82068F1
:100E0000016841F00101016000F000FC054600BFEF
:100E100020684168C90707D100F0F8FB401B0B2888
:100E2000F6D312E00120B0BD016821F0020101609B
:100E300000F0ECFB054600BF2068416889070DD52E
:100E400000F0E4FB401B0B28F6D3606A052140F458
:100E500000306062012084F82010B0BD217E02685D
:100E6000012922F0800208BF80320260617E0268A0
:100E7000012922F0400208BF40320260A17E0268D0
:100E8000012922F0200208BF20320260E17E0268C0
:100E9000012922F0100218BF10320260217F02687F
:100EA000012922F0080208BF08320260617F02684F
:100EB000012922F0040208BF04320260D4E901C211
:100EC000D4E9033561691A432A431143ACF10102A5
:100ED0001143C16100200121606284F82010B0BD7F
:100EE00080B586B0016846F20040C4F2000081423D
:100EF00002D006B080BD00BF002143F63002019150
:100F0000C4F20202136900F5D43043F00073136198
:100F1000136903F000730193019B0191136843F07F
:100F2000080313601268022302F008020192019A7A
:100F3000CDE9023109210322059101A90192049210
:100F400000F08AFA14200521002200F057FC14203A
:100F500000F040FC06B080BD70470000B0B50068EE
:100F600046F20041C4F20001884201D0B0BD00BF8A
:100F700040F65C3540F2102440F28830C2F20005A1
:100F8000C2F20004C2F2000000212A462346FFF705
:100F900063FD2868B0F5027F10D040F20521884239
:100FA000E4D140F2A025C2F20005286803F00AFD52
:100FB0000028DBD104F108010CE000BF40F2A425B9
:100FC000C2F20005286803F0FDFC002818BFB0BD80
:100FD00004F11001D4E900232868C1E90023BDE829
:100FE000B04003F057BD000070470000704700009C
:100FF00070470000B0B5044690F8200001281DD1CC
:10100000022084F820002068016821F001010160BD
:1010100000F0FCFA054600BF20684068C00713D006
:1010200000F0F4FA401B0B28F6D3606A40F400305D
:101030006062052084F820000120B0BD606A40F4A1
:10104000002060620120B0BD00206062B0BD0000E1
:1010500070470000704700007047000070470000B4
:10106000704700007047000070470000F0B581B085
:1010700004460020009040F20800C2F2000002681E
:10108000D4E9166048F2B51337680821C1F64E332B
:1010900081403942A2FB03250CD0226813685B070C
:1010A00008D5136823F004031360B160616D41F04B
:1010B0000101616501218140394208D022685269ED
:1010C000120604D5B160616D41F002016165042131
:1010D0008140394208D022681268920704D5B16075
:1010E000616D41F00401616510218140394217D0E2
:1010F00020680268120713D5B160026801685203C4
:1011000008D4C90508D4016821F008010160216CE8
:1011100021B905E008033FD4216C09B12046884776
:10112000E16D202000FA01F23A4241D020680368C4
:10113000DB063DD5B26094F835300268052B1BD133
:1011400022F016020260426922F080024261226CA3
:101150000AB9A26C1AB1026822F0080202603F20AC
:101160008840B060012084F83500216D00200029FE
:1011700084F8340052D157E00168520310D4C905F5
:1011800012D4016821F010010160012084F83500BB
:10119000002084F8340007E0A16C0029BED1BFE72D
:1011A000080301D4616C00E0E16B09B12046884777
:1011B000606DC8B3606DC0072ED0052084F835007F
:1011C0002068A90A026822F001020260009A013236
:1011D0008A4200921AD80268D20717D0009A0132C8
:1011E0008A42009212D80268D2070FD0009A0132C8
:1011F0008A4200920AD80268D20707D0009A0132C8
:101200008A42009202D80268D207DFD1012084F816
:101210003500002084F83400E16C29B1204601B08B
:10122000BDE8F040084700BF01B0F0BD2DE9F04136
:10123000044600F0EBF9ECB10546022084F83500D5
:101240000020216884F83400086820F0010008605C
:1012500021680868C00711D000F0D8F9401B0528A4
:10126000F6D9032520230320636584F83550BDE8B3
:10127000F08100BF0120BDE8F08100BF086848F29E
:101280003F02CFF21002D4E9013500EA020C04F16A
:101290000C0898E8C10143EA0C032B431843D4E936
:1012A000072E304338431043626A40EA0E00042A96
:1012B00040EA08031CD1206BD4E90A2E40EA0E0054
:1012C000184308604869BEF1000F20F0030040EAAF
:1012D000020040F0040C11D0B8F5005F36D0B8F130
:1012E000000F45D1022A46D0012A3BD032B942E054
:1012F0000B60486920F0070040EA020C01F0F8009A
:101300004AF6AB221038CAF6AA22A0FB02231A0919
:1013100048F20403C0F600039A5C40F2FF335F28F2
:101320004FF03F00C1F814C021EA030100FA02F0B7
:1013300088BF0431C4E9161288600023012500200B
:10134000636584F83550BDE8F08100BF032AD5D825
:10135000012540230120DFE802F0030E030500BF52
:1013600082E700BFAEF1C070B0FA80F0400904E03F
:10137000032A04D3C2D1CEF300600028BED00125D9
:1013800040230120636584F83550BDE8F0810000FA
:1013900070B590F834C0BCF1010F46D04FF0010C8D
:1013A00080F834C0D0F858E090F835C0BCF1010F97
:1013B00038D14FF0020C80F835C04FF0000CC0F867
:1013C00054C0D0F800C08468056CC06DDCF80060C3
:1013D000402C26F48026CCF80060CCF804300B4674
:1013E00004BF13460A463F2101FA00F0CCF808304A
:1013F000CCF80C20CEF80800DCF8000040F0160015
:10140000CCF800002DB1DCF8000040F00800CCF86A
:101410000000DCF8000040F00100CCF800000020E3
:1014200070BD00BF002180F83410022070BD0000A4
:10143000B0B5044600F0EAF8054640F20000C2F2FA
:1014400000000078611C18BF044400BF00F0DEF803
:10145000401BA042FAD3B0BD2DE9F04F82B000F19D
:101460003E4241F6004502F1FF77C4F20205082230
:1014700043F6004E4FEAB726A84208BF0722C4F23F
:10148000010E072E38BF4FEAB7220125002600279C
:101490004FF00008009208E008F101080437B8F1A5
:1014A000100F06F1020600F0A7800C6805FA08F993
:1014B00014EA090FF0D0D1F804B003220BF0030CAA
:1014C000ACF10104B240012C6FEA020A10D8826824
:1014D000CC6802EA0A02B440224382604268CBF33D
:1014E000001422EA090204FA08F42243426005E0EB
:1014F000BCF1030F02D14FF0030C20E0C2688C68EE
:1015000002EA0A02B4402243BCF1020FC26016D1C3
:101510006FF0030202EA58020244D2F820C007F03A
:101520001C050F230C69AB402CEA030304FA05F5F4
:101530002B431362D1F804B001250BF0030C0268B1
:101540000CFA06F302EA0A021A431BF4403F026057
:10155000A2D0002243F644030192C4F202031A68A7
:101560004FF6084C42F480421A601A68CFF6FF7CAE
:1015700002F480420192019A28F00302724452F868
:101580000C3007F00C050F24AC40A343009C04FA78
:1015900005F52B4342F80C30DEF808204B6842EA90
:1015A000090543F60C4CDC0258BF22EA0905CEF8C7
:1015B0000850C4F2010CDCF800209C0242EA090544
:1015C00058BF22EA0905CCF80050DEF804209C033D
:1015D00042EA090558BF22EA0905CEF80450DEF8B0
:1015E0000020DB0342EA090558BF22EA0905CEF8CC
:1015F0000050012550E700BF02B0BDE8F08F0000A9
:10160000002A08BF090481617047000044F2787025
:10161000C2F200000068704770B548B30446006825
:10162000D4E901124CF6CC43036045F255530360F4
:1016300041608260FFF7EAFF2168CA68920711D013
:10164000054641F6020602E0C86880070AD0FFF7A7
:10165000DDFF401B2168B042F6D3C8688007F3D095
:10166000032070BD4AF6AA200860002070BD00BFAC
:10167000012070BD01684AF6AA2200200A60704766
:1016800040F2000044F27871C2F20000C2F20001A0
:1016900000780A68104408607047000080B543F67F
:1016A0000040C4F20200016841F400710160016869
:1016B00041F480610160016841F4807101600320A0
:1016C00000F0C8F80F2000F005F800F061F80020E5
:1016D00080BD000070B586B0002543F6400101953D
:1016E000C4F202010A68044642F020020A60096856
:1016F00001A801F0200101910199694600F06AF901
:10170000049E002E18BF012600F084F94DF6836177
:10171000B040C4F21B31A0FB01014FF0FF3000EBE1
:10172000914140F2744041F20042C2F20000C4F222
:10173000000240F2E733C0E90021C0E9025305612D
:10174000856101F019F8054610B1284606B070BD54
:1017500040F27440C2F2000001F03EF80546002855
:10176000F3D1372000F036F80F2C0DD83720214662
:101770000022002500F042F840F20400C2F200000E
:101780000460284606B070BD0125284606B070BD2D
:1017900082B0002043F640010190C4F202014A6881
:1017A00042F480424A604A6802F480420192019AFF
:1017B00000900868002240F08050086008680F21FF
:1017C00000F08050009000986FF0010002B000F02F
:1017D00015B80000002848BF7047C1B200F01F00D4
:1017E000012202FA00F04EF20012CEF2000242EAAA
:1017F000D10121F0030108607047000010B54EF6DA
:101800000C5CCEF2000CDCF80030C3F3022E8EF03C
:101810000704042C28BF0424BEF103034FF0FF3E4D
:101820000EFA04F438BF0023A14399400EFA03F3E3
:101830009A43114300F00F0200F160430901043A9A
:1018400003F564436244002848BF02F10C03197099
:1018500010BD00004EF60C51CEF200010A684FF6A2
:10186000FF031A4060F30A2242F0806040F0FD70EE
:10187000086070472DE9F041002800F08B8043F6A6
:101880000808C4F202080446D8F8F8030D4600F030
:101890000700884207D288F8F853D8F8F80300F018
:1018A0000700A84276D12068810717D5410705D5E2
:1018B000D8F8001041F4E051C8F80010010705D530
:1018C000D8F8001041F46041C8F80010D8F80010B2
:1018D000A26821F0F0011143C8F80010C0073FD101
:1018E000D8F8F80300F00700A84207D988F8F853A1
:1018F000D8F8F80300F00700A8424BD12068410750
:1019000007D5D8F80010E26821F4E0511143C8F877
:101910000010000708D5D8F80000216920F46040C5
:1019200040EAC100C8F8000000F09CF8D8F80010A8
:1019300047F67462C1F30311C0F60002515C40F235
:10194000080220FA01F140F20400C2F2000000682F
:10195000C2F200021160FFF7BDFE0020BDE8F08179
:101960006068811E022907D258F8081C89015CBFF3
:101970000120BDE8F08111E0012807D158F8081CCA
:1019800089035CBF0120BDE8F08107E058F8081C1E
:10199000890703D40120BDE8F08100BFD8F800100A
:1019A00021F003010843C8F80000FFF72FFE0646A8
:1019B00041F28837D8F80000616800F00C00B0EB05
:1019C000810F8DD0FFF722FE801BB842F2D9032091
:1019D000BDE8F0810F22026043F60802C4F2020261
:1019E000136803F003034360136803F0F00383609C
:1019F000136803F4E053C360D2F800C04FF4E0531F
:101A000003EADC030361D2F8F80300F00700086082
:101A10007047000040F2080043F60801C2F20000DF
:101A2000C4F202010068096847F68462C1F38221AA
:101A3000C0F60002515CC8407047000040F2080048
:101A400043F60801C2F20000C4F20201006809680E
:101A500047F68462C1F34231C0F60002515CC840CF
:101A60007047000010B543F60404C4F20204606835
:101A700000F00C0008280BD0042819BF42F20040E7
:101A8000C0F2F40041F60030C0F2B70010BD00BF54
:101A9000206821682368490241F60031C0F2B7018D
:101AA00000F03F02C3F388105CBF42F20041C0F275
:101AB000F401A1FB00010023FEF7DEFB21680222F6
:101AC000C1F3014102EB4101B0FBF1F010BD000098
:101AD0002DE9F04182B0002868D00446007843F632
:101AE0000006C007C4F202060BD0B06800F00C007C
:101AF000042840F09F803068800302D56068002889
:101B000054D0207880071AD5B06810F00C0F09D097
:101B1000B06800F00C00082840F0A6807068400211
:101B200000F1A2803068800702D5E06801283DD12D
:101B30003068216920F0F80040EAC1003060207868
:101B4000000737D4207840074CD4A56955B3B06856
:101B500000F00C00082840F0BB80012D26D07068F2
:101B6000E16900F480028A4220D1216A00F03F023C
:101B70008A421BD147F6C071626A0140B1EB821FF5
:101B800014D1A16A4FF6FF73C903994300F44032A0
:101B9000A1F580318A4209D1E16A00F07060B0EBB2
:101BA000016F03D1002002B0BDE8F081012002B036
:101BB000BDE8F0816069002840F20000C4F24720CF
:101BC00076D00121C0F8801EFFF720FD054600BF3A
:101BD000706F8007B6D4FFF719FD401B0228F7D9B4
:101BE000DDE000BF306C10F080580AD10020019079
:101BF000306C40F080503064306C00F080500190C8
:101C0000019847F20007C4F200073868C00541D4C4
:101C1000386840F480703860FFF7F8FC054600BF74
:101C20003868C00536D4FFF7F1FC401B0228F7D90D
:101C3000B5E000BFB06800F00C00082803D1706860
:101C400040023FF558AF6068B0F5803F07D0B0F56F
:101C5000A02F40F08D80306840F4802030603068E4
:101C600040F4803030608DE0E068002852D00020E1
:101C7000C4F2472001210160FFF7C8FC054600BF00
:101C8000306880073FF554AFFFF7C0FC401B0228C7
:101C9000F6D984E0A068012805D005284ED1306F20
:101CA00040F004003067306F40F0010030674FE0D3
:101CB0000021C0F8801EFFF7A9FC0546706F800761
:101CC0007FF540AFFFF7A2FC401B0228F6D966E083
:101CD0000027C4F2472700203866FFF797FC022D43
:101CE00005460BD1306880015ED5FFF78FFC401BA5
:101CF00002284FF00300F5D955E700BF3068800196
:101D00007FF550AFFFF782FC401B02284FF0030025
:101D1000F4D948E70020C4F2472000210160FFF712
:101D200075FC0546306880077FF509AFFFF76EFC4C
:101D3000401B02284FF00300F4D934E7316F00282C
:101D400021F001013167316F21F0040131674DD07D
:101D5000FFF75CFC054641F2883700BF306F800713
:101D600056D4FFF753FC401BB842F7D917E000BF29
:101D70003168002821F480313160316821F48021FC
:101D800031604FD0FFF742FC054600BF306880034A
:101D90003FF5B7AEFFF73AFC401B6428F6D90320A5
:101DA00002B0BDE8F08100BF04F11C052FCD08434F
:101DB00040EA8210D9034FF6FF729143A1F58031BA
:101DC00040EA05600843706001203866FFF71EFC9A
:101DD000044600BF306880013FF5E4AEFFF716FC13
:101DE000001B02284FF00300F4D9DCE6FFF70EFCDD
:101DF000054641F2883700BF306F800708D5FFF7EE
:101E000005FC401BB8424FF00300F5D9CBE600BFFC
:101E1000B8F1000F7FF499AE306C20F08050306440
:101E200093E600BFFFF7F2FB054600BF3068800372
:101E30007FF567AEFFF7EAFB401B64284FF0030015
:101E4000F4D9B0E690F851007047000070B538B191
:101E50000446406A30B10020206104F1140007E01C
:101E6000012070BD6068B0F5827F03D004F11C00D2
:101E7000002101600026A66294F8510020B9204696
:101E800084F8506000F03CF8022084F8510094E897
:101E90000F0001F48271056802F4044225F0400548
:101EA0000560114403F400622369114403F0020247
:101EB0006369114403F00102A369E569114403F465
:101EC0000072114405F03802256A114405F08002C1
:101ED000A56A114305F4005211430160626A0421AE
:101EE00001EA134102F0100211444160C16921F47A
:101EF0000061C1610120666584F85100304670BD03
:101F00002DE9F04385B0006843F20005C4F20105F5
:101F1000A84203D005B0BDE8F08300BF002643F619
:101F200030000096C4F2020041696C4641F48051D1
:101F3000416141694FF0020801F48051009100991C
:101F4000009601684FF0030941F002010160016849
:101F5000052701F00201009100990096016841F007
:101F6000010101600068214600F001000090009826
:101F70001820009005F55440CDE90186CDF80C906D
:101F80000497FFF769FA48F28000CDE9000805F5EB
:101F900050402146CDE902690497FFF75DFA05B08C
:101FA000BDE8F0832DE9F04182B0044690F851007D
:101FB000012818D10E4600294FF0010000F0EF80F3
:101FC0001746002A00F0EB8060681D46B0F5827F5E
:101FD00003D1A068002800F0BB80FFF717FB94F83E
:101FE0005010012904D1022002B0BDE8F08100BFE9
:101FF0008046012084F850000420002184F851001C
:102000006165A663A787E7872163A186E186A26849
:102010002068B2F5004F2164616437D00168490639
:102020003FD5E168E08F002943D000287AD0681CB2
:102030000BD11AE0C068A16B21F8020BA163E08FFD
:102040000138E087E08F00286CD020688168C907DC
:10205000F0D1FFF7DBFAA0EB0800A842F2D342E090
:10206000FFF7D4FAE08F00285CD020688168C907A8
:10207000F6D0C068A16B21F8020BA163E08F013894
:10208000E087E08F0028F0D14CE000BF016821F02C
:1020900040010160016821F4804101600168490646
:1020A000BFD4016841F040010160E168E08F002980
:1020B000BBD1B8B3681C0CD124E000BF007BA16B7E
:1020C0000870A06B0130A063E08F0138E087E08FDB
:1020D00040B320688168C907F0D1FFF797FAA0EBF9
:1020E0000800A842F3D3012084F85100002084F8AE
:1020F0005000032002B0BDE8F08100BFFFF786FA70
:10210000E08F78B120688168C907F7D0007BA16BA8
:102110000870A06B0130A063E08F0138E087E08F8A
:102120000028EFD16068B0F5827F0ED1A068B0F5CD
:10213000004F02D0B0F5806F18D12168B0F5806FE4
:102140000A6822F040020A6010D1204601210FE007
:10215000042084F851002046314632463B46009523
:1021600000F05EF902B0BDE8F08100BF204680219A
:1021700000222B46CDF8008000F014FF28B1606DDE
:1021800040F02000606520206065012084F8510047
:10219000002084F85000606D002818BF012002B0B4
:1021A000BDE8F0812DE9F04184B01D4616460F468A
:1021B0000446FFF72BFA94F8511001290ED18046FE
:1021C000002F4FF0010018BF002E03D104B0BDE86E
:1021D000F08100BF94F85000012803D1022004B020
:1021E000BDE8F081012084F850000320002184F82C
:1021F000510061652763A686E686A163A187E18712
:10220000A0682164B0F5004F2068616407D10168BF
:1022100021F040010160016841F4804101600168E2
:10222000490603D4016841F0400101606168731EF2
:10223000E268B1FA81F1B3FA83F349095B09B2F5B7
:10224000006F41EA030139D131B137F8021BC16097
:102250002763E08E0138E086E08E002870D0681C8D
:102260000BD11AE0216B31F8022BC2602163E08EA2
:102270000138E086E08E002862D0206881688907F6
:10228000F0D4FFF7C3F9A0EB0800A842F2D338E07E
:10229000FFF7BCF9E08E002852D0206881688907DA
:1022A000F6D5216B31F8022BC2602163E08E013834
:1022B000E086E08E0028F0D142E000BF39B13978E5
:1022C0000173206B01302063E08E0138E086E08EE0
:1022D000B0B3681C0BD123E0216B09780173206B2C
:1022E00001302063E08E0138E086E08E40B3206844
:1022F00081688907F0D4FFF789F9A0EB0800A842AC
:10230000F3D3012084F85100002084F8500003200A
:1023100004B0BDE8F08100BFFFF778F9E08E78B136
:10232000206881688907F7D5216B09780173206BD4
:1023300001302063E08E0138E086E08E0028EFD186
:102340002046022101222B46CDF8008000F02AFE13
:10235000E0B1606D40F02000606520206065A068FD
:1023600038B9002002902068C1680291806802900C
:102370000298012084F85100002084F85000606D1C
:10238000002818BF012004B0BDE8F08140F2080029
:10239000C2F20000006849F68171C1F25E61A0FBE3
:1023A0000101480D4FF47A71484303906068B0F51D
:1023B000827F0BD12046802100222B46CDF8008061
:1023C00000F0F0FD0028C4D1C9E700BF0398002841
:1023D000C5D0039801380390206880680006BED5F8
:1023E00003980028BBD003980138039020688068C8
:1023F0000006B4D503980028B1D0039801380390A3
:10240000206880680006AAD503980028A7D0039802
:1024100001380390206880680006D7D49FE7000049
:102420002DE9F04383B01E4615460F460446FFF7DC
:10243000EDF894F851108146012909D1002F4FF091
:10244000010018BF002D0FD103B0BDE8F08300BF1D
:102450006068B0F5827F0DD1A06800284FF00200BF
:1024600008BF0429F0D1E9E7002EEDD094F8500020
:10247000012803D1022003B0BDE8F083012084F8D5
:10248000500094F85100002104281CBF052084F856
:1024900051006165A563E687A6872763E686206805
:1024A000A686216461640168490603D4016841F08D
:1024B000400101606168731EE268B1FA81F1B3FA0C
:1024C00083F3DDF8288049095B09B2F5006F41EA22
:1024D000030165D131B137F8021BC1602763E08E7B
:1024E0000138E086012518F1010032D102E000BF79
:1024F000FFF78CF8E08E18B9E08F002800F0B88064
:102500002068816889070CD5E18E51B1012D08D171
:10251000216B002531F8022BC2602163E18E013965
:10252000E1868168C907E3D0E18F0029E0D0C06867
:10253000A16B012521F8020BA163E08F0138E08730
:10254000D6E700BFFFF762F8A0EB0900404580F036
:10255000A580E08E18B9E08F002800F089802068FF
:10256000816889070CD5E18E51B1012D08D1216B0D
:10257000002531F8022BC2602163E18E0139E1862A
:102580008168C907DED0E18F0029DBD0C068A16B6C
:10259000012521F8020BA163E08F0138E087D1E724
:1025A00039B139780173206B01302063E08E013836
:1025B000E086012518F1010032D101E0FFF726F88D
:1025C000E08E10B9E08F002852D02068816889071A
:1025D0000ED5E18E61B1012D0AD1216B002509785C
:1025E0000173216B206801312163E18E0139E1869D
:1025F0008168C907E2D0E18F0029DFD0C068A16BF4
:1026000001250870A06B0130A063E08F0138E087DE
:10261000D4E700BFFEF7FAFFA0EB090040453DD22A
:10262000E08E08B9E08F18B32068816889070ED55D
:10263000E18E61B1012D0AD1216B0025097801736A
:10264000216B206801312163E18E0139E1868168C7
:10265000C907DFD0E18F0029DCD0C068A16B01255C
:102660000870A06B0130A063E08F0138E087D1E7EC
:102670002046022101224346CDF8009000F092FC52
:10268000B0B1606D40F020006065202060650020E2
:1026900084F85000012003B0BDE8F083012084F8E5
:1026A0005100002084F85000032003B0BDE8F083FF
:1026B00040F20800C2F20000006849F68171C1F2E0
:1026C0005E61A0FB0101480D4FF47A71484302900E
:1026D0006068B0F5827F21D12046802100224346E8
:1026E000CDF8009000F05EFC0028CAD1A06838B98F
:1026F000002001902068C1680191806801900198D4
:10270000012084F85100002084F85000606D0028FA
:1027100018BF012003B0BDE8F08300BF0298002875
:10272000E4D0029801380290206880680006DDD568
:1027300002980028DAD00298013802902068806858
:102740000006D3D502980028D0D002980138029014
:10275000206880680006C9D502980028C6D0029873
:1027600001380290206880680006D7D4BEE70000D8
:102770007047000070470000002804BF0120704728
:1027800010B5044690F83D0028B9002084F83C00BC
:10279000204600F01FF8022084F83D002068211D2B
:1027A00000F022FD012084F8460084F83E0084F801
:1027B0003F0084F8400084F8410084F8420084F827
:1027C000430084F8440084F8450084F83D0000206C
:1027D00010BD00007047000090F83D1001291CBF9B
:1027E00001207047022180F83D10006841F2FF721D
:1027F000C168C4F20002904241F00101C1600DDCE9
:1028000040F2FF71C4F20001884215DCB0F1804F44
:102810002AD040F20041C4F2000123E040F2FF312F
:10282000C4F20101884213DC41F60001C4F2000148
:10283000884219D0002113E040F60001C4F20001E3
:10284000884211D040F60041C4F200010AE000BF06
:1028500044F20001C4F20101884205D040F2004177
:10286000C4F20101884206D1816801F007010629FE
:1028700004BF00207047016841F0010101600020A1
:10288000704700007047000070B504460068C568D6
:102890000669B10716D515F0020113D06FF00201D9
:1028A0000161012121778069800703D02046FFF76D
:1028B000E9FF05E0204600F08FF8204600F08EF892
:1028C00000202077700719D515F0040016D0206875
:1028D0006FF00401016102212177806910F4407FCB
:1028E00004D02046FFF7CEFF06E000BF204600F0F0
:1028F00073F8204600F072F800202077300717D5D3
:1029000015F0080014D020686FF00801016104215F
:102910002177C069800703D02046FFF7B3FF05E0A9
:10292000204600F059F8204600F058F800202077A3
:10293000F00619D515F0100016D020686FF01001C0
:10294000016108212177C06910F4407F04D020463E
:10295000FFF798FF06E000BF204600F03DF8204654
:1029600000F03CF800202077F00718BF15F00100B8
:1029700002D1300609D412E020686FF00101016134
:10298000204600F02DF8300609D515F0800006D05D
:1029900020686FF0800101612046FFF7E9FE7006B4
:1029A00009D515F0400006D020686FF040010161A4
:1029B000204600F01FF8B00658BF70BD15F020008B
:1029C00008D021686FF0200220460A61BDE87040FF
:1029D000FFF7D0BE70BD00007047000070470000D8
:1029E000006841F20041C4F20001884218BF7047FC
:1029F000FEF746BE7047000070B582B0044690F8FE
:102A0000420020280AD113460A4600294FF001004F
:102A100018BF002B06D102B070BD00BF022002B06B
:102A200070BD00BF01202063002622206663A262E1
:102A3000A385666484F842002168E06B43F2A94CE8
:102A400043F2096E43F22D35C0F6000CC0F6000EBD
:102A5000C0F600050431C0E90FCEC0E91356FEF7F9
:102A600097FCD8B310206064202084F84200012035
:102A7000216B012940F0B2800021009121680A6891
:102A80000092496800910099216851E8031F22686B
:102A900041F0100142E80313002BBCD0216851E83B
:102AA000031F226841F0100142E80313002BB2D04B
:102AB000216851E8031F226841F0100142E8031326
:102AC000002BA8D0216851E8031F226841F01001B3
:102AD00042E80313002BD7D19DE700BF0196206881
:102AE00001680191406801900198206930B300BFEE
:102AF000206850E8030F216840F4807041E8030229
:102B0000E2B1206850E8030F216840F4807041E88A
:102B100003029AB1206850E8030F216840F48070E6
:102B200041E8030252B1206850E8030F216840F4E5
:102B3000807041E80302002ADAD100BF206850E823
:102B4000050F216840F0010041E80502BAB3206892
:102B500050E8050F216840F0010041E8050272B31A
:102B6000206850E8050F216840F0010041E80502A7
:102B70002AB3206850E8050F216840F0010041E8C1
:102B80000502002ADAD11AE0206850E8050F216812
:102B900040F0400041E80502DAB1206850E8050F36
:102BA000216840F0400041E8050292B1206850E8F9
:102BB000050F216840F0400041E805024AB1206855
:102BC00050E8050F216840F0400041E80502002A66
:102BD000DAD10020216B01293FF44EAF012002B071
:102BE00070BD000040F2BC41C2F20001884218BF33
:102BF000704740F2A820C2F20000006801F04ABF0E
:102C000070470000002804BF0120704710B504463B
:102C100090F8410028B9002084F84000204600F0D8
:102C200021F8242084F841002068C16821F4005173
:102C3000C160204600F0F4FC2068016921F4904155
:102C40000161416921F02A014161C16841F40051EB
:102C5000C16000202021606484F8411084F8421093
:102C6000606310BD70B586B00446016844F600008C
:102C7000C4F20000814201D006B070BD002643F6C8
:102C800030010196C4F202010A6900F5DE3042F417
:102C900080220A610A6902F480220192019A019657
:102CA0000A6842F002020A60096801F0020101911B
:102CB00001994FF4406101910221CDE902160321EF
:102CC00004910721059101A9FEF7C6FB40F2B0353A
:102CD00046F22800C2F20005C4F202004FF0006183
:102CE0004FF4806285E843002846C5E90362C5E9E0
:102CF0000566C5E907666E62FEF798FA002818BFF8
:102D0000FDF7C8FDE563AC6306B070BD7047000019
:102D100070470000FEE7000080B540F2883046F2C0
:102D20000041C2F20000C4F200010322002380E847
:102D30000E0000F10C014FF4102C4FF4001E81E83E
:102D4000085083618383FEF751F8002808BF80BDD7
:102D5000BDE88040FDF79EBD80B582B000200190A7
:102D600043F63000C4F202000168002241F4001171
:102D700001600068052100F40010019001980C200A
:102D8000FEF73CFD0C2002B0BDE88040FEF722BDFE
:102D900080B502F08FFC43F2F50048F20C02C0F659
:102DA0000000C0F60002002101F0A6FE40F28431CE
:102DB000C2F20001086080BD2DE9F04186B000201C
:102DC00043F6300105900090C4F202010A68002425
:102DD00042F002020A600A68C4F2020402F002022F
:102DE0000092009A00900A68102642F001020A60E0
:102DF0000A68012702F001020092009A00900A6816
:102E000042F008020A600A6802F008020092009A82
:102E100000900868012240F08000086008681021D6
:102E200000F08000009000982046FEF7E9FB04F5D2
:102E30008065284601210122FEF7E2FBCDE901670A
:102E400001AE4FF00208204631460397CDF81080BE
:102E5000FEF702FB28463146CDE90177CDE903783C
:102E6000FEF7FAFA06B0BDE8F081000080B540F246
:102E7000104043F20001C2F20000C4F2000102223D
:102E800040F6B73380E80E00FEF7C6FB002808BF07
:102E900080BDBDE88040FDF7FDBC0000B0B540F24C
:102EA0001C4043F20001C2F20000C4F201014FF4E1
:102EB0008272002380E80E0000F10C014FF0020C3A
:102EC0004FF0010E4FF40074382581E808500A21B4
:102ED000C0E90645C0E90833C0E90A31FEF7B6FF8C
:102EE000002808BFB0BDBDE8B040FDF7D3BC00006E
:102EF00010B540F2BC4044F6000C48F2A062C2F2A9
:102F00000000C4F2000CC0F201024FF48053002113
:102F10004FF4806E0C24C0E900C2C0E90231C0E960
:102F200004E4C0E90611FFF76DFE002808BF10BDDC
:102F3000BDE81040FDF7AEBCFEE70000FEE7000074
:102F4000EFF30980BFF36F8F154B1A681EF0100F57
:102F500008BF20ED108A20E9F04F10602DE909002C
:102F60004FF0500080F31188BFF34F8FBFF36F8F86
:102F700003F028F94FF0000080F31188BDE8090044
:102F800019680868B0E8F04F1EF0100F08BFB0ECE9
:102F9000108A80F30988BFF36F8F704700BF00BFAE
:102FA000300100202DE9F04381B0089C9846154679
:102FB0000E468146FEF72AFB201A00EB0804FEF7B6
:102FC00025FB40F20801C2F200010968C1F3CB31D0
:102FD00061430091D9F800108A683240921BB2FA1E
:102FE00082F25209AA4203D1002001B0BDE8F08369
:102FF000074618F101000ED130E000BF00980138FB
:103000000090D9F8000080683040801BB0FA80F052
:103010004009A842E8D0FEF7F9FAC01BA04227D227
:1030200000980028EAD10024EBE700BF8868304010
:10303000801BB0FA80F04009A842D5D088683040A3
:10304000801BB0FA80F04009A842CDD0886830409B
:10305000801BB0FA80F04009A842C5D08868304093
:10306000801BB0FA80F04009A842DFD1BCE700BF66
:10307000D9E900014268B1F5827F22F0E0024260A6
:103080000BD1D9F80810B1F5004F02D0B1F5806F1F
:1030900003D1016821F040010160D9F82810B1F591
:1030A000005F07D1016821F400510160016841F41B
:1030B00000510160012089F85100002089F850007A
:1030C000032001B0BDE8F083000000000000000014
:1030D000074B19680868B0E8F04F80F30988BFF320
:1030E0006F8F4FF0000080F31188704700BF00BF62
:1030F00030010020012001F04DFBFBE780B54EF2CE
:103100001000CEF20000006804F004F9012808BFA6
:1031100080BDBDE8804003F097BA0000B0B592B022
:10312000002443F640000A94CDE908440594CDE913
:103130000344CDE901440094C4F202000168022571
:1031400041F080510160006800F0805000900098CC
:1031500047F200000094C4F20000016841F480418D
:103160000160006800F480400090009809200690FB
:103170004FF48030079001200B904FF480000D90A9
:1031800006200E90A820CDE90F050420119006A876
:103190000C95FEF79DFC18B172B600BFFEE700BFAC
:1031A0000F20CDE901054FF4A05004904FF480505A
:1031B000059001A805210394FEF75CFB10B172B6DF
:1031C000FEE700BF12B0B0BD4EF68850CEF2000050
:1031D000016841F4700101607047000040F27440E2
:1031E000C2F20000FFF750BBB0B540F6FF3E0568E5
:1031F000C4F2000E40F2004C7045C4F2010C27DC12
:10320000B0F1804F31D040F20043C4F20003984245
:103210002BD040F60003C4F20003984225D041F6BB
:10322000FF73C4F2000398422ADC70453CDCB0F125
:10323000804F5FD040F20043C4F20003984259D05F
:1032400040F60003C4F20003984253D057E000BF99
:1032500040F60043C4F20003984206D0604504D013
:103260000023C4F201039842D9D14B6825F07002C3
:1032700043EA020541F6FF73C4F200039842D4DD2D
:1032800043F6FF73C4F20103984221DC42F20003CB
:10329000C4F2000398422DD00023C4F201039842E7
:1032A00028D0604526D02AE040F60043C4F200034F
:1032B00098421FD041F60003C4F20003984219D08F
:1032C00041F60043C4F20003984213D017E000BF58
:1032D00044F20003C4F2010398420BD044F6000309
:1032E000C4F20103984205D044F20043C4F2010342
:1032F000984204D1CB6825F4407243EA02050A687B
:103300008C684B69C46240F480648262644504BF87
:1033100009690163026825F0800142F00402194343
:103320000260012242610160B0BD0000806B016853
:103330004A6990F84130212B2DD112F080022AD019
:103340000021C184016851E8031F026821F0C00117
:1033500042E80313DBB1016851E8031F026821F062
:10336000C00142E8031393B1016851E8031F0268EA
:1033700021F0C00142E803134BB1016851E8031F7B
:10338000026821F0C00142E80313002BDAD12021AA
:1033900080F841100168496990F84220222A40F0E3
:1033A0007D8011F0400179D00021C185016851E88C
:1033B000031F026821F4907142E80313BBB3016854
:1033C00051E8031F026821F4907142E8031373B3BC
:1033D000016851E8031F026821F4907142E8031369
:1033E0002BB3016851E8031F026821F4907142E891
:1033F0000313002BDAD11AE0016851E8051F0268B7
:1034000021F0010142E80513DBB1016851E8051F15
:10341000026821F0010142E8051393B1016851E807
:10342000051F026821F0010142E805134BB1016854
:1034300051E8051F026821F0010142E80513002B45
:10344000DAD1016B012924D1016851E8031F026818
:1034500021F0100142E80313DBB1016851E8031FBA
:10346000026821F0100142E8031393B1016851E8AA
:10347000031F026821F0100142E803134BB10168F9
:1034800051E8031F026821F0100142E80313002BEA
:10349000DAD1202180F8421000210163416C41F013
:1034A00010014164FFF7ACBB0168806B0968C90576
:1034B00000F19F800021C185016851E8031F026867
:1034C00021F4807142E80313E3B1016851E8031F5E
:1034D000026821F4807142E803139BB1016851E84E
:1034E000031F026821F4807142E8031353B101689D
:1034F00051E8031F026821F4807142E80313002B96
:10350000DAD100BF016851E8051F026821F001010E
:1035100042E80513BBB3016851E8051F026821F0BA
:10352000010142E8051373B3016851E8051F026801
:1035300021F0010142E805132BB3016851E8051F92
:10354000026821F0010142E80513002BDAD11AE0EC
:10355000016851E8051F026821F0400142E80513A7
:10356000DBB1016851E8051F026821F0400142E823
:10357000051393B1016851E8051F026821F040016D
:1035800042E805134BB1016851E8051F026821F0BC
:10359000400142E80513002BDAD1202180F84210C7
:1035A000016B012925D100BF016851E8031F0268A2
:1035B00021F0100142E80313DBB1016851E8031F59
:1035C000026821F0100142E8031393B1016851E849
:1035D000031F026821F0100142E803134BB1016898
:1035E00051E8031F026821F0100142E80313002B89
:1035F000DAD100214163016B012918BFFFF786BBB7
:10360000818DFFF7EFBA0000806B01214163016BF0
:10361000012918BFFFF77CBB818D4908FFF7E2BA8B
:1036200010B504460068D4E902C22369016921F497
:10363000405111430161626943EA0C01E36911439E
:10364000C268194349F20C639A431143C16041694E
:10365000A26921F4407141F20043114340F48062B9
:10366000C4F201039A42416102D1FEF7E7F901E099
:10367000FEF7D0F9E16963681922B1F5004FA0FBAC
:10368000020123D15A00DB0FFCF7F6FD48F21F516F
:10369000C5F2EB11A0FB01235A094FF69C73C0F64B
:1036A000FF7303F1805302FB0300322303EBC000DE
:1036B000A0FB01014FF4F87000EA111000EB0210BA
:1036C000C1F3421108442168886010BD9A009B0F25
:1036D000FCF7D2FD48F21F51C5F2EB11A0FB01230C
:1036E0005A094FF69C73C0F6FF7302FB03003223A6
:1036F00003EB0010A0FB0101F02000EA511000EBE9
:103700000210C1F3431108442168886010BD000015
:10371000FEE700002DE9F04F81B02DED068B40F261
:1037200028264CF6CD40C2F200064FF00009C3F641
:10373000CC5005214FF07E52C6E902908346082006
:10374000C6E90099C6E90412C6E90799C6E90999CC
:10375000C6E90B9900F0DEFE0446C0F80090B063A5
:10376000082000F0D7FE0546C0F8009060600820F1
:1037700000F0D0FE0746C0F800906860082000F016
:10378000C9FE0546C0F800907860082000F0C2FE2F
:103790009FED928A6860C0E900943046B0EE480A16
:1037A000C6F8349000F0FAFC44F22D3AC0F6000A54
:1037B00040F20002C0F6000250463146FCF7D4FD4C
:1037C0000520F0644FF07E50B0463065082048F880
:1037D0003C9FC6E91099C6F848B0C6E91699C6E9F3
:1037E0001899C6E91A9900F095FE0546C0F80090B0
:1037F0007067082000F08EFE0446C0F800906860F4
:10380000082000F087FE0746C0F80090606008209E
:1038100000F080FE0446C0F800907860082000F0B8
:1038200079FE6060C0E900954046B0EE480AC6F8EF
:10383000709000F0B3FC504640F2000AC0F6000A57
:1038400041465246FCF790FD40F24854C2F2000453
:10385000B7EE00AABFEE009A2046B0EE4A0A042155
:1038600032464346F0EE490A00F080FD47F6C47048
:10387000C0F6000000F1080844F2B140C0F60000B4
:1038800021465246C4F80080FCF76EFD40F2003736
:10389000C2F20007052038614FF07E5078610820A1
:1038A000C7E90099C7E9029BC7E90799C7E90999E0
:1038B000C7E90B9900F02EFE0546C0F80090B863EA
:1038C000082000F027FE0446C0F800906860082039
:1038D00000F020FE0646C0F800906060082000F06E
:1038E00019FE0446C0F800907060082000F012FE37
:1038F0006060C0E900953846B0EE480AC7F83490D9
:1039000000F04CFC44F22D30C0F60000394652461F
:10391000FCF72AFD4CF6CD40C3F6CC50B864052028
:10392000F8644FF07E50BB46386508204BF83C9F4A
:10393000C7E91099C7E91699C7E91899C7E91A990B
:1039400000F0E8FD0546C0F800907867082000F018
:10395000E1FD0446C0F800906860082000F0DAFD40
:103960000646C0F800906060082000F0D3FD0446D1
:10397000C0F800907060082000F0CCFD6060C0E9E5
:1039800000955846B0EE480AC7F8709000F006FC63
:1039900044F22D30C0F6000059465246FCF7E4FCD4
:1039A00044F67464C2F200042046B0EE4A0A0121D3
:1039B0003A465B46F0EE490A00F0D8FC44F2B140CA
:1039C000C0F6000021465246C4F80080BDEC068BCC
:1039D00001B0BDE8F04FFCF7C7BC00BF000000001D
:1039E00040F2A02640F2104440F23407C2F2000632
:1039F00040F2883840F2B40940F2803AC2F2000442
:103A0000C2F200074FF0000B06F13005C2F20008C9
:103A1000C2F20009C2F2000A0DE000BF7069032182
:103A200000224FF0FF3300F02DFF404649462A4662
:103A30005346FCF74BFF2046FDF71CFE97F8290084
:103A40000128EBD00228F6D1C6E90CBBEDE7000057
:103A500040F2A02644F6746440F21825C2F2000633
:103A6000C2F20004C2F2000530684FF0FF3100F0EE
:103A700073FF2046294600F095F8F068012100F018
:103A8000CBFEF1E740F2A02640F2485440F2202558
:103A9000C2F20006C2F20004C2F2000570684FF0E4
:103AA000FF3100F059FF2046294600F07BF83069CD
:103AB000012100F0B1FEF1E740F2A026C2F20006BB
:103AC00040F2340744F674649FED138AC2F2000793
:103AD000B3EE0E9AC2F2000406F13005F06803213D
:103AE00001224FF0FF3300F0CDFE97ED060A20468D
:103AF00020EE090AF0EE480AB0EE481A00F028FC61
:103B0000204600F095F92046294600F031F9706909
:103B1000012100F081FEE1E70000000040F2A02654
:103B2000C2F2000640F2340740F248549FED138A77
:103B3000C2F20007B3EE0E9AC2F2000406F130059D
:103B40003069032101224FF0FF3300F09BFE97ED17
:103B5000070A204620EE090AF0EE480AB0EE481A9D
:103B600000F0F6FB204600F063F92046294600F0FD
:103B7000FFF87069022100F04FFEE1E7000000004D
:103B800040F20454C2F2000400F0ACFE05462046A8
:103B900000F0B0FA204600F03DFA05F10A0000F00E
:103BA00009FEF1E790ED052A9FED6C3A80ED062ABB
:103BB0000A8852BA00EE102AB8EEC01A9FED660AC3
:103BC00021EE001A81EE033A9FED651A33EE422A88
:103BD000B4EE412AF1EE10FA80ED053A80F29A80B7
:103BE0009FED611AB4EE412AF1EE10FA1CDA00BF23
:103BF00032EE002AB4EE412AF1EE10FA14DA32EE77
:103C0000002AB4EE412AF1EE10FA0DDA32EE002A63
:103C1000B4EE412AF1EE10FA06DA32EE002AB4EEE2
:103C2000412AF1EE10FAE3DB90ED011A90ED034A20
:103C300082EE013A80ED072A33EE042AB4EE402AE0
:103C4000F1EE10FA80ED043A37DB9FED463A00BF03
:103C500032EE032AB4EE402AF1EE10FA2DDB32EEFA
:103C6000032AB4EE402AF1EE10FA26DB32EE032AE4
:103C7000B4EE402AF1EE10FA1FDB32EE032AB4EE66
:103C8000402AF1EE10FAE3DA17E000BF32EE002A24
:103C9000B5EE402AF1EE10FA14DA32EE002AB5EE53
:103CA000402AF1EE10FA0DDA32EE002AB5EE402A83
:103CB000F1EE10FA06DA32EE002AB5EE402AF1EE05
:103CC00010FAE3DB80ED032A4A88B1EE082AD2BA63
:103CD00000EE102AB8EEC00A20EE020A80EE010AB9
:103CE000B0EE081A9FED212A80ED080A8A88D2BA20
:103CF00000EE102AB8EEC00A20EE010A20EE020AF9
:103D000080ED090A897900EE101AB8EE400A80EDBC
:103D10000A0A70479FED133A32EE032AB4EE412AA5
:103D2000F1EE10FAFFF65CAF32EE032AB4EE412A50
:103D3000F1EE10FAFFF654AF32EE032AB4EE412A48
:103D4000F1EE10FAFFF64CAF32EE032AB4EE412A40
:103D5000F1EE10FAE0DA43E70000B44300F8FF4563
:103D6000000034430000B4C3000034C300008038B6
:103D7000826890ED2D0A013AD31702EB937323F07A
:103D80000303BDEEC00AD01A10EE102A130A01EB8D
:103D9000400C01F810308CF8012070470000000042
:103DA00010B5044690F8C000002818BF10BD94ED6F
:103DB0002A0A9FED1B1A9FED1B2A20EE010A80EEB6
:103DC000020A03F00DFD10EE100A03F0BFFF9FED95
:103DD000100B53EC102B03F0BBFE9FED0F0B53ECBD
:103DE000102B03F0B5FE03F081FE9FED0F0A01EEEC
:103DF000100A81EE000A9FED0D1A20EE010AB0EEC6
:103E0000081A80EE010A84ED2F0A10BD00BF00BF22
:103E10009A999999999913409A9999999999A93F39
:103E2000DA0F4940000034432DB23D3F0000804688
:103E300010B52DED028B90ED2A1A9FED590A04461C
:103E4000006AB4EE401AF1EE10FAC4F8B00033DAAA
:103E50009FED552AB4EE421AF1EE10FA1EDA9FEDEC
:103E6000533A00BF31EE031AB4EE421AF1EE10FAE3
:103E700014DA31EE031AB4EE421AF1EE10FA0DDA4A
:103E800031EE031AB4EE421AF1EE10FA06DA31EE10
:103E9000031AB4EE421AF1EE10FAE3DB94F8C00014
:103EA00084ED2A1A40B394F8C100022852D00128A8
:103EB0006AD194ED2B0A5BE09FED3A2A31EE021AAB
:103EC000B4EE401AF1EE10FAC2DB31EE021AB4EE93
:103ED000401AF1EE10FABBDB31EE021AB4EE401AD2
:103EE000F1EE10FAB4DB31EE021AB4EE401AF1EE44
:103EF00010FAE3DAACE700BF9FED2D2A21EE021A9B
:103F000081EE000A03F06CFC10EE100A03F01EFFB5
:103F10009FED1F0B53EC102B03F01AFE9FED1E0BB1
:103F200053EC102B03F014FE03F0E0FD9FED210A8B
:103F300001EE100A81EE000A9FED1F1A20EE010A21
:103F4000B0EE081A80EE010A84ED2F0A94F8C10041
:103F50000228ACD194ED290AD4ED2A0A94ED2E8AD8
:103F600004F12C0000F028F938EE000A84ED2B0A49
:103F7000D4ED2C0A94ED2F8A04F1680000F01CF9AE
:103F800038EE000A84ED2D0ABDEC028B10BD00BF97
:103F90009A999999999913409A9999999999A93FB8
:103FA000000034430000B4C3000034C30000B44335
:103FB000DA0F49402DB23D3F00008046B0B50446BF
:103FC00047F6E470A16FC0F60000083001292060B8
:103FD0000CDB0025D4F8A0004168C4F8A01008212B
:103FE00000F096FAA06F01358542F3DBE06B012803
:103FF0000ADB0025606E41686166082100F088FADE
:10400000E06B01358542F5DB2046C421BDE8B040B8
:1040100000F07EBA10B5044600F11C010F20012209
:1040200000F0DAFA207F042856D82CA151F820009D
:1040300004F11D0160620220062200F0CDFAB4F9FD
:104040001D0094ED091A00EE100AB4F91F00B8EE35
:10405000C00A03EE100AB4F921009FED252A04EEF0
:10406000100AB8EEC33AB8EEC44A21EE000A21EEB7
:10407000033A21EE041A80EE020A83EE023A81EE40
:10408000021A206C94ED0A2A94ED0B4A94ED0C5A16
:1040900001300528206432EE002A34EE030A35EEA2
:1040A000011A84ED0A2A84ED0B0A84ED0C1A18BF5C
:1040B00010BDB1EE043A82EE032A80EE030A81EECF
:1040C000031A0020C4E90A002063206484ED0D2A4D
:1040D00084ED0E0A84ED0F1A10BD00BF000074427B
:1040E0000000F441CDCC74413333F340333373409B
:1040F00000007A4410B5044641202146012200F018
:1041000033FA6078032888BF10BD1EA151F8200043
:10411000A11CE0601220062200F026FAB4F9030088
:10412000B4F90510B4F9072094ED030A01EE100A62
:104130009FED182A04EE101A05EE102AB8EEC11AE7
:10414000B8EEC44AB8EEC55AB8EEC00A21EE021A5B
:104150009FED113A24EE024A25EE022A21EE001AC2
:1041600024EE004A22EE000A21EE031A24EE034A4E
:1041700020EE030A84ED041A84ED054A84ED060A54
:1041800010BD00BF03000000060000000C0000008E
:104190001800000000000038CDCC1C419FED051A2E
:1041A000B5EE400AF1EE10FAC8BFB0EE401A80ED4D
:1041B000061A70470000000010B590ED071AC0ED18
:1041C000080AB4EE401AF1EE10FA2BD190ED0A3A3B
:1041D00090ED032A31EE600A816B80ED0B3A30EEF0
:1041E000431AB7EE003A90ED0C4A90ED0D5A33EEBB
:1041F000423A22EE011A91ED002A23EE043A35EEFE
:10420000422A81ED000A496831EE031A30EE022A93
:10421000D0F810E080ED0A0A80ED0C1A816380ED81
:104220000D2A3EE0D0F810E0826B80ED070A30EEF8
:10423000600A0021BEF1010F016380ED0A0A24DB50
:10424000AEF1010103290EF0030C0DD32EF0030390
:10425000002100BF546811606268216054681160D9
:104260006268043B2160F5D1BCF1000F0DD0002144
:1042700011605268BCF1010F07D011605268BCF1A7
:10428000020F02D000211160526892ED001A5168AD
:1042900030EE412A9FED241A80ED0D2A82ED000AAE
:1042A000816303EE10EAB8EEC33A82EE032A90ED82
:1042B000003A90ED025A90ED056A25EE011A23EEC0
:1042C000000A30EE010AB1EE461A90ED014AB4EE52
:1042D000412AF1EE10FAB4EE462AB8BFB0EE412AF8
:1042E000F1EE10FAC8BFB0EE462A90ED061A24EEA1
:1042F000022AB5EE401A32EE000AF1EE10FA80ED15
:10430000090A08BF10BDB1EE412AB4EE420AF1EE2F
:1043100010FAB4EE410AB8BFB0EE420AF1EE10FA5C
:10432000C8BFB0EE410A10BD00000000B0B50446A1
:10433000006901280ADB0025A06B4168A163082100
:1043400000F0E6F8206901358542F5DB2046B0BD76
:1043500090F8C020022180F8C110002A80ED290ABF
:1043600018BF80ED2F1AC0ED2E0A70472DE9F047D7
:104370002DED028B044647F6E470C0F600000830CD
:104380000027206084ED010AC4E90217C4E904771C
:10439000C4E90677C4E90877A7621068B0EE608ABE
:1043A000E06250689A46206390686063D068A063BA
:1043B000D2F81080C4F83C80506920649069C4E948
:1043C0001377C4E911070820C4E91577E76500F001
:1043D000A1F88146B8F1020FC0E9007760660DDBF5
:1043E000C8F100064D4600BF082000F093F80136E2
:1043F000C0E900776860711C0546F5D12766DAF8D8
:104400000010C0F80490A166DAF804100820E166F4
:10441000DAF808102167DAF80C106167DAF8108012
:10442000C4F87880DAF81410E167DAF81810C4E9F3
:104430002277C4E92017C4E92477C4F8987000F003
:1044400069F88146B8F1020FC0E90077C4F8A0000E
:104450000EDBC8F1000600274D4600BF082000F023
:1044600059F80136C0E900776860711C0546F5D13E
:10447000C0F804900021B5EE408A0020C4F89C10DA
:10448000C4E92911C4E92B11C4E92D1184ED2F8A47
:10449000F1EE10FAA8BF012084F8C000204684F88D
:1044A000C110BDEC028BBDE8F0870000FEDE00000D
:1044B000B0B5044647F6E470A16FC0F600000830BE
:1044C000012920600CDB0025D4F8A0004168C4F865
:1044D000A010082100F01CF8A06F01358542F3DB25
:1044E000E06B01280ADB0025606E416861660821E7
:1044F00000F00EF8E06B01358542F5DB2046B0BDDB
:1045000040F27C30C2F2000000687047FBF7E9BF60
:10451000FFF7FCBF10B50446002808BF012400BF08
:104520002046FBF7AFFF002818BF10BDFFF7E8FFDC
:1045300008B18047F4E7002010BD000001A000F0A2
:1045400011F800BF50757265207669727475616CE0
:104550002066756E6374696F6E2063616C6C656450
:1045600021000000FBF7EFFFF0B581B00024C4F29A
:10457000020416460D46074604F58060012101221B
:10458000FDF73EF8204610210022FDF739F847F0EC
:10459000800040F21C47C2F200078DF803000DF1C5
:1045A0000301384601224FF47A73FDF7FBFD701CBE
:1045B000C2B2384629464FF47A73FDF7F3FC00BFC8
:1045C0003846FDF73FFC0428FAD02046102101228E
:1045D000FDF716F801B0F0BDF0B581B040F200442F
:1045E000C4F2020415460E460746A4F58060102169
:1045F0000122FDF705F8204601210022FDF700F811
:1046000047F0800040F21C47C2F200078DF803001B
:104610000DF10301384601224FF47A73FDF7C2FD14
:10462000384631462A464FF47A73FDF7BBFC00BF8B
:104630003846FDF707FC0428FAD020460121012264
:10464000FCF7DEFF01B0F0BDF0B583B00024C4F28A
:104650000204204610210022FCF7D2FF40F21C4544
:104660007E20C2F200058DF806000DF106012846F5
:1046700001224FF47A73FDF795FDB6270DF107017E
:10468000284601224FF47A738DF80770FDF78AFDF2
:104690000120FCF7CDFE204610210122FCF7B0FFDF
:1046A00004F58066304601210022FCF7A9FF1420A2
:1046B0008DF8080002A9284601224FF47A73FDF70D
:1046C00071FD0DF10901284601224FF47A738DF82E
:1046D0000970FDF767FD1E20FCF7AAFE3046012198
:1046E0000122FCF78DFF204610210022FCF788FFF5
:1046F0000120FCF79DFE7D208DF80A000DF10A01D6
:10470000284601224FF47A73FDF74CFD04208DF802
:104710000B000DF10B01284601224FF47A73FDF7CF
:1047200041FD0120FCF784FE204610210122FCF708
:1047300067FF03B0F0BD0000FCF7B0FFFEF7EEFC32
:10474000FEF73AFBFEF708FBFEF7E6FAFEF78EFBF4
:10475000FEF7A4FBFEF7CCFB00F09EFFFFF774FF13
:1047600040F28834C2F2000440F20C01C2F20001AF
:104770002046FCF7FFF82046FCF73CFC20460221CF
:10478000FCF78CF800F0B6F8FEF702FB00F0C6F874
:10479000FEE70000EFF3058100291CBF6FF0050064
:1047A0007047002804BF0020704780B501F080FAF0
:1047B000002080BD10B582B0EFF3058121B16FF00C
:1047C000050002B010BD00BF044602F0B3FD014673
:1047D000019084426FF0030005D0611A03D401A850
:1047E00001F0A6FA002002B010BD0000EFF3058131
:1047F00081B9014640B1D1E9020138B1202928BF71
:1048000001F04CBD06E000BF01F03ABD002908BF31
:1048100001F036BD0020704710B582B00C466FF035
:104820000301D8B10022B2EB146F17D1EFF3058169
:10483000C1B10021019101AA214601F0A1FDB8B149
:104840000198D8B14EF60450CEF200004FF08051DE
:104850000160BFF34F8F2146BFF36F8F084602B050
:1048600010BD00BF214602B0BDE8104001F03EBDC2
:104870006FF00201084602B010BD00BF2146084695
:1048800002B010BD70B582B00D46014600286FF031
:1048900003001AD01C460023B3EB156F15D1EFF3BC
:1048A000058018B16FF0050002B070BD02F001067E
:1048B000012020EA5202084629463346009401F0BE
:1048C00069FD00EA05011EB921B102B070BD00BF4B
:1048D000A942FAD06FF00100002C08BF6FF002006F
:1048E00002B070BDEFF30580002808BF02F022BDC2
:1048F00002F026BDEFF3058000281CBF6FF0050015
:10490000704740F27830C2F200000168002911BF00
:104910004FF0FF30012101600020704710B5EFF328
:10492000058000281CBF6FF0050010BD40F27830F4
:10493000C2F20000016801291CBF4FF0FF3010BD1A
:104940004EF61F51CEF2000100240C7002210160CE
:1049500001F0B8FB204610BD10B582B020B10C4666
:10496000EFF3058121B18CB16FF0030002B010BDEF
:10497000214602F023FB01281DD06FF00100002C1E
:1049800008BF6FF0020002B010BD00BF002101910E
:1049900001AA002102F0A0FA01280FD1019850B11C
:1049A0004EF60450CEF200004FF080510160BFF38C
:1049B0004F8FBFF36F8F002002B010BD6FF0020069
:1049C00002B010BD002804BF00207047EFF305813E
:1049D000002918BF00F012BF00F0FCBE70B582B015
:1049E0000E4686424FF00005EFF3058116D8A8B1B8
:1049F000A1B91446B2B1D4E902216AB14F2945D90F
:104A0000A368012832D1032501200021002200954E
:104A100001F0FAFE0DE000BF21B10025284602B0EA
:104A200070BD00BF01280BD101200021032201F03D
:104A3000A7FE0546002E18BF002D07D1E5B925E0D9
:104A4000314601F019FE0546B5B91FE028460021A0
:104A50000022002301F048FF01280DD0284601F074
:104A6000A9F80025284602B070BD00BF31461A469D
:104A700001F024FE05464DB1002C14BF2168002131
:104A8000284601F03FF8284602B070BD00252846B0
:104A900002B070BD80B582B0D0B1EFF30581D9B15D
:104AA0000021019101A902F0E1F8012820D101982B
:104AB00050B14EF60450CEF200004FF0805101602C
:104AC000BFF34F8FBFF36F8F002002B080BD00BFD8
:104AD0006FF0030002B080BD00210022002301F02E
:104AE00003FF013818BF6FF0020002B080BD00BFA5
:104AF0006FF0020002B080BD2DE9F04184B08E4617
:104B000000240394EFF3058150B149B94FF000043C
:104B100052B19369002B08BF1823382B16D90024F3
:104B2000204604B0BDE8F08180251823002103AFA2
:104B30000093AAB27346019702F080FB0399012803
:104B400008BF0C46204604B0BDE8F0811179C907C2
:104B500024D15769D2E902864FEA970C1168002FD9
:104B6000654608BF8025B8F1000F13D05C2E15D321
:104B700012690024002A18BF002FD1D0CDE90032DD
:104B800062467346CDF8088002F088FB04B0BDE8A9
:104B9000F08100BF16B91269002AC8D0002420464F
:104BA00004B0BDE8F08100002DE9F041044600F0BA
:104BB000B9FE40F23016C2F20006F06840F2FC6521
:104BC0000130F0603068C2F2000558B13069002849
:104BD00040F007813068E16AC06A884298BF34605B
:104BE000FFE000BF3460F068012840F0FA802846FA
:104BF00000F03EFE05F1140000F03AFE05F1280039
:104C000000F036FE05F13C0000F032FE05F15000E8
:104C100000F02EFE05F1640000F02AFE05F1780098
:104C200000F026FE05F18C0000F022FE05F1A00048
:104C300000F01EFE05F1B40000F01AFE05F1C800F8
:104C400000F016FE05F1DC0000F012FE05F1F000A8
:104C500000F00EFE05F5827000F00AFE05F58C707E
:104C600000F006FE05F5967000F002FE05F5A07056
:104C700000F0FEFD05F5AA7000F0FAFD05F5B47030
:104C800000F0F6FD05F5BE7000F0F2FD05F5C87008
:104C900000F0EEFD05F5D27000F0EAFD05F5DC70E0
:104CA00000F0E6FD05F5E67000F0E2FD05F5F070B8
:104CB00000F0DEFD05F5FA7000F0DAFD05F5027092
:104CC00000F0D6FD05F5077000F0D2FD05F50C707B
:104CD00000F0CEFD05F5117000F0CAFD05F5167067
:104CE00000F0C6FD05F51B7000F0C2FD05F5207053
:104CF00000F0BEFD05F5257000F0BAFD05F52A703F
:104D000000F0B6FD05F52F7000F0B2FD05F534702A
:104D100000F0AEFD05F5397000F0AAFD05F53E7016
:104D200000F0A6FD05F5437000F0A2FD05F5487002
:104D300000F09EFD05F54D7000F09AFD05F55270EE
:104D400000F096FD05F5577000F092FD05F55C70DA
:104D500000F08EFD05F5617000F08AFD05F56670C6
:104D600000F086FD05F56B7000F082FD05F57070B2
:104D700000F07EFD05F5757000F07AFD05F57A709E
:104D800000F076FD05F57F7000F072FD05F582609C
:104D900000F06EFD05F2244000F06AFD05F5876025
:104DA00000F066FD05F24C4000F062FD40F2D828AC
:104DB000C2F20008404600F05BFD08F114073846D7
:104DC00000F056FD06F1640000F052FD06F13C00D3
:104DD00000F04EFD06F1500000F04AFDC6F81C80C0
:104DE00037627068716A421CE06A7260884262646D
:104DF00088BF706200EB800005EB8000211D00F091
:104E000079FD00F0B3FD306988B13068E16AC06AAD
:104E1000884228BFBDE8F0814EF60450CEF2000073
:104E20004FF080510160BFF34F8FBFF36F8FBDE82C
:104E3000F081000040F2301540F2FC664EF6045856
:104E4000C2F20005C2F20006CEF200084FF0805711
:104E500003E000BF204600F0A1FDA868D0B100F03B
:104E600061FDA86CC468201D00F0A2FCE868013850
:104E7000E860A8680138A86000F078FD94F859004F
:104E80000228EAD00128E5D070B9206B00F086FD39
:104E9000E0E700BF30680228DFD3C8F80070BFF336
:104EA0004F8FBFF36F8FD8E74FF0500080F311881A
:104EB000BFF36F8FBFF34F8FFEE700002DE9F04780
:104EC0000A9C8246206B16460F46DDE90859910080
:104ED000A5229846FBF792FA206B002F00EB860084
:104EE000A0F1040020F0070656D0387884F834008A
:104EF000387800284BD0787884F835007878002806
:104F000045D0B87884F83600B87800283FD0F878D3
:104F100084F83700F878D0B3387984F838003879D5
:104F2000A8B3787984F83900787980B3B87984F8AF
:104F30003A00B87958B3F87984F83B00F87930B37F
:104F4000387A84F83C00387A08B3787A84F83D00DF
:104F5000787AE0B1B87A84F83E00B87AB8B1F87AD5
:104F600084F83F00F87A90B1387B84F84000387BB1
:104F700068B1787B84F84100787B40B1B87B84F8D5
:104F80004200B87B00281CBFF87B84F84300002057
:104F900084F8430003E000BF002084F834000027B9
:104FA000201D372D28BF3725E562C4E9135700F0CF
:104FB0006BFC04F1180000F067FCC5F13800A0613B
:104FC00030465146424624616462676584F85870F1
:104FD00000F04EFBB9F1000F206018BFC9F8004087
:104FE000BDE8F08708480068006880F308884FF043
:104FF000000080F3148862B661B6BFF34F8FBFF331
:105000006F8F00DF00BF000008ED00E081B00020DE
:10501000009040F2CC00C2F2000000684FF0500156
:1050200081F31188BFF36F8FBFF34F8F013007D02B
:10503000FEE700BF009830B9009820B9009810B979
:1050400000980028F6D001B07047000088B040F208
:10505000A81AC2F2000A0DF11009EB46DAF80800AE
:1050600005681DB1C068046801E000BF002401F0BC
:10507000A1F802F05FF9DAF810100646884220D352
:10508000002DCAF8106051D0A6424FD302F0AEFAFC
:10509000DAF80800C068C7683D1D284600F088FBA4
:1050A00097F82800410745D400F0FE0087F8280053
:1050B00084E000BF6860DAF8080039462D6100F02E
:1050C000E7FBDAF80800016831B3C068C568046816
:1050D0002F1D384600F06CFB296A2846884795F852
:1050E00028004007EDD5A8692044A042E2D8DAF8AC
:1050F0000000002800F04881002004A931C102F01E
:1051000009F9DAF8000049460022002301F0ECFB1F
:105110000028D6D138E100BFDAF80C10CAF81060C8
:10512000CAE9021002F062FA1AE100BF65B100227A
:1051300010E000BFB8693F610119B14279601FD921
:105140000AF1080021E000BFDAF80C000068B0FAAC
:1051500080F04209DAF80000A11B00F07FFD02F0A8
:1051600045FA002840F0FC804EF60450CEF20000D4
:105170004FF080510160BFF34F8FBFF36F8FEFE0AF
:10518000311B814206D20AF10C000068294600F06A
:105190007FFB13E0DAF80000002800F01381002004
:1051A00004A991C102F0B6F8DAF8000049460022DD
:1051B000002301F099FB002800F00481396A384689
:1051C0008847CDE00098B0F1FF3F07DCDDE9012022
:1051D000039990470098002800F1C280029E7069F0
:1051E00010B1301D00F0E4FA02F0A4F8DAF8101063
:1051F000074688420DD30098CAF8107009283FD995
:10520000AEE000BF6860DAF8080021462D6100F0CA
:105210003FFBDAF80800016841B3C068C568D0F800
:1052200000802C1D204600F0C3FA296A28468847D2
:1052300095F828004007ECD5A86940444045E1D8DE
:10524000DAF80000002800F095800020CDE904087D
:10525000069502F05FF8DAF80000494600220023C4
:1052600001F042FB0028D4D184E000BFDAF80C1032
:10527000CAE902100098CAF81070092800F270807C
:10528000DFE800F00606064448620606444800BF10
:1052900096F82800019A40F00101B06986F82810BC
:1052A0008318314641F8043FBB42366106D9974224
:1052B0000AF1080007D293420AD204E0BA1A8242E5
:1052C00006D20AF10C00006800F0E2FA48E000BFE4
:1052D000316A3046884796F82800400740D5DAF80A
:1052E000000000285AD00198B169069608440021B0
:1052F000CDE9041002F00EF8DAF800004946002269
:10530000002301F0F1FA58BB48E000BF96F82800EE
:1053100022E000BF96F8280040F00101019886F8CD
:1053200028100028B06143D0384431460AF10C02FD
:1053300041F8040F3661B84288BF0AF108021068CC
:1053400000F0A6FA0CE000BF96F82800810703D40D
:10535000304600F023FB03E000F0FE0086F8280052
:10536000DAF800005946002201F0E4FC00287FF43E
:1053700029AF73E64FF0500080F31188BFF36F8FB1
:10538000BFF34F8FFEE700BF4FF0500080F311884E
:10539000BFF36F8FBFF34F8FFEE700BF4FF050009A
:1053A00080F31188BFF36F8FBFF34F8FFEE700BF0D
:1053B0004FF0500080F31188BFF36F8FBFF34F8F12
:1053C000FEE700BF4FF0500080F31188BFF36F8FEE
:1053D000BFF34F8FFEE70000F0B581B0044600F048
:1053E000A1FA94F94560012E0FDB04F1240500BFFA
:1053F000286850B1284602F0BFF8002818BF00F016
:1054000007FDF0B2013E0128F2D8FF2684F845607E
:1054100000F0ACFA00F086FA94F94470012F0EDB2C
:1054200004F11005286850B1284602F0A5F80028BC
:1054300018BF00F0EDFCF8B2013F0128F2D884F863
:10544000446001B0BDE8F04000F090BA70B5044689
:1054500000F0B0FE40F2E41CC2F2000CDCF80400E4
:1054600050B19CF80000002818BF4FF000404FF0EA
:10547000000574BB8DE000BF40F67830C2F200003A
:10548000C21D22F0070210F00701A0EB020318BFB3
:10549000104600224FF47055CCE90602002918BFCF
:1054A00003F57055411921F00701A1F10803CCF86B
:1054B000043041E90222191AC0E9003101208CF8B8
:1054C00000004FF00040CCE90211002C4FF0000525
:1054D0005FD020405DD124F0070000F1100260078A
:1054E00008BF04F10802002A4FF0000551D0DCF893
:1054F000080082424DD8604650F818EFDEF804509C
:1055000095422CD2DEF80010C1B174464D68954228
:1055100018D20B68B3B15D68954217D21868A8B16C
:105520004568954216D20468A4B16568954215D2C3
:105530002168A6460029E9D111E000BF0CF118004E
:105540000DE000BF8E46204609E000BF9E4608469B
:1055500005E000BF8646184601E000BFA646DCF81D
:1055600004108E4514D00168DEF80040AB1A112BF0
:1055700004604DD30EEB0205680719D04FF05000C0
:1055800080F31188BFF36F8FBFF34F8FFEE700BF2B
:10559000002502F02BF868075BD04FF0500080F335
:1055A0001188BFF36F8FBFF34F8F00BFFEE700BFBF
:1055B0000CF118006B60CEF8042000BF0368AB420A
:1055C0000AD21868A8420BD20368AB4204D218680A
:1055D0001A46A842F2D304E00246184601E000BF92
:1055E0001A4653686C68D618AE4202D11C44154660
:1055F00054602B19834207D1DCF80430984203D061
:10560000D0E9000323446B60AA42286018BF1560EC
:1056100001F10805DEF80400DCE90212091A9142E2
:10562000CCF8081038BFCCF80C109CF800100029FA
:1056300018BF40F00040CEF80400DCF81000002154
:105640000130CEF80010CCF8100001F0CFFF680751
:10565000A3D1284670BD000040F23010C2F2000015
:10566000016819B101680A6D01320A650068704766
:10567000034645F20D00C0F600004FF0807C21F09B
:10568000010103E903106FF0020043F8240CA3F1B9
:10569000440043F8202C704740F23400C2F200006E
:1056A00000F1600140F2BC40C2F200001222FDF79E
:1056B000A3B9000010B543F6813047F68C62C0F6FE
:1056C0000000C0F600020021FFF716FA40F2A02405
:1056D000C2F20004A06143F6512047F61472C0F6EE
:1056E0000000C0F600020021FFF706FAE06143F671
:1056F000852047F64872C0F60000C0F6000200217F
:10570000FFF7FAF9206243F6B92047F66C72C0F64B
:105710000000C0F600020021FFF7EEF9606243F6D8
:105720001D3047F6A072C0F60000C0F6000200214E
:10573000FFF7E2F9A06243F6E11047F6E062C0F637
:105740000000C0F600020021FFF7D6F947F63872D4
:10575000E062C0F6000201200021FFF73FF947F6A2
:1057600090722060C0F6000201200021FFF736F998
:1057700047F604726060C0F6000201200021FFF7C6
:105780002DF9A06047F6B060C0F60000FFF72EF8D4
:10579000E06047F6C060C0F60000FFF727F8206120
:1057A00047F6D060C0F60000FFF720F8606110BD3A
:1057B000D0E9013201699A60D1F804C08268844559
:1057C000536008BF4A60002202610868013808601F
:1057D0000868704710B538B1044600F0A3F8A46B10
:1057E00000F0C4F8204610BD4FF0500080F311883F
:1057F000BFF36F8FBFF34F8FFEE7000000281CBF81
:10580000806B70474FF0500080F31188BFF36F8FAB
:10581000BFF34F8FFEE7000040F23011C2F20001EB
:10582000086880690A68D26A0968C2F138028A6128
:105830007047000044F67C13C2F20003036044F298
:105840007C70C2F200000860802010607047000089
:1058500044F6D853C2F20003036044F6D810C2F2F3
:10586000000008604FF480701060704700F03EBD8B
:105870004FF0FF31024642F8081F00214260C0E9A4
:1058800003220160704700000021016170470000A1
:1058900010B5D1F800E01EF1010213D000F10804A8
:1058A00062681368734511D853681C68744511D831
:1058B0005A68146874450FD854682368A446734521
:1058C000EED90BE00269D2F804C007E09446224604
:1058D00004E000BF9C4601E094461A46C1F804C0AB
:1058E000CCF808108A6051600861016801310160DC
:1058F00010BD0000D0F800C0436808619A684B6092
:105900008A609A68996051600CF1010101607047EA
:10591000DFF80C00016841F470010160704700007D
:1059200088ED00E04FF0500080F31188BFF36F8FD7
:10593000BFF34F8F40F2CC00C2F2000001684A1C56
:10594000026009B1704700BF4EF60450CEF200006D
:105950000068000608BF70474FF0500080F31188C0
:10596000BFF36F8FBFF34F8FFEE7000040F2CC0014
:10597000C2F20000016839B10139016018BF7047F7
:10598000002080F3118870474FF0500080F3118899
:10599000BFF36F8FBFF34F8FFEE7000070B5002895
:1059A00008BF70BD40F2E415C2F200050446287835
:1059B00054F8041C002818BF4FF0004008420DD0D6
:1059C000A4F1080632689AB14FF0500080F31188B4
:1059D000BFF36F8FBFF34F8FFEE700BF4FF0500054
:1059E00080F31188BFF36F8FBFF34F8FFEE700BFC7
:1059F00021EA000044F8040C00F0DCFB54F8041C1D
:105A0000A8680844A86005F1180000BF0368B34205
:105A10000AD21868B04225D20368B34204D218688B
:105A20001A46B042F2D301E0024618465368D41831
:105A3000B44202D11944164651607318834206D10C
:105A40006B68984203D0D0E9000319447160B242F8
:105A5000306018BF1660686901306861BDE8704049
:105A600001F0C4BD1A465368D418B442E5D1E1E749
:105A70004EF21000CEF2000000210160816040F281
:105A80000801C2F20001096844F6D352C1F2620271
:105A9000A1FB02124FF0FF3101EB9211416007218F
:105AA0000160704740F20420EFF305811029C2F233
:105AB000000011D34EF2F032CEF20002895C02787F
:105AC000914209D24FF0500080F31188BFF36F8FDD
:105AD000BFF34F8FFEE700BF4EF60C51CEF2000130
